:101CC7000A485336323036205465737420696E20C3
:101CD700636F6D6D616E64206C696E65206973203A
:101CE7006275696C742061742025732025730A005E
:101CF70031343A30373A3536004A756C2033312063
:101D0700323031340052462054657374210A007012
:101D17006C6561736520696E70757420636D6420EE
:101D2700616E6420617267756D656E74733A002524
:041D370078000A0026
:101E1500E4F522F5231200227D087F007E4B121F78
:101E250070D2AF7530FF75311C7532F77533FF759C
:101E3500341D7535007BFF7A1C79C7120ED17BFFE7
:101E45007A1D790C120ED17BFF7A1D7916120ED1EF
:101E55007527007528007529227BFF7A1D793612B2
:101E6500124D7BFF7A1D7939120ED1AF23121A8CD0
:021E750080D516
:082478005393FCC280C28122D3
:03000000021C3BA4
:0C1C3B00787FE4F6D8FD758158021C8209
:06242400014A000149011C
:10232B00AE24AF25AB07AA06E4F9F87F907ED07DEB
:05233B0003FC021FB6C7
:072490005393F74393102260
:101F70008E248F25122490ED24F7600904700AC284
:101F80009FD29E8004D29FD29ED29C43878043D80A
:101F90008012232BEFF404F5AA12232BC3E49FFF36
:101FA00074089EFEE49DFDE49CFC78081216528F96
:061FB000BAD28ED2AC2271
:0C243100E54A640160FA754A018F9922A7
:101ECB00E4FEFCEFA804088002C313D8FC30E00149
:101EDB000E0CBC08EEED24BB601F24F7602724E931
:101EEB00601724F7601F1460042420701AEE30E092
:101EFB0004C29B8012D29B800EEE30E004D29B80FA
:101F0B0006C29B8002C29FE54A640160FA754A01D2
:021F1B008F999C
:011F1D0022A1
:082480008F993099FDC29922E9
:101FFA00EFED24B2602824FE601924E26020146008
:10200A000714600F2421701830D004C29B8011D2AB
:10201A009B800D30D004D29B8006C29B8002C29F57
:08202A003099FDC299F59922DD
:102283008B1B8A1C891DAB1BAA1CA91D1215D860A8
:1022930013051DE51D7002051C14F91215D8FF1254
:0522A300243180E2225D
:10209A00AD07AC06ED640A4C701230AC0A30AF07DB
:1020AA007F0D1224318005AF0512248030AC0A302E
:1020BA00AF07AF051224318005AF05122480AE04A4
:0320CA00AF05223D
:0C243D00E549640160FAE4F549AF99221A
:082488003098FDC298AF9922C3
:0300230002234075
:10234000309808C298754900859948309905C29916
:04235000754A003298
:1020320053E8FD7F501223F87F531223F843E8023E
:102042002214F91215D8FF1223F80E2253E8FDEFDD
:102052002420FF1223F8E4FE228E82758300EF1201
:0420620016300E2204
:04003D0043E8012271
:0400460053E8FE225B
:0A24490043E8011224A553E8FE2227
:0F23F800E5E630E0FB8FE7E5E630E2FBAFE722FA
:0622A8008B428A438944C9
:1022AE0012204EEEC395455011AB420544E544AAAB
:0D22BE00437002054312204380E943E8020B
:0122CB0022F0
:06218B008B438A448945E4
:1021910053E8FD1223F88F47E4FEEEC39546501035
:1021A100E4FF1223F8AB43AA44A94512205B80EA5D
:0321B10043E802FE
:0121B4002208
:102354007B007A00794E754601E4FF12218BE54E2D
:032364005401FF22
:012367002253
:100003007B007A00794F754601E4FF12218BE54F9F
:0900130020E0047F0180027F005F
:01001C0022C1
:100026007B007A0079507546017F0712218BE550D7
:0600360020E70312203256
:01003C0022A1
:102314007B007A0079417546017F0712218BE541E4
:0623240030E70312203235
:01232A002290
:062233008B2D8A2E892F7D
:1022390053E8FD7F611223F8E4FEEEC39D5010E4DC
:10224900FF1223F8AB2DAA2EA92F12205B80EB4396
:02225900E80299
:01225B002260
:06215D008B2D8A2E892F54
:1021630053E8FD7FA01223F8E4FEEEC39D5015ABA8
:102173002DAA2EA92F8E827583001215F1FF12232B
:07218300F80E80E643E802BC
:01218A002232
:09245D0053E8FD7FE112203C224E
:0924660053E8FD7FE212203C2244
:0D24160053E8FD7F601223F8E4FF12203C24
:012423002296
:0621B5008B098A0A890B68
:1021BB0053E8FDEF44A8122054EEC3950C5011AB1D
:1021CB0009050BE50BAA0A7002050A12204380E9E8
:0321DB0043E802D4
:0121DE0022DE
:0621DF008B4B8A4C894D78
:1021E50053E8FD7FB01223F8E4FEEEC39D5011AB1A
:1021F5004B054DE54DAA4C7002054C12204380EA73
:0322050043E802A9
:0122080022B3
:08246F0053E8FD7FFF12203C41
:012477002242
:102209007B007A0079517546017F0312218B535166
:1022190003E55124FD600804700A755104800875AE
:0922290051058003E4F551AF51A9
:012232002289
:10225C00EF5403F55224FB600804700A7552028097
:10226C00087552038003E4F5527B007A00795275AD
:07227C0045017F030222A8C7
:0622CC008B0E8A0F891041
:1022D20012204EEEC395115011AB0E0510E510AA57
:0D22E2000F7002050F12204380E943E8024F
:0122EF0022CC
:0620CD008B138A14891533
:1020D30053E8FD1223F8E4FEEEC39516501AE4FF0D
:1020E3001223F8AB130515E515AA14700205141491
:0B20F300F9EF12161E0E80E043E80219
:0120FE0022BF
:0222F000AD0738
:1022F200E4F553FB7A0079537546017F0112218B75
:10230200AF057401A807088002C333D8FC5253AF4B
:012312005377
:0123130022A7
:1020FF001200267B007A0079177546047F021221A1
:10210F008B431A8012211F531A7F12211F0223148F
:0F211F007B007A0079177545047F021222A822EF
:102368007B007A0079547546017F1D12218BE55454
:032378005401FF0E
:01237B00223F
:10237C007B007A0079557546017F1D12218BE5553E
:03238C005404FFF7
:01238F00222B
:10239000EF2411FF7B007A00795675460112218BDC
:0223A000AF5636
:0123A2002218
:1023B6007B007A0079577546017F0912218BAF574A
:0123C60022F4
:10004E005346522D3E53504952434F4E20726573C4
:10005E0065742076616C7565206973203078304642
:10006E002C207768696C652061637475616C2072F1
:10007E006561642076616C75652069732030782522
:10008E0078210A00577269746520307825782061CE
:10009E006E642072656164205346522D3E53504962
:1000AE0052434F4E2072656769737465722069738F
:1000BE002030782578210A005346522D3E53504960
:1000CE0052535441542072657365742076616C7579
:1000DE006520697320307830332C207768696C6521
:1000EE002061637475616C20726561642076616C49
:1000FE0075652069732030782578210A00534652A1
:10010E002D3E5246434F4E207265736574207661C4
:10011E006C756520697320307830322C20776869D1
:10012E006C652061637475616C2072656164207604
:10013E00616C75652069732030782578210A20005E
:10014E005772697465203078257820616E6420724C
:10015E00656164205346522D3E5246434F4E2072E7
:10016E00656769737465722069732030782578210C
:10017E002000524620434F4E464947207265736514
:10018E00742076616C7565206973206572726F726A
:10019E002C61637475616C20726561642076616C8C
:1001AE0075652069732030782578210A2000524623
:1001BE0020454E41412072657365742076616C75E1
:1001CE0065206973206572726F722C61637475613C
:1001DE006C20726561642076616C75652069732090
:1001EE0030782578210A2000524620454E5F52581D
:1001FE00414444522072657365742076616C756556
:10020E00206973206572726F722C61637475616CF4
:10021E0020726561642076616C756520697320308B
:10022E00782578210A200052462053455455505FB8
:10023E0041572072657365742076616C756520690F
:10024E0073206572726F722C61637475616C2072AB
:10025E006561642076616C75652069732030782540
:10026E0078210A200052462053455455505F52457E
:10027E0054522072657365742076616C75652069C1
:10028E0073206572726F722C61637475616C20726B
:10029E006561642076616C75652069732030782500
:1002AE0078210A2000524620434F4E46494720529D
:1002BE00465F4348206973206572726F722C6163CA
:1002CE007475616C20726561642076616C75652051
:1002DE0069732030782578210A2000524620524634
:1002EE005F53455455502072657365742076616C6A
:1002FE007565206973206572726F722C61637475F7
:10030E00616C20726561642076616C75652069731D
:10031E002030782578210A2000524620535441542B
:10032E0055532072657365742076616C756520690E
:10033E0073206572726F722C61637475616C2072BA
:10034E006561642076616C7565206973203078254F
:10035E0078210A20005246204F4253455256455F9F
:10036E0054582072657365742076616C75652069CA
:10037E0073206572726F722C61637475616C20727A
:10038E006561642076616C7565206973203078250F
:10039E0078210A200052462052504420726573651F
:1003AE00742076616C7565206973206572726F7248
:1003BE002C61637475616C20726561642076616C6A
:1003CE0075652069732030782578210A2000524601
:1003DE002052585F414444525B25645D2072657320
:1003EE0065742076616C7565206973206572726F15
:1003FE00722C61637475616C207265616420766124
:10040E006C75652069732030782578210A2000529A
:10041E00462052585F414444525F503120726573FA
:10042E0065742076616C7565206973206572726FD4
:10043E00722C2061637475616C2072656164207624
:10044E00616C75652069732030782578210A005219
:10045E00462052585F414444525F503220726573B9
:10046E0065742076616C7565206973206572726F94
:10047E00722C61637475616C2072656164207661A3
:10048E006C75652069732030782578210A005246F4
:10049E002052585F414444525F5033207265736559
:1004AE00742076616C7565206973206572726F7247
:1004BE002C2061637475616C2072656164207661B5
:1004CE006C75652069732030782578210A005246B4
:1004DE002052585F414444525F5034207265736518
:1004EE00742076616C7565206973206572726F7207
:1004FE002C2061637475616C207265616420766175
:10050E006C75652069732030782578210A00524673
:10051E002052585F414444525F50352072657365D6
:10052E00742076616C7565206973206572726F72C6
:10053E002C2061637475616C207265616420766134
:10054E006C75652069732030782578210A00524633
:10055E002054585F414444525B25645D207265739C
:10056E0065742076616C7565206973206572726F93
:10057E00722C61637475616C2072656164207661A2
:10058E006C75652069732030782578210A20005219
:10059E00462052585F50575F503020726573657415
:1005AE002076616C7565206973206572726F722C8E
:1005BE0061637475616C20726561642076616C751F
:1005CE00652069732030782578210A200052462054
:1005DE0052585F50575F50312072657365742076A4
:1005EE00616C7565206973206572726F722C616320
:1005FE007475616C20726561642076616C7565201E
:10060E0069732030782578210A20005246205258EE
:10061E005F50575F50322072657365742076616C3F
:10062E007565206973206572726F722C61637475C3
:10063E00616C20726561642076616C7565206973EA
:10064E002030782578210A200052462052585F50DB
:10065E00575F50332072657365742076616C7565D3
:10066E00206973206572726F722C61637475616C90
:10067E0020726561642076616C7565206973203027
:10068E00782578210A200052462052585F50575F35
:10069E0050342072657365742076616C75652069BF
:1006AE0073206572726F722C61637475616C207247
:1006BE006561642076616C756520697320307825DC
:1006CE0078210A200052462052585F50575F50350D
:1006DE002072657365742076616C75652069732070
:1006EE006572726F722C61637475616C20726561D4
:1006FE00642076616C7565206973203078257821C9
:10070E000A20005246204649464F5F5354415455E5
:10071E00532072657365742076616C7565206973FC
:10072E00206572726F722C61637475616C207265D4
:10073E0061642076616C7565206973203078257848
:10074E00210A200052462044594E504420726573AF
:10075E0065742076616C7565206973206572726FA1
:10076E00722C61637475616C2072656164207661B0
:10077E006C75652069732030782578210A20005227
:10078E004620464541545552452072657365742086
:10079E0076616C7565206973206572726F722C615B
:1007AE00637475616C20726561642076616C756529
:1007BE002069732030782578210A20005246205374
:1007CE00455455505F56414C55455B25645D20722E
:1007DE00657365742076616C75652069732065722A
:1007EE00726F722C61637475616C20726561642026
:1007FE0076616C75652069732030782578210A2022
:10080E00005246205052455F475552442072657340
:10081E0065742076616C7565206973206572726FE0
:10082E00722C61637475616C2072656164207661EF
:10083E006C75652069732030782578210A20005761
:10084E00726974652052465F43482072656769730A
:10085E00746572206973206572726F722077686991
:10086E006C652077726974696E67202564210A00B1
:10087E00577269746520616E6420526561642052FE
:10088E00465F4348207265676973746572206973A9
:10089E00206572726F722C7768696C652077726949
:1008AE00746520616E6420726561642030782578ED
:1008BE00207573696E6720696E7465727570742128
:1008CE000A0073656E6420636F6D706C6574656C81
:1008DE007920616E6420656E74727920746F205277
:1008EE0078207374617465210A007468652025642C
:1008FE0074682072782064617461206973202564A5
:10090E000A00313A205465737420524620535049E0
:10091E002072657365742C777269746520616E64DC
:10092E002072656164207265736973746572210A41
:10093E0000323A20546573742052462072656769FE
:10094E00737465722072657365742076616C75655B
:10095E00210A2000333A20546573742052462072C7
:10096E006567697374657220777269746520616E4C
:10097E006420726561642076616C7565210A0034AD
:10098E003A20546573742052462053504920696EA4
:10099E0074657272757074210A00353A205465734D
:1009AE0074205246207472616E7363656976657247
:1009BE00210A00363A205465737420524620747210
:1009CE00616E73636569766572207573696E6720F3
:1009DE00696E74657272757074210A00373A20540C
:1009EE0065737420524620696E20746865204465D4
:1009FE00627567204D6F6465210A0054657374201B
:100A0E005246205350492072657365742C77726973
:100A1E00746520616E64207265616420726573690D
:100A2E0073746572210A00546573742052462072E5
:100A3E00656769737465722072657365742076617B
:100A4E006C7565210A20005465737420524620721D
:100A5E006567697374657220777269746520616E5B
:100A6E006420726561642076616C7565210A00549C
:100A7E006573742052462053504920696E74657216
:100A8E0072757074210A0054657374205246207476
:100A9E0072616E73636569766572210A00546573BF
:100AAE0074205246207472616E7363656976657246
:100ABE00207573696E6720696E74657272757074D5
:100ACE00210A004465627567204D6F646520546588
:100ADE007374205246210A00504153530A00204697
:100AEE0041494C0A00204552524F5220696E707592
:100AFE007420617267756D656E74730A0000000074
:020B0E000000E5
:06242A00011F03011E006A
:101D3B007B007A0079267546012275260F7B007A87
:101D4B000079267545012275260F7B007A007926CE
:101D5B00754501227F467E207D887C41E52C75F000
:101D6B0008A4F9F81216527426252CF8E6FE6F22F9
:101D7B00052CE52CC39405227B007A007926754649
:101D8B0005227B007A007926754505227BFF7A08B0
:101D9B0079F8753000227B007A007926754505228B
:0F240700E51F30E0FB8FE7E5E630E2FBAFE722B1
:062066008B298A2A892B58
:10206C0053E8FDEF2420FF122407E4FEEEC3952C69
:10207C005018AB29052BE52BAA2A7002052A14F956
:0D208C001215D8FF1224070E80E243E8026F
:012099002224
:06212E008B298A2A892B8F
:1021340053E8FD122407E4FEEEC3952C5017E4FF88
:10214400122407AB29AA2AA92B8E82758300EF12C9
:0821540016300E80E343E8029F
:01215C002260
:101B9400E4FFE5E5640F60097A00794EAFE5121CB5
:101BA4002EE4F5258525E5E5E5652560187BFF7AB6
:101BB400007992753000852531AFE57532008F3399
:101BC400120ED17F010525E525D3940F40D675E586
:101BD4000FE5E6640360097A0079C6AFE6121C2EAD
:101BE400E5E8640260127BFF7A01790BAFE8753097
:101BF400008F31120ED17F01E4F5258525E8E5E853
:101C0400652560147BFF7A01794E75300085253196
:101C140085E832120ED17F010525E525D3940740CE
:091C2400DABF01037F01227F00F9
:0E1C2D00227BFF7530008F31120ED17F012215
:100B100075250178267C007D007BFF7A0B790B7EA2
:100B2000007F051215B2E4F52B75E806FB121D3D9A
:100B3000FF12218BE526640860077A017980120D87
:100B40009B121D3B7F0112218BE526643F60077AD3
:100B50000179BC120D9B121D3B7F02120E606007D3
:100B60007A0179F6120DAA121D3B7F03120E606006
:100B7000077A027935120DAA121D3B7F0412218BD0
:100B8000E526640360077A027973120DB9121D3BE2
:100B90007F0512218BE526640260077A0279B31281
:100BA0000DB9121D3B7F0612218BE526644A6007B2
:100BB0007A0279E9120DC8121D3B7F0712218BE5DD
:100BC00026640E60077A037927120DC8121D3B7F39
:100BD0000812218BE52660077A037963120DD7127C
:100BE0001D3B7F0912218BE52660077A0379A3124A
:100BF0000DD7121D837F0A120E68121D5F60077ADF
:100C00000379DC120E1F121D7B40EF121D3B7F0B80
:100C100012218BE52664C260077A04791D120DF358
:100C2000121D3B7F0C12218BE52664C360077A04FA
:100C3000795D120DF3121D3B7F0D12218BE52664A9
:100C4000C460077A04799C120E10121D3B7F0E12AD
:100C5000218BE52664C560077A0479DC120E101238
:100C60001D3B7F0F12218BE52664C660077A05794C
:100C70001C120E43121D3B7F10120E68121D5F6086
:100C8000077A05795C120E1F121D7B40EF121D3B87
:100C90007F1112218BE52660077A05799D120DE5FB
:100CA000121D3B7F1212218BE52660077A0579DB46
:100CB000120DE5121D3B7F1312218BE52660077A8A
:100CC000067919120E02121D3B7F1412218BE526A4
:100CD00060077A067957120E02121D3B7F1512210A
:100CE0008BE52660077A067995120E35121D3B7F3B
:100CF0001612218BE52660077A0679D3120E35127B
:100D00001D3B7F1712218BE526641160077A077956
:100D100011120E43121D3B7F1C12218BE52660072A
:100D20007A077952120E52121D3B7F1D12218BE55C
:100D30002660077A07798D120E52121D837F1E12CC
:100D4000218BE4F52C7F287E327D807C10121D677C
:100D500060197BFF7A0779CAE52C753000F531EE12
:100D6000753200F533120ED1752B01121D7B40D563
:100D7000121D3B7F1F12218BE526643260127BFF20
:100D80007A08790F753000852631120ED1752B0146
:0A0D9000E52BB401037F01227F0070
:100D9A00227BFF753000852631120ED1752B012278
:100DAA007BFF753000852631120ED1752B01227B0F
:100DBA00FF753000852631120ED1752B01227BFF7B
:100DCA00753000852631120ED1752B01227BFF75F5
:100DDA003000F531120ED1752B01227BFF753000E0
:100DEA00F531120ED1752B01227BFF753000852655
:100DFA0031120ED1752B01227BFF753000F53112AD
:100E0A000ED1752B01227BFF753000852631120E1B
:100E1A00D1752B01227BFFE52C753000F531EE757B
:100E2A003200F533120ED1752B01227BFF7530008B
:100E3A00F531120ED1752B01227BFF753000852604
:100E4A0031120ED1752B01227BFF753000F531125C
:100E5A000ED1752B012212218BE526640322122161
:050E6A008BE4F52C22D1
:101F1E00E4F525F52775E806F5257B007A00792589
:101F2E007545017F051222A87B007A007926754639
:101F3E00017F0512218BE526652560127BFF7A084D
:101F4E00794D753000852531120ED1752701052585
:101F5E00E525D394FE40C3E527B401037F01227F1C
:011F6E000072
:011F6F00224F
:101E7700E4F52575E80653E5F043B80343A880F574
:101E8700257B007A007925752C017F051220667B5A
:101E9700007A007926752C017F0512212EE526652B
:101EA7002560127527017BFF7A08797E8525301218
:101EB7000ED1AF2722E4F5270525E525D394FE406B
:031EC700C0AF2782
:011ECA0022F5
:10194100752501E4F52BE52B2428FF7400252BF5E3
:1019510082E43400F583EFF0052BE52BB420E77525
:10196100E80643E50F53B8FC75260E121D48E4FF47
:101971001222A8E4F526FB121D4A7F01121A727F7A
:10198100021222A8E4F526FB121D4A7F041222A8A6
:10199100752603121D487F031222A8752610121DF9
:1019A100487F051222A8121D457F061222A875261E
:1019B10048752754752878752979752A69121D8DFE
:1019C1007F0A1222A8121D8D7F101222A8752620CF
:1019D100121D487F11121A727F1C1222A875260748
:1019E100121D487F1D121A8212003D7B017A007977
:1019F100007D2012215DE5C030E1FB53C0FD1200E6
:101A010046752670121D487F071222A87BFF7A08AF
:101A110079D0120ED1121D45E4FF1222A812003D09
:101A2100E5C030E1FB53C0FD1200461224168F2C95
:101A31007B017A007920AD2C122233E4F52BE52BC2
:101A4100C3952C501E121D97852B317420252BF523
:101A510082E43400F583E0753200F533120ED105CE
:101A61002B80DB752670121D487F07121A827F00BA
:101A7100221222A875263F7B007A0079267545013E
:0B1A8100221222A812246612245D220B
:1017EE00752501E4F52B7400252BF582E43400F504
:1017FE0083E52BF0052BE52BB420EB75E80643E5CE
:10180E000F53B8FE43B80243A88075260E121D551D
:10181E00E4FF1222A8E4F526FB121D577F011219D0
:10182E00277F021222A8E4F526FB121D577F041211
:10183E0022A8752603121D557F031222A8752610A5
:10184E00121D557F051222A8121D527F061222A8C4
:10185E00752648752754752878752979752A691261
:10186E001DA17F0A1222A8121DA17F101222A87597
:10187E002620121D557F111219277F1C1222A875C2
:10188E002607121D557F1D12193712003D7B017A56
:10189E000079007D2012215DE51E30E0FB531EFE17
:1018AE0053C0FD120046752670121D557F07122279
:1018BE00A87BFF7A0879D0120ED1121D52E4FF12C6
:1018CE0022A812003DE51E30E1FB531EFD53C0FD64
:1018DE001200461224168F2C7B017A007920AD2C33
:1018EE00122233E4F52BE52BC3952C501E121D97B7
:1018FE00852B317420252BF582E43400F583E075B9
:10190E003200F533120ED1052B80DB752670121DB9
:08191E00557F071219377F0005
:10192600221222A875263F7B007A0079267545018A
:0B193600221222A812246612245D2257
:101A8C00752401EFB408004003021B61901A9FF803
:101A9C00282873021AB7021AF0021B00021B10024C
:101AAC001B20021B30021B40021B507A09791012BA
:101ABC001B8C7A09793F120ED17A097962121B8C30
:101ACC007A09798D120ED17BFF7A0979A8120ED181
:101ADC007BFF7A0979C1120ED17BFF7A0979EA1260
:101AEC000ED1806C7BFF7A0A7909120ED1121B94ED
:101AFC008F2480647BFF7A0A7935120ED1120B1079
:101B0C008F2480547BFF7A0A7955120ED1121F1E36
:101B1C008F2480447BFF7A0A797D120ED1121E77B6
:101B2C008F2480347BFF7A0A7995120ED1121941D9
:101B3C008F2480247BFF7A0A79AB120ED11217EE18
:101B4C008F2480147BFF7A0A79D1120ED175DF01B4
:101B5C00E4F5248003752402E52470087BFF7A0ADF
:101B6C0079E68018E524B401087BFF7A0A79EC80C9
:0F1B7C000BE524B402097BFF7A0A79F3120ED12C
:091B8B00227BFF120ED17BFF2228
:03004300022497FD
:0724970053C0FE85FE1F3259
:03004B00021DABE8
:101DAB00C0E0C0F0C083C082C0D075D000C000C0FE
:0D1DBB0001C002C003C004C005C006C0077F
:101DC80053E8FD12231412246F900040EFF0E0FF57
:101DD80030E603431E02EF30E503431E01EF30E413
:101DE8000312245D7B017A0079407545017F071253
:021DF80022A81F
:101DFA00D007D006D005D004D003D002D001D0003D
:0B1E0A00D0D0D082D083D0F0D0E032E6
:0100220022BB
:06249E00E4FF0FBF58FC33
:0124A4002215
:0223D800AE074E
:0D23DA00E4FDEDC39E500612249E0D80F51B
:0123E70022D3
:0624A500E4FF0FBF28FC5C
:0124AB00220E
:0223E800AE073E
:0D23EA00E4FDEDC39E50061224A50D80F504
:0123F70022C3
:101C4700021E15E493A3F8E493A34003F68001F280
:101C570008DFF48029E493A3F85407240CC8C3339E
:101C6700C4540F4420C8834004F456800146F6DF6D
:101C7700E4800B0102040810204080902424E47EB5
:101C8700019360BCA3FF543F30E509541FFEE49362
:101C9700A360010ECF54C025E060A840B8E493A329
:101CA700FAE493A3F8E493A3C8C582C8CAC583CA54
:101CB700F0A3C8C582C8CAC583CADFE9DEE780BE0C
:0124300000AB
:1014E200E709F608DFFA8046E709F208DFFA803EEC
:1014F20088828C83E709F0A3DFFA8032E309F608D9
:10150200DFFA8078E309F208DFFA807088828C8340
:10151200E309F0A3DFFA806489828A83E0A3F608F4
:10152200DFFA805889828A83E0A3F208DFFA804CCE
:1015320080D280FA80C680D4806980F280338010A5
:1015420080A680EA809A80A880DA80E280CA80330E
:1015520089828A83ECFAE493A3C8C582C8CCC58386
:10156200CCF0A3C8C582C8CCC583CCDFE9DEE78056
:101572000D89828A83E493A3F608DFF9ECFAA9F0D5
:10158200EDFB2289828A83ECFAE0A3C8C582C8CC2B
:10159200C583CCF0A3C8C582C8CCC583CCDFEADE44
:1015A200E880DB89828A83E493A3F208DFF980CCA6
:1015B20088F0EF60010E4E60C388F0ED2402B4049F
:1015C2000050B9F582EB2402B4040050AF23234546
:0615D20082239015327324
:1015D800BB010689828A83E0225002E722BBFE0211
:0915E800E32289828A83E4932244
:1015F100BB010CE58229F582E5833AF583E02250AF
:1016010006E92582F8E622BBFE06E92582F8E222F8
:0D161100E58229F582E5833AF583E4932212
:10161E00BB010689828A83F0225002F722BBFE01AB
:02162E00F322A5
:10163000F8BB010DE58229F582E5833AF583E8F0F0
:10164000225006E92582C8F622BBFE05E92582C89C
:02165000F22284
:101FB600C2D5E830E70FB2D5E4C39BFBE49AFAE456
:101FC60099F9E498F8EC30E717B2D5121FEC12161F
:101FD600C1E4C39BFBE49AFAE499F9E498F8800318
:101FE6001216C130D50DE4C39FFFE49EFEE49DFDAD
:041FF600E49CFC2249
:10165200E86010ECA2E713FCED13FDEE13FEEF13AE
:04166200FFD8F0229B
:100E6F00E53C2430F8E6053C22782D300702783037
:100E7F00E475F0011217840215D82000EB7F2ED2F3
:100E8F00008018EF540F2490D43440D4FF30040B5B
:100E9F00EF24BFB41A0050032461FFE53D60021533
:100EAF003D0540E5407002053F30070D782DE47594
:100EBF00F001121784EF02161E02209A7403D20754
:100ECF008003E4C207F53C8B2D8A2E892FE4F53D74
:100EDF00F53FF540E53D60077F20120EAA80F575BE
:100EEF003EFFC201C200C202C203C205C206C2084F
:100EFF00120E78FF700D3007057F00120EBBAF404A
:100F0F00AE3F22B4255FC2D5C204120E78FF24D0A3
:100F1F00B40A00501A75F00A783D30D50508B6FFAF
:100F2F000106C6A426F620D5047002D20380D92468
:100F3F00CFB41A00EF5004C2E5D2040210BBD201A5
:100F4F0080C6D20080C0D20280BCD2D580BAD20572
:100F5F0080B47F20120EAA2002077401B53D004015
:100F6F00F1120E6FFF120EAA020EE3D208D2068004
:100F7F0095120E6FFB120E6FFA120E6FF94A4B702D
:100F8F0006798C7A117BFF20022EE53D602A7E00C8
:100F9F008E827583001215F160060EEE653E70F0BD
:100FAF00C2D5EBC0E0EAC0E0E9C0E0EE121102D01A
:100FBF00E0F9D0E0FAD0E0FB1215D8FF60AAEBC041
:100FCF00E0EAC0E0E9C0E0120EAAD0E02401F9D0B7
:100FDF00E03400FAD0E0FBE53E0460DCD53ED9807A
:100FEF00877BFF7A1079FED202809C79108002797C
:100FFF0008C206C2088008D2D5790A8004790AC2CD
:10100F00D5E53E047002F53EE4FAFDFEFF120E6FC9
:10101F00FC7B08200113120E6FFD7B1030000A12AB
:10102F000E6FFE120E6FFF7B20EC3382D592D550E0
:10103F0013C3E43000069FFFE49EFEE42001039DEE
:10104F00FDE49CFCE4CBF8C201EC700CCFCECDCC10
:10105F00E824F8F870F38017C3EF33FFEE33FEED9B
:10106F0033FDEC33FCEB33FB994002FB0FD8E9EB7C
:10107F00300105F8D0E0C448B201C0E00AEC4D4E93
:10108F004F78207B0070C2EAB53E0040BCC0E01232
:10109F001104D0F0D0E0200104C4C0E0C4B201C0FC
:1010AF00F0120E93D0F0D5F0EB020EE31217A40F4F
:1010BF0080530FFA580F514C0F4D420FFE4F100631
:0F10CF00441006490F6643100C550FF0460FF002
:1010DE00450FF04711AC500F552D0F592E0F7C2B8D
:1010EE000F5D230F7A2011952A0F154800000F74FB
:1010FE003F3F3F00790AA2D5200314300509B910ED
:10110E00020404B9080104A2D520060250010420ED
:10111E0002689202B53D005034C0E07F20300319C2
:10112E007F30A20272067205500F12115BC202C20C
:10113E0006C205C2087F30800F300503E9C0E012F9
:10114E000EAA300503D0E0F9D0E0B53DCC3005173E
:10115E007F30B9100C120EAA7F583004077F7880AA
:10116E0003B90803120EAA3002057F2D020EAA7FC4
:10117E00202008F87F2B2006F322920280CF286EC3
:10118E00756C6C2900D201120E6F3001F8C2017815
:10119E003D30D50108F6020F152D50434958120E59
:1011AE006F2403B405004001E49011A793120E9B27
:0D11BE00743A120E9BD203753D04020FFA25
:1011CB00E53930030104F823282427F8227824304A
:1011DB0003027827E475F0011217840215D860EC2E
:1011EB00C53D7002153C14C53D200304FF02001DD4
:1011FB00782474FFF5F0021794FF0223A3E53A60FD
:10120B0006D53A037F002220030F1223C7EF600895
:10121B00053DE53D7002053C22782412177B121523
:10122B00D8FF60E97824E475F00112178480DE1290
:10123B001212EFC0E0121204D0E040F380A0D203F0
:10124B008002C2038B248A258926E4F53BF539F508
:10125B003CF53D753A00C202C200C201C204121134
:10126B00D8FF7005AF3B7E0022B425301211D8FF9A
:10127B0024D0B40A00500C75F00AC53AA4253AF5EF
:10128B003A80E924CFB41A00EF5002C2E50214AE43
:10129B00D20180D8D20080D4D20480D0EF121204B5
:1012AB00500812123AEF600E80A9EFC0E012121232
:1012BB00D0E06F609EEF60741211E980A7121212DA
:1012CB00EF6069E53A7007053A8003121212EF607E
:1012DB001420040E1211CBE475F001121784EF12D7
:1012EB00161ED53AE62004040539053B80BA1212C6
:1012FB0008EFC0E0121204D0E050041211E9E4FF31
:10130B0020040E1211CBE475F001121784EF1216A4
:10131B001EEF70DA2004040539053B808BE53A603B
:10132B0002053A12123A121208EF70C6300304E4A7
:10133B001211E9E53B600302126F7EFF7FFF222053
:10134B00041174FFFCFDFEFF1211CB12177B121759
:10135B0061053902125ED0E080D27900800A7910E3
:10136B00800679088002790AD205E53A6002053ACF
:10137B00E9C0E012123AEF60DD121212BF2D04D257
:10138B00028003BF2B0912123AEF60CA121208D067
:10139B00E0B40A028033B40802802EBF30277002FB
:1013AB007408C205C0E0121208D0E0BF78028003B7
:1013BB00BF5816053AD53A028007D53A04D20580B4
:1013CB000B741080197002740ABF000AEFF8E4FC6A
:1013DB00FDFEFF021461C0E0EF1211E9D0E0F9E469
:1013EB00FCFDFEFFE9C0E0ECC0E0EDC0E0EEC0E0CC
:1013FB00EFC0E0121208EFF8D0E0FFD0E0FED0E033
:10140B00FDD0E0FCD0F0E8604DB461004007B47B48
:10141B00005002C2E524D0503DFA24F6500724F9BF
:10142B005034240AFAEAB5F000502BCFA9F0A42FC0
:10143B00FF92D5E9C5F0CEA4A2D53EFE92D5E9C563
:10144B00F0CDA4A2D53DFD92D5E9C5F0CCA4A2D593
:0B145B003CFCC205808EE8C0E02004CD
:101466002A200508053B3002031217531211CB122E
:10147600177B053920000B20010DEE8FF012166642
:1014860080091217618004EF12161ED0E01211E9CE
:1014960002125E2004101211CB12177B0539E53CAF
:1014A600853DF012166680E81217A41328531369B7
:1014B60058129F4C129B42127748136D4F1371447A
:1014C60012C843136549137155134A46134A451307
:0C14D6004A4712A32A14994E000012A7E6
:10166600BB010A89828A83F0E5F0A3F0225006F7CF
:0F16760009A7F01922BBFE06F3E5F009F31922CC
:1016850075F008758200EF2FFFEE33FECD33CDCC1C
:1016950033CCC58233C5829BED9AEC99E58298409F
:1016A5000CF582EE9BFEED9AFDEC99FC0FD5F0D67C
:1016B500E4CEFBE4CDFAE4CCF9A88222B800C1B9A6
:1016C5000059BA002DEC8BF084CFCECDFCE5F0CBE4
:1016D500F97818EF2FFFEE33FEED33FDEC33FCEB1D
:1016E50033FB10D703994004EB99FB0FD8E5E4F9D8
:1016F500FA227818EF2FFFEE33FEED33FDEC33FCC5
:10170500C933C910D7059BE99A4007EC9BFCE99AB8
:10171500F90FD8E0E4C9FAE4CCFB2275F010EF2FFD
:10172500FFEE33FEED33FDCC33CCC833C810D707FD
:101735009BEC9AE899400AED9BFDEC9AFCE899F838
:0E1745000FD5F0DAE4CDFBE4CCFAE4C8F922CB
:0E175300C3E49FFFE49EFEE49DFDE49CFC22A7
:10176100BB010789828A830217D65005E9F802175F
:0A177100CABBFE05E9F80217E222E8
:09177B00E6FB08E6FA08E6F92293
:10178400FAE6FB0808E6F925F0F618E6CA3AF62266
:10179400FAE6FB0808E625F0F9F618E63AFAF62226
:1017A400D083D082F8E4937012740193700DA3A3D4
:1017B40093F8740193F5828883E4737402936860E8
:0617C400EFA3A3A380DFE8
:1023C70010090B122453BF0D027F0A02209AAF583F
:0123D70022E3
:05001D008F58D20922FA
:1023A300EFC394094005EF940E4003BF2003D3808D
:0323B30001C32241
:0C17CA00ECF608EDF608EEF608EFF6224B
:0C17D600ECF0A3EDF0A3EEF0A3EFF02286
:0C17E200ECF208EDF208EEF208EFF22243
:0A2453003098FDAF99C2987E002278
:00000001FF
