:1000000002226B8F5B0000DFFC22220291D07B0179
:0A0010007A007985227F1902376813
:0E001B0002921C7F3E023768028A7B026D2033
:10002B000292A2E94A4B70012212014CFF6D700142
:10003B0022EF7004FBFAF92209E970ED0A80EAA3BA
:10004B00E0F534A3E0F53522028DE3E709F608DF8E
:10005B00FA8046E709F208DFFA803E88828C83E754
:10006B0009F0A3DFFA8032E309F608DFFA8078E3C0
:10007B0009F208DFFA807088828C83E309F0A3DF32
:10008B00FA806489828A83E0A3F608DFFA805889B4
:10009B00828A83E0A3F208DFFA804C80D280FA8058
:1000AB00C680D4806980F28033801080A680EA807D
:1000BB009A80A880DA80E280CA803389828A83ECB6
:1000CB00FAE493A3C8C582C8CCC583CCF0A3C8C53A
:1000DB0082C8CCC583CCDFE9DEE7800D89828A83B9
:1000EB00E493A3F608DFF9ECFAA9F0EDFB22898281
:1000FB008A83ECFAE0A3C8C582C8CCC583CCF0A335
:10010B00C8C582C8CCC583CCDFEADEE880DB898238
:10011B008A83E493A3F208DFF980CC88F0EF6001C7
:10012B000E4E60C388F0ED2402B4040050B9F58282
:10013B00EB2402B4040050AF23234582239000A686
:10014B0073BB010689828A83E0225002E722BBFE41
:10015B0002E32289828A83E49322BB010CE5822984
:10016B00F582E5833AF583E0225006E92582F8E62D
:10017B0022BBFE06E92582F8E222E58229F582E51B
:10018B00833AF583E49322BB010689828A83F022AA
:10019B005002F722BBFE01F322F8BB010DE58229C9
:1001AB00F582E5833AF583E8F0225006E92582C80B
:1001BB00F622BBFE05E92582C8F222EF8DF0A4A83A
:1001CB00F0CF8CF0A428CE8DF0A42EFE22C2D5EC5D
:1001DB0030E709B2D5E4C39DFDE49CFCEE30E71596
:1001EB00B2D5E4C39FFFE49EFE12051FC3E49DFD41
:1001FB00E49CFC800312051F30D507C3E49FFFE48A
:10020B009EFE22C5F0F8A3E028F0C5F0F8E58215B4
:10021B008270021583E038F022E88FF0A4CC8BF0CB
:10022B00A42CFCE98EF0A42CFC8AF0EDA42CFCEAA7
:10023B008EF0A4CDA8F08BF0A42DCC3825F0FDE9E1
:10024B008FF0A42CCD35F0FCEB8EF0A4FEA9F0EBD7
:10025B008FF0A4CFC5F02ECD39FEE43CFCEAA42DE3
:10026B00CE35F0FDE43CFC2275F008758200EF2FD3
:10027B00FFEE33FECD33CDCC33CCC58233C5829B61
:10028B00ED9AEC99E58298400CF582EE9BFEED9A87
:10029B00FDEC99FC0FD5F0D6E4CEFBE4CDFAE4CC23
:1002AB00F9A88222B800C1B90059BA002DEC8BF025
:1002BB0084CFCECDFCE5F0CBF97818EF2FFFEE33E2
:1002CB00FEED33FDEC33FCEB33FB10D7039940040D
:1002DB00EB99FB0FD8E5E4F9FA227818EF2FFFEE34
:1002EB0033FEED33FDEC33FCC933C910D7059BE965
:1002FB009A4007EC9BFCE99AF90FD8E0E4C9FAE4C1
:10030B00CCFB2275F010EF2FFFEE33FEED33FDCC5F
:10031B0033CCC833C810D7079BEC9AE899400AED49
:10032B009BFDEC9AFCE899F80FD5F0DAE4CDFBE4F1
:10033B00CCFAE4C8F922EB9FF5F0EA9E42F0E99D76
:10034B0042F0E89C45F022E8600FECC313FCED1380
:10035B00FDEE13FEEF13FFD8F1227401FF3395E08E
:10036B00FEFDFC080808E6CF2FF618E6CE3EF61881
:10037B00E6CD3DF618E6CC3CF622FAE6FB0808E69D
:10038B00F925F0F618E6CA3AF622E0FBA3E0FAA349
:10039B00E0F922F8E0FBA3A3E0F925F0F0E58215E4
:1003AB008270021583E0FA38F022EBF0A3EAF0A397
:1003BB00E9F022BB010789828A830203955005E984
:1003CB00F8020574BBFE05E9F802057D89828A8374
:1003DB00020586D083D082F8E49370127401937077
:1003EB000DA3A393F8740193F5828883E4737402CD
:1003FB00936860EFA3A3A380DF8A838982E473E70A
:10040B0009F60870FA8046E709F20870FA803E8810
:10041B00828C83E709F0A370FA807EE309F60870FB
:10042B00FA8076E309F20870FA806E88828C83E397
:10043B0009F0A370FA806289828A83E0A3F60870C0
:10044B00FA805689828A83E0A3F20870FA804A8088
:10045B00D280FA80C680D4806580F2803180108093
:10046B00A680EA809A80A880DA80E280CA803189EF
:10047B00828A83ECFAE493A3C8C582C8CCC583CC2B
:10048B00F0A3C8C582C8CCC583CC70E9800D898226
:10049B008A83E493A3F60870F9ECFAA9F0EDFB223A
:1004AB0089828A83ECFAE0A3C8C582C8CCC583CC09
:1004BB00F0A3C8C582C8CCC583CC70EA80DD898225
:1004CB008A83E493A3F20870F980CE88F0ED2402BE
:1004DB00B4040050C4F582EB2402B4040050BA23D8
:1004EB002345822390045A73EF4E6012EF60010E86
:1004FB00EDBB010B89828A83F0A3DFFCDEFA228934
:10050B00F05007F709DFFCA9F022BBFEFCF309DF73
:10051B00FCA9F022BC000BBE0029EF8DF084FFADCF
:10052B00F022E4CCF875F008EF2FFFEE33FEEC333E
:10053B00FCEE9DEC984005FCEE9DFE0FD5F0E9E43A
:10054B00CEFD22EDF8F5F0EE8420D21CFEADF07559
:10055B00F008EF2FFFED33FD4007985006D5F0F272
:10056B0022C398FD0FD5F0EA22E6FB08E6FA08E66F
:10057B00F922E2FB08E2FA08E2F922E493FB7401A8
:10058B0093FA740293F9227265675F76616C313A64
:10059B0020307825780A007265675F76616C3A20A7
:1005AB00307825780A00483A20307825782C204C72
:1005BB003A307825780A0070777264776E3A20307B
:1005CB007825782C20307825782C203078257820C9
:1005DB002C307825782C20307825780A000A504F5B
:1005EB0046434F4E3A20307825780A00504F464309
:1005FB004F4E3A2030782578200D0A006C6F77200B
:10060B006261747465727920776172696E670D0A25
:10061B0000696E7420636F756E743A20307825789C
:10062B002C20696E745B305D3A307825780A006750
:10063B006174653A2025782C20636C6B6C6663744F
:10064B00726C3A2025780A0077636F6E3A20307807
:10065B0025780A003120307825780A00322030784E
:10066B0025780A0070777264776E3A203078257897
:10067B002C207265743A307825780A0077616B65A7
:10068B00642075700A00307825782C203078257816
:10069B002C20307825782C20307825780A2000699A
:1006AB006E7420636F756E743A20307825782C2029
:1006BB00696E745B305D3A307825782C20726574E6
:1006CB003A307825780A00307825782C2030782538
:1006DB00782C20307825782C20307825780A004F1C
:1006EB00504D434F4E2025782C2025780A00504F33
:1006FB0046434F4E2025782C2025780A0043504C3A
:10070B00444F434F4E2025782C2025780A00307813
:10071B00257820307825780A0054657374204C6F47
:10072B007720506F77657220726567697374657295
:10073B0020696E697469616C2076616C7565200047
:10074B004C6F7720706F7765722072656769737471
:10075B00657220777269746520004C6F7720706F1B
:10076B00776572204465657020736C6565702074C5
:10077B00696D6572206F66663A52544320004C6F68
:10078B007720706F776572204465657020736C6598
:10079B0065702074696D6572206F66663A574454B4
:1007AB0020004C6F7720706F776572204465657001
:1007BB0020736C6565702074696D6572206F666659
:1007CB003A50494E20004C6F7720706F776572203E
:1007DB004465657020736C6565702074696D657216
:1007EB00206F6E3A52544320004C6F7720706F7716
:1007FB006572204465657020736C65657020746943
:10080B006D6572206F6E3A57445420004C6F772001
:10081B00706F776572204465657020736C656570C9
:10082B002074696D6572206F6E3A4750494F2000F6
:10083B004C6F7720706F77657220726567207265D9
:10084B0074656E74696F6E2074696D6572206F6666
:10085B00663A52544320004C6F7720706F77657265
:10086B002072656720726574656E74696F6E207493
:10087B00696D6572206F66663A57445420004C6F61
:10088B007720706F7765722072656720726574656B
:10089B006E74696F6E2074696D6572206F66663A4F
:1008AB0050494E20004C6F7720706F776572207225
:1008BB00656720726574656E74696F6E2074696DFF
:1008CB006572206F6E3A52544320004C6F77207044
:1008DB006F7765722072656720726574656E7469D7
:1008EB006F6E2074696D6572206F6E3A5744542099
:1008FB00004C6F7720706F7765722072656720727E
:10090B006574656E74696F6E2074696D6572206FA6
:10091B006E3A50494E20004C6F7720706F7765729E
:10092B0020737462793A52544320004C6F772070D5
:10093B006F77657220737462793A50494E20004C80
:10094B006F7720706F776572206465657020736CAC
:10095B006565702074696D6572206F6E3A574454EB
:10096B002C2077616B65757020627920727463201F
:10097B00004C6F7720706F776572207265672072FD
:10098B006574656E74696F6E2074696D6572206F26
:10099B006E3A5744542C2077616B657570206279E1
:1009AB00207274632000436865636B204C6F772063
:1009BB00706F77657220666C616773004C6F772080
:1009CB004261747465727920766F6C74616765200F
:1009DB00646574656374696F6E00554E4B4E4F576B
:1009EB004E20434D442E0A005465737420535049D6
:1009FB00206D6173746572207265676973746572BB
:100A0B0020727720005350494D434F4E303A207798
:100A1B00726F6E672076616C756520307825303289
:100A2B00780A005350494D434F4E313A2077726F3D
:100A3B006E672076616C7565203078253032780AC8
:100A4B00005350494D535441543A2077726F6E679F
:100A5B002076616C7565203078253032780A00532A
:100A6B0050494D4441543A2077726F6E672076613E
:100A7B006C7565203078253032780A005350494424
:100A8B004C593A2077726F6E672076616C756520D2
:100A9B003078253032780A00535049544553543A34
:100AAB002077726F6E672076616C756520307825C4
:100ABB003032780A0053504953434F4E3A207772E5
:100ACB006F6E672076616C756520307825303278D3
:100ADB000A0053504953535441543A2077726F6E66
:100AEB00672076616C7565203078253032780A0086
:100AFB00535049534441543A2077726F6E672076B6
:100B0B00616C7565203078253032780A00202053CF
:100B1B00434B40314D487A2C20535049204D6F6444
:100B2B00652025642C20435320696E20736F6674F7
:100B3B00776172650A00466C617368207265616447
:100B4B002069643A20307825780A00202053434BE3
:100B5B0040314D487A2C20535049204D6F6465200D
:100B6B00302C20435320696E206861726477617268
:100B7B00650A00202053434B402564206B487A0ABA
:100B8B0000466C617368207265616420696420663D
:100B9B0061696C20402564487A3A20307825780AC0
:100BAB0000202053434B402564206D487A0A0020D7
:100BBB0020666C617368206973206572617365646C
:100BCB000A0077726F6E672076616C7565203078DE
:100BDB00253032782061742025640A00202077723A
:100BEB0069746520666C6173682040307825780ADB
:100BFB0000202064756D7020666C61736820403036
:100C0B007825780A0030782530327820000A0020C9
:100C1B0020666C6173682069732070726F677261F4
:100C2B006D6D65640A0077726F6E672076616C7507
:100C3B006520307825303278203C2D2D20307825DA
:100C4B003032782061742025640A002020666C61A4
:100C5B0073682069732076657269666965640A003A
:100C6B0053656E736F7220726561642070726F646E
:100C7B0075637420696420307825780A006F6C6482
:100C8B00207265736F6C7574696F6E203078257880
:100C9B002C206E6577207265736F6C7574696F6E3F
:100CAB0020307825780A006458203D2025782C20A8
:100CBB006459203D2025780A00556E646566696E7F
:100CCB006520436F6D6D616E643A20253032780A72
:100CDB000020256420696E205350495F4D4F4445D9
:100CEB005F25643A2025303278202E2E2E20253099
:100CFB0032780A006661696C20696E205350495F37
:100D0B004D4F44455F25640A0077726F6E67205321
:100D1B0050495F4D4F44455F25640A005465737419
:100D2B002053504920464C4153480A005465737474
:100D3B00205350492053454E534F520A00554E4BAA
:100D4B004E4F574E20535049206D6173746572207E
:100D5B00746573742066756E6374696F6E0A0054E4
:100D6B006573742053656D6974656B2070726F7455
:100D7B006F636C0A00546573742053504920666C82
:100D8B006173682070726F746F636F6C0A00000080
:100D9B00000000000000E5612455F8E605612278AB
:100DAB00523007027855E475F00112038502014CAD
:100DBB002000EB7F2ED2008018EF540F2490D434F8
:100DCB0040D4FF30040BEF24BFB41A00500324614E
:100DDB00FFE562600215620565E56570020564302A
:100DEB00070D7852E475F001120385EF02019202B0
:100DFB00985F7403D2078003E4C207F5618B528AB4
:100E0B00538954E4F562F564F565E56260077F206C
:100E1B00120DDC80F57563FFC201C200C202C20372
:100E2B00C205C206C208120DAAFF700D3007057F5E
:100E3B0000120DEDAF65AE6422B4255FC2D5C204BE
:100E4B00120DAAFF24D0B40A00501A75F00A78626A
:100E5B0030D50508B6FF0106C6A426F620D50470CA
:100E6B0002D20380D924CFB41A00EF5004C2E5D2CA
:100E7B0004020FEDD20180C6D20080C0D20280BC2A
:100E8B00D2D580BAD20580B47F20120DDC200207A8
:100E9B007401B5620040F1120DA1FF120DDC020EC0
:100EAB0015D208D2068095120DA1FB120DA1FA12D4
:100EBB000DA1F94A4B700679BE7A107BFF20022EEA
:100ECB00E562602A7E008E827583001201656006E2
:100EDB000EEE656370F0C2D5EBC0E0EAC0E0E9C08E
:100EEB00E0EE121034D0E0F9D0E0FAD0E0FB1201C2
:100EFB004CFF60AAEBC0E0EAC0E0E9C0E0120DDCF9
:100F0B00D0E02401F9D0E03400FAD0E0FBE5630433
:100F1B0060DCD563D980877BFF7A107930D2028071
:100F2B009C791080027908C206C2088008D2D57954
:100F3B000A8004790AC2D5E563047002F563E4FA0A
:100F4B00FDFEFF120DA1FC7B08200113120DA1FD6C
:100F5B007B1030000A120DA1FE120DA1FF7B20ECBD
:100F6B003382D592D55013C3E43000069FFFE49E25
:100F7B00FEE42001039DFDE49CFCE4CBF8C201ECF4
:100F8B00700CCFCECDCCE824F8F870F38017C3EFFC
:100F9B0033FFEE33FEED33FDEC33FCEB33FB9940CB
:100FAB0002FB0FD8E9EB300105F8D0E0C448B201E1
:100FBB00C0E00AEC4D4E4F78207B0070C2EAB5635F
:100FCB000040BCC0E0121036D0F0D0E0200104C4C9
:100FDB00C0E0C4B201C0F0120DC5D0F0D5F0EB02E9
:100FEB000E151203DE0EB2530F2C580E834C0E7FD0
:100FFB00420F304F0F38440F38490E98430F3E5570
:10100B000F22460F22450F224710DE500E872D0E62
:10101B008B2E0EAE2B0E8F230EAC2010C72A0E4735
:10102B004800000EA63F3F3F00790AA2D5200314CB
:10103B00300509B910020404B9080104A2D5200631
:10104B00025001042002689202B562005034C0E0E5
:10105B007F203003197F30A20272067205500F12E7
:10106B00108DC202C206C205C2087F30800F300548
:10107B0003E9C0E0120DDC300503D0E0F9D0E0B598
:10108B0062CC3005177F30B9100C120DDC7F583055
:10109B0004077F788003B90803120DDC3002057F4B
:1010AB002D020DDC7F202008F87F2B2006F32292E7
:1010BB000280CF286E756C6C2900D201120DA13005
:1010CB0001F8C201786230D50108F6020E472D50A7
:1010DB00434958120DA12403B405004001E49010BC
:1010EB00D993120DCD743A120DCDD2037562040251
:1010FB000F2C5354434C4B005244434C4B00534323
:10110B00434C4B005354414C4D005244414C4D0009
:10111B00434C414C4D0054494D4552004750494FAB
:10112B00005254430050574D004F545000535049F8
:10113B000049535200555342004932430052460076
:10114B0057445400504D414E00434C4B52535400A6
:10115B0052520057520053520048454C50000D0A52
:10116B0048454C503A0D0A5354434C4B2068686D1C
:10117B006D7373202D2D2053657420436C6F636B3F
:10118B002054696D650D0A5244434C4B202020209E
:10119B00202020202D2D20446973706C6179204311
:1011AB006C6F636B2054696D650D0A5343434C4B55
:1011BB00204F4E7C4F4646202D2D20446973706C7A
:1011CB00617920436C6F636B2054696D65204576A4
:1011DB00657279205365636F6E640D0A5354414CED
:1011EB004D2068686D6D2020202D2D2053657420B7
:1011FB00416C61726D0D0A5244414C4D20202020F0
:10120B00202020202D2D20446973706C61792041A2
:10121B006C61726D2054696D650D0A434C414C4DE8
:10122B0020202020202020202D2D20436C65617252
:10123B0020416C61726D2054696D650D0A54494DE6
:10124B00455220202020202020202D2D2054657356
:10125B00742054696D65720D0A4750494F20202048
:10126B002020202020202D2D2054657374204750E2
:10127B00494F0D0A525443202020202020202020AB
:10128B00202D2D2054657374205254430D0A505752
:10129B004D202020202020202020202D2D20546583
:1012AB0073742050574D0D0A4F545020202020208E
:1012BB0020202020202D2D2054657374204F545056
:1012CB000D0A535049202020202020202020202DA3
:1012DB002D2054657374205350490D0A49535220E5
:1012EB002020202020202020202D2D2054657374B9
:1012FB00204953520D0A55534220202020202020F4
:10130B002020202D2D2054657374205553420D0A37
:10131B00493243202020202020202020202D2D204A
:10132B0054657374204932430D0A52462020202005
:10133B00202020202020202D2D2054657374205236
:10134B00460D0A5744542020202020202020202006
:10135B002D2D2054657374205744540D0A504D4164
:10136B004E2020202020202020202D2D205465735E
:10137B007420504F574552204D616E6167656D6506
:10138B006E740D0A434C4B525354202020202020C6
:10139B00202D2D205465737420436C6F636B2026B6
:1013AB002052657365740D0A525220202020202094
:1013BB0020202020202D2D20726561642073667201
:1013CB002072656769737465720D0A57522020206D
:1013DB0020202020202020202D2D2077726974655D
:1013EB00207366722072656769737465720D0A5398
:1013FB005220202020202020202020202D2D207343
:10140B006574206D61726B65642062697473206F03
:10141B0066207366722072656769737465720D0A54
:10142B000D0A00257300756E6B6E6F7720636F6D01
:10143B006D616E6400434D443E000D0A00080800C8
:10144B003078257820307825780A0054657374201D
:10145B0049535220726567697374657220696E69AE
:10146B007469616C2076616C7565732000546573CB
:10147B0074204750494E543020696E7465727275F2
:10148B00707420004750494E5430005465737420DB
:10149B004750494E543120696E7465727275707481
:1014AB0020004750494E5431005465737420475007
:1014BB00494E543220696E746572727570742000D7
:1014CB004750494E543200546573742054696D650E
:1014DB00723020696E746572727570742000544995
:1014EB004D4552300054657374202054696D6572FC
:1014FB003120696E74657272757074200054494D99
:10150B0045523100546573742053657269616C30B8
:10151B0020696E7465727275707420005345524960
:10152B00414C3000546573742054696D65723220E0
:10153B00696E74657272757074200054494D455212
:10154B00320054657374204D53504920446F6E65BF
:10155B0020696E7465727275707420004D5350491A
:10156B00005465737420496E7465726E616C2057FC
:10157B00616B657570285254432920696E746572CE
:10158B0072757074200057552852544329005465C6
:10159B0073742074696D65723020262074696D65D3
:1015AB00723220696E7465727275707420005465A6
:1015BB0073742074696D6572302C2074696D65725B
:1015CB00322C204D5350492C2074696D657231209B
:1015DB0073657269616C302049465020696E746581
:1015EB0072727570742000696E74657272757074A6
:1015FB005F68617070656E5F636F756E743A2025FE
:10160B00780A005350494D535441543A20307825B1
:10161B00780A005350494D434F4E303A20307825CD
:10162B00780A0049454E313A20307825780A00492E
:10163B004E544558503A20307825780A0049524389
:10164B004F4E3A20307825780A0054434F4E3A20BB
:10165B00307825780A0053455249414C3028554182
:10166B0052542900554E4B4E4F574E204953522042
:10167B00746573742066756E6374696F6E0A0050BF
:10168B00303A2025782C2050313A25782C205032B6
:10169B003A25780A0050303A2025782C2050313AE0
:1016AB0025782C2050323A25782025780A00303ABC
:1016BB003A2050304449523A2025782C205031445E
:1016CB0049523A25782C2050324449523A25780A0F
:1016DB000031203078257820307825782030782517
:1016EB00780A0032203078257820307825780A0067
:1016FB00332030782578203078257820307825787D
:10170B000A003420307825782030782578203078FE
:10171B0025780A0054657374204750494F20726531
:10172B0067697374657220696E697469616C207680
:10173B00616C756573200054657374204750494F75
:10174B0020494E505554200054657374204750491E
:10175B004F204F55545055542000546573742047F7
:10176B0050494F20456E61626C652062697420663A
:10177B006F72206469676974616C2066696C74654B
:10178B0072200054657374204750494F20696E7066
:10179B007574206F7574707574206F7074696F6ECB
:1017AB0073200054657374204750494F20616C6C53
:1017BB002070696E732000554E4B4E4F574E20478D
:1017CB0050494F20746573742066756E6374696F2E
:1017DB006E2C20706C6561736520696E707574205A
:1017EB00616761696E2E0A00504F525420256420A8
:1017FB0050494E202564206C6576656C202564006D
:10180B0050304449523A307825780A0050303A30FB
:10181B007825780A00496E636F727265637420478E
:10182B0050494F20504F525400504F525420256472
:10183B002050494E20256420004446454E2C205014
:10184B004F52543A2025642C20307825780A0020FA
:10185B0032204446454E2C20504F52543A2025649A
:10186B002C20307825782C2025780A007465737429
:10187B002074696D6572303A2025640A00554E4B11
:10188B004E4F574E204343207265676973746572E0
:10189B002C20706C6561736520696E7075742061A6
:1018AB006761696E2E0A00313A2025642030782555
:1018BB007820307825780A0031323A2025642025AB
:1018CB00642025642025642025640A00636320338B
:1018DB002025782025780A0063617020312030782C
:1018EB00257820307825782025642025640A00543B
:1018FB006573742054494D455220302073696D70C7
:10190B006C65200054494D4552300054657374206A
:10191B0054494D455220312073696D706C65200020
:10192B0054494D45523100546573742054494D450B
:10193B005220322073696D706C65200054494D45FF
:10194B00523200546573742054494D455220322055
:10195B00636F6D70617265206D6F64652030200060
:10196B00546573742054494D4552203220636F6D7A
:10197B0070617265206D6F646520312000323A20F2
:10198B00307825780A00546573742054494D4552BC
:10199B0020322063617074757265206D6F646520F1
:1019AB00302000546573742054494D455220322029
:1019BB0063617074757265206D6F646520310054BE
:1019CB006573742054494D4552203220636F756EF8
:1019DB00742000546573742054494D4552203220B5
:1019EB006D756C7469206361707475726573206DAD
:1019FB006F64652030200025782025782025640A27
:101A0B000025782025780A00554E4B4E4F574E2017
:101A1B0054494D455220746573742066756E63741A
:101A2B00696F6E2E0A00696E746572727570745FE1
:101A3B0068617070656E5F636F756E7420307825AA
:101A4B00782C20696E746572727570745F68617042
:101A5B0070656E5B305D3A20307825780A00505700
:101A6B005244574E20307825780A003232204350AA
:101A7B0054303A20307825782C2030782578003275
:101A8B003320435054313A20307825782C2030784D
:101A9B00257800323420435054303A203078257862
:101AAB002C203078257800323520435054313A20A1
:101ABB00307825782C20307825780032322043502E
:101ACB0054303A20307825782C20307825780A004D
:101ADB00323320435054313A20307825782C203043
:101AEB007825780A00323420435054303A2030782D
:101AFB0025782C20307825780A0032352043505435
:101B0B00313A20307825782C20307825780A0072ED
:101B1B0065616420435054303A20307825782C206E
:101B2B00307825780A007265616420435054313A4D
:101B3B0020307825780A0054657374205254432062
:101B4B00434F4D5041524520414C41524D20544939
:101B5B004D45522052455345542000575528525459
:101B6B0043290054657374205254432043555252F9
:101B7B00454E5420545249472000546573742052EB
:101B8B00544320434C4B4C4620534F555243452016
:101B9B0000554E4B4E4F574E205254432074657395
:101BAB00742066756E6374696F6E2E0A00696E74AD
:101BBB00657272757074732068617070656E3A0A25
:101BCB00004552524F5220696E20696E74657272D5
:101BDB007570743A004750494E54302F312F320AEA
:101BEB000054494D4552300A00706F77657220667C
:101BFB0061696C7572650A0054494D4552310A0092
:101C0B00554152540A0054494D4552320A0052462E
:101C1B00205350492072656164790A00524620694D
:101C2B006E746572727570740A004D5350492F5360
:101C3B005350492F322D776972652F5831364952DF
:101C4B00510A0055534257550A00555342495251B8
:101C5B000A00696E7465726E616C20575528525478
:101C6B0043290A0020504153530A00204641494C56
:101C7B000A0020434845434B20726573756C7420F2
:101C8B006D616E75616C6C790A00204552524F5232
:101C9B0020696E70757420617267756D656E7473F3
:101CAB000A00204E4F2052455455524E0A002069CF
:101CBB006E742068617070656E2C20636865636B51
:101CCB0020726573756C7420697320004552524FF6
:101CDB00520A004F4B0A0020307825780A005253E5
:101CEB0054524541533A20307825782C2072737426
:101CFB00207372633A20307825780A0031312057EF
:101D0B004454434E543A20307825782C2030782593
:101D1B00782C20307825780A0031312057445443F1
:101D2B004E543A20307825782C20307825780A00CC
:101D3B0052544320696E742068617070656E203058
:101D4B007825780A00546573742057445420262054
:101D5B0052544320726567697374657220696E69AA
:101D6B007469616C2076616C7565732000546573C2
:101D7B0074205744542072657365742072657375B3
:101D8B006C7420005465737420574454207265732F
:101D9B00657420005465737420574454206B696339
:101DAB006B206F6666200054657374205744544350
:101DBB004E5420697320300054657374205744547B
:101DCB002074657374207469636B647600554E4B95
:101DDB004E4F574E205254432074657374206675D2
:101DEB006E6374696F6E2E0A003078257820307818
:101DFB0025780A0054657374204F54502072656720
:101E0B00697374657220696E697469616C2076619F
:101E1B006C756573200054657374204F5450207794
:101E2B007269746520786461746120324B42206D55
:101E3B00656D6F727920696E697469616C2073745A
:101E4B0061747573200054657374204F5450207760
:101E5B007269746520786461746120324B42206D25
:101E6B00656D6F7279200054657374204F54502048
:101E7B0077726974652078646174612026206361D0
:101E8B006C6C200054657374204F5450206368654C
:101E9B00636B20524449534D422000554E4B4E4FDD
:101EAB00574E204F545020746573742066756E63C3
:101EBB0074696F6E2C20706C6561736520696E7030
:101ECB00757420616761696E2E0A00546573742006
:101EDB005553422000555342434F4E3A2077726F71
:101EEB006E672076616C7565203078253032780A04
:101EFB000055534250434F4E3A2077726F6E672016
:101F0B0076616C7565203078253032780A00555330
:101F1B004250434F4E313A2077726F6E6720766195
:101F2B006C7565203078253032780A006572726FD7
:101F3B007220617420726567203078253032782CDE
:101F4B002077726F6E672076616C7565203078250F
:101F5B003032780A006572726F7220617420696E7C
:101F6B006465782025642C207265672030782530D5
:101F7B0032782C2077726F6E672076616C756520D6
:101F8B003078253032780A00204641494C0A00202F
:101F9B00504153530A00000000000000000F000ED8
:101FAB0000060000003078257820307825780A006C
:101FBB003131312025782025782025780A004552AB
:101FCB00524F523A20636C6B6C662063616E2774C0
:101FDB002062652073657420636F72726563746C25
:101FEB00792121210A00434C4B4C464354524C3A25
:101FFB0020307825780A00434C4B474154453A2012
:10200B00307825780A005465737420636C6B202636
:10201B002072737420726567697374657220696EC0
:10202B00697469616C2076616C7565732000736FE0
:10203B0066747761726520726573657420004368FE
:10204B0065636B20736F667477617265207265735D
:10205B006574200053657420434C4B4C4620736FC2
:10206B00757263652000554E4B4E4F574E20434DB6
:10207B00442E0A0054657374204932432000666F66
:10208B00756E6420693263206465766963652040F0
:10209B003078253032780A0062757273742077724B
:1020AB00697465206661696C0A00627572737420CD
:1020BB0072656164206661696C0A00253032782094
:1020CB00000A0073696E676C65207772697465200E
:1020DB006661696C0A0073696E676C652072656175
:1020EB0064206661696C0A0077726F6E6720766197
:1020FB006C756520253032782061742025640A00C8
:10210B00726561642041445637313830206661690D
:10211B006C0A004144563731383020494420253071
:10212B0032780A00777269746520574D383733312E
:10213B00206661696C0A00554E4B4E4F574E20433B
:10214B00432072656769737465722C20706C6561CE
:10215B00736520696E70757420616761696E2E0AF4
:10216B0000496E636F72726563742050574D204344
:10217B0048414E4E454C00546573742050574D20CA
:10218B00726567697374657220696E697469616CD5
:10219B002076616C756573200054657374205057FD
:1021AB004D2066756E6374696F6E206F6620676570
:1021BB006E65726174696E672070756C7365200053
:1021CB00496E636F72726563742050574D2074654E
:1021DB00737400526567697374657220616464720D
:1021EB00657373206E6F742065786973740A006E63
:1021FB006F7420737570706F72740A00726561640E
:10220B00207265672025782C2076616C75652069B6
:10221B00732000307825780A007772697465207214
:10222B0065672025782C2076616C75652069732095
:10223B00307825780A00777269746520726567209B
:10224B0025782C2076616C75652069732000554EBE
:10225B004B4E4F574E2066756E6374696F6E0A0056
:10226B00787FE4F6D8FD7581670222B20224EDE493
:10227B0093A3F8E493A34003F68001F208DFF48004
:10228B0029E493A3F85407240CC8C333C4540F4454
:10229B0020C8834004F456800146F6DFE4800B012E
:1022AB00020408102040809022F7E47E019360BC6A
:1022BB00A3FF543F30E509541FFEE493A360010EC6
:1022CB00CF54C025E060A840B8E493A3FAE493A3ED
:1022DB00F8E493A3C8C582C8CAC583CAF0A3C8C50E
:1022EB0082C8CAC583CADFE9DEE780BE605C00082E
:1022FB00FF10FD00FF110301FF110902FF110F0376
:10230B00FF111504FF111B05FF112106FF112707F4
:10231B00FF112C08FF113009FF11340AFF11380B84
:10232B00FF113C0CFF11400DFF11440EFF11480F24
:10233B00FF114B10FF114F11FF115412FF115B13C3
:10234B00FF115E14FF116115FF1164160311FF11CC
:10235B0069460118FFFFFFFFFFFF4301210000004B
:10236B004301240000004201270000011405008BEB
:10237B00368A378938AB39AA3AA93B12014CFEABE6
:10238B0036AA37A93812014CFF6E702BEF600DE5A2
:10239B003D153D7002153C14453C70037F002274C3
:1023AB00012538F538E43537F5377401253BF53B16
:1023BB00E4353AF53A80BEAB36AA37A93812014C50
:1023CB00FDD3EE6480F8ED64809840037F0122AB6F
:1023DB0039AA3AA93B12014CFFC3ED9FFF228B3068
:1023EB008A318932E4F538F539E5371537AE367071
:1023FB000215364E6033AB33AA34A93512014CFFAC
:10240B00AB30AA31A9320539E539AC387002053841
:10241B0014F5828C83EF1201A4EF60CD7401253586
:10242B00F535E43534F53480C0AB30AA31A932220E
:10243B008F5A8E598D588C57E47FFFFEFDFCAB5A9B
:10244B00AA59A958A857C31203415005AF5A020005
:10245B0003AF5AAE59AD58AC5778081203528F5A86
:10246B008E598D588C57785774FF120367EC4D4E6D
:10247B004F60077FFF12000380EC220A485336326D
:10248B0030362054657374657220696E20636F6DEE
:10249B006D616E64206C696E65206973206275696D
:1024AB006C742061742025732025730A0031363A31
:1024BB0031323A3031004F637420333020323031B7
:1024CB003400EFC39461400AEF947B5005EF24E096
:1024DB00FF2222EFC394204007EF947F500280012C
:1024EB00C322E58E548F4410F58E53A3F87F007EE4
:1024FB004B12988A7555FF7556247557B87558FF4A
:10250B00755924755AC17BFF7A247986120E03D232
:10251B00AFF1F012304A752600752700752800E5DB
:10252B002845274526700B1230538B268A2789287E
:10253B0080EDAB26AA27A928B14780D58B298A2AFB
:10254B00892B8B338A348935753600753720120009
:10255B000E71E9E49000A5F012000ED1EA12000E04
:10256B007D2012002E8B2C8A2D892EE94A4B70066A
:10257B009000A6F0801EAB2CE52E2401F9E4352D3E
:10258B00FA78A67C007D011204D6AB2CAA2DA92EBD
:10259B00E412019212000ED1A18F2F122FFAE52F08
:1025AB0064136017E52F64146011E52F6415600B3D
:1025BB007B017A0079A612300580097B017A0079BC
:1025CB00A6122898E52F1203DE260B06261B0726DC
:1025DB00200826250926300A26350B26390C263FDE
:1025EB000D26420E264810264D11265512265A133B
:1025FB00266314266C152676162690170000268760
:10260B00D19112004AA3E0F536A3E0F53702410859
:10261B00D191025086D191024A26D19112004AA340
:10262B00E0F536E197D1910276EDD191E12CF11ADB
:10263B00FD0228D2024493F11AFD0237EAD191022E
:10264B0045C6D19112004A02582BD191026CBF9012
:10265B000000D197E4FF8010900000D1977F01809C
:10266B0007900000D1977F0202955C85115585126A
:10267B00568513577BFF7A14792E80067BFF7A14CD
:10268B007931120E0322900000E0FFA3E0FDA3E0DE
:10269B00FBA3E0F533228B308A3189327533017518
:1026AB003400753508C3900064E5359582E53495A3
:1026BB00835029F1131203BE85303985313A8532A7
:1026CB003B753C0085103D717AEF700AF113900059
:1026DB0003120165FF227404F12280C97FFF228B54
:1026EB00308A3189328B338A348935F11312014C9C
:1026FB00FF600E91CDF113EF1201927401F1228064
:10270B00EAAB30AA31A93222AB33AA34A9352290D5
:10271B000000E0FFA3E0222535F535E43534F53430
:10272B002212578C600C14601024027011122EE2CE
:10273B00800CF190128F148005F190128DAB8F3AB3
:10274B00E53A70087BFF7A1C796F8032E53AB40169
:10275B00087BFF7A1C79768025E53AB402087BFF6B
:10276B007A1C797D8018E53AB403087BFF7A1C79D3
:10277B0095800BE53AB40F097BFF7A1C79AD120EED
:10278B000322120E03AB33AD32AF3122F1E97537B1
:10279B000FE53070107BFF7A217982120E031276CF
:1027AB001D8F3780371240F4E53014701B7BFF7A96
:1027BB002179A4120E0385343B85353C85363DF1DA
:1027CB0090126D748F37800C7BFF7A2179CB120EB0
:1027DB00037537031290DE122FB6AF37E1498F30F6
:1027EB008D318B3222E4F510900064F022E4FF125D
:1027FB00014CFE602864206024D3EE648094B950B1
:10280B0008C3EE648094B050037FFF2212014C2466
:10281B00D0FEEF75F00AA42EFF112980D22274018D
:10282B0029F9E43AFA22E4FF12014CFE60566420C7
:10283B006052D3EE648094B95014C3EE648094B0AC
:10284B00400CEE24D0FEEFC454F02EFF80321190DA
:10285B0094E6500DC3EE648094E14005EE249F8016
:10286B0011119094C65016C3EE648094C1400EEEC5
:10287B0024BFFEEFC454F0240A2EFF80037FFF22F7
:10288B00112980A42212014CFED3648022E4F5307E
:10289B008022123044E94A4B602212304412014C20
:1028AB00B420079000C811CB80F011311230347D69
:1028BB002012002E9000C71203B580D6229000C7BD
:1028CB00E475F00102020E8F308D3175330FE53058
:1028DB00B413107BFF7A147956120E03125A448FDD
:1028EB0033C1121240F4E5301203DE2930002947C0
:1028FB0001295E02298F0329BB0529F3062A290723
:10290B002A7E0A2AB7102AF5142B19152B45162BDC
:10291B0067172B90182BE8192C441A2C7B1B2CAD0A
:10292B003C00002E047BFF7A1479781299E9128F00
:10293B00F51290A87BFF7A14798F80447BFF7A1471
:10294B0079961299E91290631290D07BFF7A1479E1
:10295B00AD802D7BFF7A1479B41299E9129036125F
:10296B0047CE128A559481500E11C89000C7E0B41F
:10297B0027F0A3E0B410EB1290C27BFF7A1479CB53
:10298B00E4FD41EE7BFF7A1479D21279E3E4FDFF8B
:10299B00D1B9124F68208D119000C911CB9000C98D
:1029AB00E0B475F1A3E0B430ECD2A9F1A6E441EEAA
:1029BB007BFF7A1479F0120E03E4F533FDFF1267F7
:1029CB0064124F7D208F119000CB11CB9000CBE088
:1029DB00B475F1A3E0B430ECD2AB128F7C7BFF7AF1
:1029EB001579087D03E441EE7BFF7A15790F120E02
:1029FB0003E4FDFF128F88124FF52099119000CD43
:102A0B0011CB9000CDE0B475F1A3E0B430ECD2ACB7
:102A1B00128FF07BFF7A1579277D04E441EE7BFF63
:102A2B007A15792F120E03F1E8E4FDFFD19443D20E
:102A3B008012755BE5C020E6119000CF11CB9000A2
:102A4B00CFE0B475EFA3E0B430EAE5C030E6FB436A
:102A5B00A82012756390011EE070119000D111CB6C
:102A6B009000D1E0B403EEA3E0B4E8E9F1B6F1DFF6
:102A7B00E480707BFF7A15794D120E03E4FDFF1293
:102A8B008FC2127FEEE5FE20E5119000D311CB90A3
:102A9B0000D3E0B475EFA3E0B430EA43B804128A74
:102AAB00C57BFF7A1579677D0AE480377BFF7A1542
:102ABB00796C120E03E4FD7F011246F1127FD612E0
:102ACB008A55948150119000D511CB9000D5E0B46C
:102ADB0075EDA3E0B430E81269187BFF7A15799194
:102AEB007D0DE4FFD1158F33C110129916F1D5125C
:102AFB007FDFF19050119000D711CB9000D7E0B44D
:102B0B0075F0A3E0B430EB1298DEF1AA8175129840
:102B1B00BC7D01E4FFF1D5127FBAF190501190000A
:102B2B00D911CB9000D9E0B475F0A3E0B430EBF140
:102B3B00B6F1A61298ECF1E181751299161299F380
:102B4B00127FE7F190400261DD9000DB11CB90002A
:102B5B00DBE0B475EEA3E0B430E980761298BC7D6F
:102B6B0001E4FF1299F39000DDF0A3F0F190400225
:102B7B00813D9000DD11CB9000DDE0B475EEA3E05C
:102B8B00B430E9813D7BFF7A1579991279E3A3F192
:102B9B00EBC2AFE4FD7F01F1D59000DFF0A3F0E5D0
:102BAB00C030E603208D119000DF11CB9000DFE0E9
:102BBB00B475ECA3E0B430E7D2AF129AD3F19050D6
:102BCB00119000E111CB9000E1E0B475F0A3E0B4FB
:102BDB0030EBF1B6F1A61298ECF1E181A97BFF7A0B
:102BEB001579991279E3A3F1EBC2AF7D027F01D185
:102BFB00B97D03F1D99000E3F0A3F0E5C030E60313
:102C0B00208D119000E311CB9000E3E0B475ECA3A1
:102C1B00E0B430E7D2AFE49000E5F0A3F0F19050D0
:102C2B00119000E511CB9000E5E0B475F0A3E0B492
:102C3B0030EB1298DEF1AA80651298BC7D02E4FF9E
:102C4B00D1B97D01F1D99000E7F0A3F0F1905011CB
:102C5B009000E711CB9000E7E0B475F0A3E0B4303F
:102C6B00EBF1B6F1A61298ECF1E17F01F1CFC110B7
:102C7B001298BC7D03E4FFD1947D021299F8900069
:102C8B00E9F0A3F0F19050119000E911CB9000E91D
:102C9B00E0B475F0A3E0B430EB1298DEF1AA7F013B
:102CAB00A1FD7BFF7A1579B9120E03C2AF1279E63B
:102CBB00A3F1EB7D017F01D1B97D017F0112676427
:102CCB007D017F01D1947D017F01128F887D017F72
:102CDB0001128FC2E5316009E4FB7D01AF31129027
:102CEB0036E49000EBF0A3F0E5C030E61C308D1914
:102CFB00308F16309913E5C030E20EE531F4701ABF
:102D0B00E5316005E58820E1119000EB11CB9000D7
:102D1B00EBE0B47DD3A3E0B400CED2AFE49000EDF2
:102D2B00F0A3F0E531240512660FC3ED9FEE64802E
:102D3B00F8EC64809850119000ED11CB9000EDE011
:102D4B00B475E0A3E0B430DB7BFF7A1579F2900128
:102D5B001EE0FF12457F120E037BFF7A16790EAF32
:102D6B00FED18C7BFF7A16791EAFFCD18C7BFF7A60
:102D7B0016792EAFB8D18C7BFF7A16793AAFA6D1E4
:102D8B008C7BFF7A167948AFC0D18C7BFF7A167992
:102D9B0055AF88D18CF1B1128FF0128AC51290C247
:102DAB00E4F533F532E53160107BFF7A1479CBE42F
:102DBB00FDAF32D1158F330532F1A8AF32F1CFE52C
:102DCB003204FF7BFF7A1579677D0AF1CFE5322458
:102DDB0002FF7BFF7A1579087D03F1CFE5322403DF
:102DEB00FF7BFF7A1679617D04F1CFE5322404FF76
:102DFB00F1DFF1CF12898B800C7BFF7A16796F1282
:102E0B000E03753303AF330227498F3A8D3BE4F53D
:102E1B003C126613D3ED9F7480F86C98403A1244C1
:102E2B0047E0540F653B6002802E120E037BFF7A46
:102E3B001C79B9120E03126613D3ED953A7480F810
:102E4B006C9840197418253A12444AE030E70E7B0F
:102E5B00FF7A1C79D7120E03753C0180097BFF7A30
:102E6B001C79DE120E03AF3C227BFF7A18790BAF75
:102E7B00937555008F56120E037BFF7A187917AF97
:102E8B00807555008F56020E03AC05AA071281837D
:102E9B0012661DEC124795E5A954DFF1F312479525
:102EAB00E5B954DF4FF5B9EA600343A82022126756
:102EBB00AAFF128F4FEC540125E0FFE5A954FDF159
:102ECB00F3540125E0FFE5B954FD4FF5B9EAC360B2
:102EDB0001D392A9D28C22E4F5347BFF7A0979F3E2
:102EEB00120E03E5FC600D7BFF7A0A7910AFFCD163
:102EFB008C753401E5FD600D7BFF7A0A792EAFFDF1
:102F0B00D18C753401E5FE643F600D7BFF7A0A7945
:102F1B004CAFFED18C753401E5FF600D7BFF7A0A57
:102F2B00796AAFFFD18C753401E5FB600D7BFF7ABD
:102F3B000A7987AFFBD18C753401E5F264F0600D33
:102F4B007BFF7A0A79A3AFF2D18C753401E5BC64AF
:102F5B0070600D7BFF7A0A79C0AFBCD18C753401E0
:102F6B00E5BE600D7BFF7A0A79DDAFBED18C75347F
:102F7B0001E5BF600D7BFF7A0A79FBAFBFD18C7582
:102F8B003401AF342290011EE0C36480948222533B
:102F9B0089F0C2A953A9FD53B9FD22F19A7BFF7A9F
:102FAB001479E97D0122F19A128F7CE4F5D3F5C8EF
:102FBB00F5C1F5DDF5D253A8DFF5CCF5CD53A9DF7F
:102FCB0053B9DF22D115EF423322D1B9E4FD7F0192
:102FDB00D194E4227BFF7A1579467D052290011569
:102FEB007491F0A3745CF0224FF5A9ECC313227F0C
:102FFB0008900000E4F0A3DFFC22E4F530802111FF
:10300B0044E94A4B6022114412014CB42008900051
:10301B00C81228CB80F01227F811347D2012002E15
:10302B009000C71203B580D722AE30053074002E46
:10303B00F582E43400F583EFF09000C70203957B33
:10304B00FF7A147940020E03129884EF605B12989A
:10305B007C8F29E529B40D107BFF7A147945120E6C
:10306B00037B017A00796422E529B40811E510602D
:10307B000D7BFF7A147948120E0315108021AF29AE
:10308B001224DE400280C1E510C3942050BAAF2950
:10309B0012985FAE10051074642E11BBE529F07405
:1030AB0064251011BBE4F0809F7B007A007900222D
:1030BB00F582E43400F58322EF4480F53F8D401216
:1030CB009A2411B47F027E00802E7810120352E4F2
:1030DB008F46AF42AE41AD40AC3F78081203528FE2
:1030EB0047E542FFE48F48F5507551007552457521
:1030FB005301FBFAF97F04FE8E4B8F4C8B4D8A4E9E
:10310B00894FE4F554F555E54C454B700241019060
:10311B00011FE0F47055512760067850511DF5568C
:10312B008556FFC3E54C9402E54B9400400D5129A5
:10313B0060067850511DF5568556FFAB50AA51A924
:10314B00529001211203B5AB4DAA4EA94F90012409
:10315B001203B5900127E54BF0A3E54CF043B804FF
:10316B00D2AFE5B820E2FBE4FEFF22E55330E003EB
:10317B00128CA6900120E054F06037129A96FE3024
:10318B00E71253FDFE7850511DFF510E129A96FF18
:10319B00510E806253FDFEAF06510E7F10D11743C7
:1031AB00FD017FFF510EAB4DAA4EA94FEF120192BD
:1031BB008044E4FDFCC3ED954CEC954B5038E45149
:1031CB002760067850511DF556AF56510E8F56E5B8
:1031DB004E454F454D600A784D129AC4E556120183
:1031EB0092E5F2540C600874FFF554F55580070D09
:1031FB00BD00010C80BFE55330E103128CC5AE540A
:10320B00AF5522E5FE30E5FB8FFFE5FE30E6FBAF69
:10321B00FF22E475F00112038502014CF556E551CE
:10322B0045524550221299FF75450311D5128BCC8F
:10323B00AB3CAA3DA93EAF44AE4321038F37E4F527
:10324B003AF53BE537D3940350377BFF7A0B79186C
:10325B00122E8CAB3791BCF193E5376003B4030F9F
:10326B00E53964137004E538641C6003753B01E5B4
:10327B0037B4010DE539B41308E538B41C03753BBD
:10328B0001E537640470247BFF7A0B7956120E0329
:10329B00E4FB7D407C427FFF91C2F193E5396413DF
:1032AB007004E538641C6003753B01E53764056009
:1032BB000261779000C7F0A37464F0B1EAFFD39476
:1032CB00E8EE940350427BFF7A0B797E8E558F5636
:1032DB00B1E7FF7C037DE81201C6AC06AD07F12F09
:1032EB007004E538641C600E7BFF7A0B798CB1EAB5
:1032FB00129A0E753B017F407E9CD1199000C7E45A
:10330B0075F06412020E80B39000C7E4F0A3740250
:10331B00F0D39000C8E094109000C7E09400504C9C
:10332B007BFF7A0B79ACE0FEA3E08E55F556B1E747
:10333B00FFE4FCFD7B407A42790FF8120224AD07C3
:10334B00AC06F12F7004E538641C600E7BFF7A0B22
:10335B00798CB1EA129A0E753B017F407E9CD11994
:10336B009000C7E475F00212020E80A5E5376406E3
:10337B00704191BBF1407BFF7A0B79BA120E037B44
:10338B00017A0079F37543007544207F00129A8F00
:10339B00F129F17BE0FFF460117BFF7A0B79CD1201
:1033AB004DB0124FEF753B018009053AE53AC394D6
:1033BB002040DFE5376407701F91BB7BFF7A0B79E9
:1033CB00E7129A31900003E0FA7900129A3D7F20C0
:1033DB001201261299AAD1FBE5376408702991BB1B
:1033EB007BFF7A0B79FC129A311299AAF1297BFF98
:1033FB007A0C7910F17B1299E0129ACB40F07BFF9B
:10340B007A0C7918120E03E5376409600281B891C2
:10341B00BB7D007C40E4FFFE128AF77BFF7A0C79C0
:10342B001A120E031247CEB1EAFFC3EE944050744A
:10343B00AA06A907129A3D7F101201267B017A0179
:10344B007903B1EAFFE4FCFDF543754410F12974EF
:10345B0003253AF582E43401F583E0FFF17BE0FECE
:10346B006F602A7BFF7A0C7931EF755500F556EEBC
:10347B00755700F5589000C8E0253AF55A9000C7EB
:10348B00E03400F559120E03753B018005129ACBFF
:10349B0040BDE53B6401600C9000C7E475F0101271
:1034AB00020E80837BFF7A0C7956120E03AF3B2200
:1034BB00FB7D407C427F148F3F8B408D828C83AF92
:1034CB0082AE83EF24FFFFEE3423FEE434F4FDE4FD
:1034DB0033FCC006C007AE83AF82AB07AA06E4F984
:1034EB00F8D007D0061202AF8F41D3E54164809428
:1034FB00A04005754150803BD3E5416480949040DA
:10350B0005754140802DD3E5416480948840057555
:10351B004130801FD3E54164809484400575412080
:10352B008011D3E54164809482400575411080037E
:10353B00E4F54143B1087F04D117E5407F0030E249
:10354B00027F01900120EFF090011FE53FF0B4FEE8
:10355B000853FDDF43FD408039E53FB4FF0B43FDCE
:10356B002075FBFF43FD10802953FDDF128CE7A272
:10357B00E713D8FB128CEF7B0070027B01123A9B96
:10358B00128CE7A2E713D8FBFFEE540FFDE4FB12FE
:10359B003E37E54020E405E53FB4FE07900120E00F
:1035AB004410F0E5407F0030E4027F80E5414FFF9F
:1035BB00E5407E00EF4EFFE540540325E04F44010C
:1035CB00F5FCE53FB4FF0B53FEFA53F20F43A60293
:1035DB00800643FE0F43F2F0E4FEFF22120E03902F
:1035EB0000C7E0FEA3E022753C90E4F53DF53EF507
:1035FB003FF55075510075523C11FA128BCCF18787
:10360B00E540FEE541FF2253D37F7F017E007D0025
:10361B007C0002243B8F37E4F538F539F53AF53B5E
:10362B00F53C753D03F53EFB123A97E4FB1290A176
:10363B007F407E9CD1197B01123A977B137D407C96
:10364B00427F1191C2E537701712001E8F387BFF36
:10365B007A0C796B122E8CE53864266003753E016B
:10366B00E5376401703C1200158F3B7FA0D117AF7B
:10367B003D128BD97FA0D1171200158F3C7BFF7A9F
:10368B000C7988755500853B56D1F3AF3C7E00E530
:10369B003B6F7001E46008EF653D7001EE600375F0
:1036AB003E01E5376402702EF538E4FFF1728F3975
:1036BB007F78D1177F01F1728F3A7BFF7A0C79B249
:1036CB00853955853A56120E037FA0D1170538E57B
:1036DB0038C3940A40D4AF3E227BFF7A0579B1AF51
:1036EB00B47555008F56AFB37557008F58020E0344
:1036FB001299FFF157754502AF42AE41AD40AC3F59
:10370B0011D5853C50853D51853E5275530211B400
:10371B00AF44AE433103128AD8EF20E0F922513087
:10372B00E4F53A22E4FB7F1491C2B1F28E388F3963
:10373B00E539641322753CC7F157F12175500075BB
:10374B00510075523C129908310380CA75490675B0
:10375B00500075510075524912990821038F3F1281
:10376B009A24F187AF4022EF7F0360027F0480ED44
:10377B0074F3253AF582E43400F583227B007A005A
:10378B0079407F027E002103B1F28E388F397BFFA7
:10379B007A0B7941853855853956020E038F377B65
:1037AB00FF7A0579E8AFDC122E8C43DC807F14D1D5
:1037BB0017E537C454F042DC7F14D1177BFF7A0531
:1037CB0079F7AFDC122E8CE5DC20E3FB7BFF7A066E
:1037DB007907120E0353DC7F7F14D1177F00228FE2
:1037EB00308D31E4F5327BFF7A20797F120E03E5C1
:1037FB0030600201F21299947B127D13F1AB9000B1
:10380B0002E014603C14605B147002019D147002A2
:10381B0001B02404600201F2753201E4F533AF33D9
:10382B00F146EF70117BFF7A207989F55585335678
:10383B00120E03E4F5320533E533C3948040DF0108
:10384B00F2E4F533F16BE533F00533E533B408F40B
:10385B00318DF1D631A1EF700201F27BFF7A207925
:10386B00A3803E318DF1D6B147EF60087BFF7A2004
:10387B0079B53186E4F5337BFF7A2079C6F16B128B
:10388B0099E0129AE340F07BFF7A2079CC120E0379
:10389B008055318DF1CE31A1EF604C7BFF7A2079D1
:1038AB00CE31868042E4F533E533FD7C0024C7F945
:1038BB00E43400753801F539893A753B00F1CEB126
:1038CB0047EF60087BFF7A2079E13186F16BE0FFEF
:1038DB006533600E7BFF7A2079F3124DB085335838
:1038EB003186129AE340C1E53064016002218112F6
:1038FB0099947B207D21F1ABE4FB7D077F01D137D0
:10390B00E4FBF1657F407E9C1236197B01F1657FEC
:10391B00A07E0F1236199000C77404F03194753CD9
:10392B00017B017D0F7C007F2031A1EF600375329D
:10393B00013194753C017B017D117C007F20B147E7
:10394B00EF7BFF60087A21790B3186800A7A217927
:10395B001E9000C71299E09000C77440F031947527
:10396B003C017B01E4FDFC7F1A31A1EF60087BFF7A
:10397B007A21792F3186AF32022749120E03753225
:10398B000122900003E0FD7C00753801753900754C
:10399B003AC7753B00228F348C358D368B37E4F567
:1039AB003FF540F13B6005B12D7F01221299C0C359
:1039BB0033CE33CED8F9F53E8E3DAF371537F1C741
:1039CB004018F1DE8005CEC313CE13D8F9FF511387
:1039DB00EF60037F0122F1EE80E0E53C153CAE3B4E
:1039EB007002153BD39400EE6480948040157838B8
:1039FB0012321DFF5113EF60E10540E540700205E7
:103A0B003F80D7B12DAF40228F41E4F542F11F51DA
:103A1B0080E54130E706B1DD7B018004B1CEE4FBEC
:103A2B00D137515E5182E54125E0F5410542C3E5B1
:103A3B00426480948840D6F11F5180B1DD7B01D167
:103A4B0037515E5182B1DD127C8A8F43F11F518059
:103A5B00AF4322AF14EF3395E0FEFDFCE47B04FA99
:103A6B00F9F812022412243BE516C4540FFFE51695
:103A7B00540FFD7B01519BAF14EF3395E0FEFDFC22
:103A8B00E47B04FAF9F812022402243B7D027F0145
:103A9B00EF1460241460402402705BEB700C04A8DC
:103AAB0005088002C333D8FC80597401A80508802F
:103ABB0002C333D8FC428022EB700E04A8050880A9
:103ACB0002C333D8FCF45290227401A8050880027B
:103ADB00C333D8FC429022EB700E04A80508800279
:103AEB00C333D8FCF452A0227401A805088002C38A
:103AFB0033D8FC42A022EB700E04A805088002C349
:103B0B0033D8FCF4528022AF057401A80708800259
:103B1B00C333D8FC4280221279F1F542900115741F
:103B2B0085F0A374A5F0E53CB40105E4F53F8008EE
:103B3B00E53CB40203753F01E53B700BF1344402E5
:103B4B00F12D7D02E4F177E53BB40108F134440B30
:103B5B00F12DF19DE53BB40209F1344410F12DE454
:103B6B00F181E53BB40308F1344411F12DD12BE580
:103B7B003B14603314605414607724036002812A71
:103B8B0053C860E53A7F0060027F80EF440142C872
:103B9B001265EDE53C42DD53D27EE53E7F006002CF
:103BAB007F80E53D4F807153C860E53A7F0060022E
:103BBB007F80EF440142C81265DDE53C129948E570
:103BCB003DF1E660027E80EF4E804D53C860E53AD2
:103BDB007F0060027F80EF440142C81265CDE53C57
:103BEB00129953E53D25E0F1E660027E80EF4E80B1
:103BFB002753C860E53A7F0060027F80EF440142A3
:103C0B00C8126458E53C12993CE53D12674BE53E02
:103C1B007E0060027E80EF4E42D212644B80031214
:103C2B00641AE53D7004E53E600343A820E53E7051
:103C3B004EE5D330E7FBE53B700BC304953FFB7DB3
:103C4B0002E4FF519BE53BB40108F15E7D037F016C
:103C5B00519BE53BB40208F15EE4FD7F02519BE50D
:103C6B003BB40308F15E7D017F02519BE5D320E756
:103C7B00037F0122123612E5D330E7247F01221293
:103C8B0047CEE54212660DED6F7002EC6E600F12BF
:103C9B0028C89000C7E0B47DE9A3E0B400E4054276
:103CAB00E53D7057E53B7010E5CAD394245049E5C8
:103CBB00CB7045E5D330E040E53BB40110E5C2D312
:103CCB0094245034E5C37030E5D330E12BE53BB49D
:103CDB000210E5C4D39424501FE5C5701BE5D33007
:103CEB00E216E53B64037037E5C6D394245009E52F
:103CFB00C77005E5D320E3277F0122124F68E54209
:103D0B0012660DED6F7002EC6E60129000C91228F6
:103D1B00CB9000C9E0B47DE6A3E0B400E105427F9F
:103D2B000022F11F5180B1CEE4FBD137515EB1DDE2
:103D3B007B01D137F18D12022402243B8F348C3559
:103D4B008D368B37B1E9D3E53764809480403BF1F6
:103D5B003D6005B12D7F01221299C0C333CE33CE06
:103D6B00D8F9F53E8E3DAF371537F1C74018F1DE68
:103D7B008005CEC313CE13D8F9FF5113EF60037F29
:103D8B000122F1EE80E0B12DB1E9E53425E04401EB
:103D9B00FF5113E53C153CAE3B7002153BD3940031
:103DAB00EE648094804017E53C453B7F0070027FBA
:103DBB0001D1E57838129AC4EF12019280D5B12D5A
:103DCB007F0022E515C4540FFFE515540FFDE4FBEE
:103DDB00519BE515C4540FFFE515540FFD2251827D
:103DEB00B1DD7B01D137515EB1CEE4FBD137F18D23
:103DFB0012022402243B8E428F43F11F5180E54374
:103E0B0045426006B1DD7B018004B1CEE4FBD137C6
:103E1B00515E5182F11F519BF18D12022402243B02
:103E2B007D017F02519BE4FB7D017F02EF14602239
:103E3B0014603A240270517401A805088002C33340
:103E4B00D8FCF45293EBA805088002C333D8FC428C
:103E5B0093227401A805088002C333D8FCF4529452
:103E6B00EBA805088002C333D8FC4294227401A846
:103E7B0005088002C333D8FCF45295EBA8050880E3
:103E8B0002C333D8FC4295227401A805088002C3F3
:103E9B0033D8FCF45293AF05EBA807088002C33369
:103EAB00D8FC429322E516C4540FFFE516540FFDC0
:103EBB007B01B1DB7B01D137E4F534F535F11F51D3
:103ECB0080515E51820535E53570020534C3940986
:103EDB00E5346480948040E5A12D8F3FB1DD7B01FB
:103EEB00D137E4F540F541F11F519B515EE540257B
:103EFB00E0F540B1DD127C8AEF424051820541C3AF
:103F0B00E5416480948840DFAF3FEF3395E0FED10D
:103F1B0001AF4022E516C4540FFFE516540FFDE424
:103F2B00FB22900129F0AB3F22E53FC43354E02242
:103F3B00B1E9E53425E0FF5113EF228F34F13B3328
:103F4B0095E0F5358F36B12DE53645357F006002AE
:103F5B007F0122C37401953FFB227D077F01419BAB
:103F6B0074C72533F582E43400F58322FF519BE4BB
:103F7B00FB7D02FFC137FD7F02519BE4FBFD7F02FE
:103F8B00C137AF14EF3395E0FEFDFCE47B04FAF987
:103F9B00F8227D037F01519BE4FB7D037F01C13739
:103FAB00AA05AC06AD077E037FE81201D87C007D25
:103FBB00041201D88F148A168B15C1B0D3EF64800D
:103FCB00948022753C017B027F5022753C087B025A
:103FDB007F5022E536AE35A83E082225E0FFE53EB0
:103FEB007E002274F8253EF53E74FF353DF53D22EB
:103FFB001240F4F19D75935C7594D37595017BFF1D
:10400B007A16798AAF80F5558F56AF90F5578F5842
:10401B00AFA0F55911A5700BE59054D37005E5A031
:10402B0030E0037F01227580FF7590FF75A00311AF
:10403B00DA8F5A11D2FFBF440DE59054D3FFBFD393
:10404B0005E5A020E0037F0122758055759055751D
:10405B00A00111DA11A5700DE59054D3FFBF4205F5
:10406B00E5A030E0037F01227580AA7590AA75A0A8
:10407B000211DA8F5A11D2FFBF440DE59054D3FFD2
:10408B00BF9105E5A020E0037F01227BFF7A167923
:10409B00B9125797120E037F00228F5A120E037B11
:1040AB00FF7A1679A0E5805444755500F556E590D6
:1040BB0054D3755700F558E5A05401755900F55ABE
:1040CB00AFA0755B008F5C120E03E5805444227B1E
:1040DB00FF7A16798AAF807555008F56AF9075575A
:1040EB00008F58AFA075590022F1E41249FD75936A
:1040FB00FF7594FF7595FFF19D75B603221227E9A5
:10410B0075380FE530B40A071281958F3861FF11AE
:10411B00F4E5301203DE414000415D01417A02417A
:10412B00A303421504429505430806433307434353
:10413B0008000043EE7BFF7A1879FA911C7401F0AA
:10414B001227901279468F387BFF7A19790F7D01F0
:10415B00803F7BFF7A197916911C7401F01227901E
:10416B001280008F387BFF7A19792B7D0380227B9D
:10417B00FF7A197932911C7401F085343D12279026
:10418B0012806BB1B6700261FA7BFF7A1979477DA9
:10419B0005E4FF122E15612E7BFF7A19794E911CC7
:1041AB007404F085343D1227901279F9B1AE602A70
:1041BB00E53460269102A2E713D8FB64057F00600B
:1041CB00027F01917C9115A2E713D8FB912370021A
:1041DB00EE6C7F0060027F01612EE533601591026A
:1041EB00A2E713D8FB91237002EE6C7F0060027F75
:1041FB0001612EE534700261FA9102A2E713D8FB3C
:10420B0064057F0060027F01612E7BFF7A19796B59
:10421B00911C7405B1BE122790127D078F387BFF5E
:10422B007A197988B17E120E03122FB6E533602A04
:10423B00E53460269102A2E713D8FB64057F00608A
:10424B00027F01917C9115A2E713D8FB9123700299
:10425B00EE6C7F0060027F01612EE53360159102E9
:10426B00A2E713D8FB91237002EE6C7F0060027FF4
:10427B0001612EE534700261FA9102A2E713D8FBBB
:10428B0064057F0060027F01612E7BFF7A197991B3
:10429B00911C7406B1BE85363F122790123B22B19A
:1042AB00B6602AE53560269102A2E713D8FB6405B8
:1042BB007F0060027F01917C9115A2E713D8FB91DF
:1042CB00237002EE6C7F0060027F018056E5346044
:1042DB00159102A2E713D8FB91237002EE6C7F00BD
:1042EB0060027F01803DE535700261FA9102A2E721
:1042FB0013D8FB64057F0060027F0180267BFF7A69
:10430B001979AE911C7407F0122790126462B1AE4A
:10431B00700261FA9102A2E713D8FB64057F00607B
:10432B00027F01EF423861FA7BFF7A1979CA1227B3
:10433B008D1266578F3861FA7BFF7A1979DE911CE3
:10434B007406F01227901261BB8F38122FB69102B0
:10435B00A2E713D8FB64057F0060027F01EF4238B0
:10436B0075390112898BE53230E01491339115A226
:10437B00E713D8FB64017F0060027F01EF42387BBB
:10438B00FF7A1A7902915B75590085395A120E031F
:10439B00E53230E11691339115A2E713D8FB640295
:1043AB007F0060027F019152120E03E53230E2165C
:1043BB0091339115A2E713D8FB64037F0060027F52
:1043CB00019152120E03E53230E32491339115A281
:1043DB00E713D8FB64047F0060027F019152120E39
:1043EB0003800C7BFF7A1A7913120E0375380312B4
:1043FB002FB1AF380227497BFF7A1979477D05E446
:10440B00FF122E15EF4238900118E05470FF78041C
:10441B0022120E0390011722FF3395E0FEE53224A2
:10442B0001FDE433FCEF6D227BFF7A1979477D05A3
:10443B00AF39122E15EF4238AF39053974182FF5F5
:10444B0082E43401F58322EF42387BFF7A1A790C30
:10445B0090011EE0FF3395E0F5558F567417253903
:10446B00F582E43401F583E0FF3395E0F5578F587F
:10447B0022EF42387BFF7A1979477D057F01122E97
:10448B0015EF423890011922E4F5327BFF7A1E7941
:10449B00D6120E03E5CE6423600E7BFF7A1E79E005
:1044AB00AFCE122E8C753201E5CF6401600E7BFF0F
:1044BB007A1E79FCAFCF122E8C753201E5DB64804E
:1044CB00600E7BFF7A1F7919AFDB122E8C753201D0
:1044DB0043A40843CE4075300EB1876005B16D1211
:1044EB0039861530C3E5306480948050ECE4F530A8
:1044FB00B1876005B16D123986B1A6948F40F1E496
:10450B00F530AD307F0EB1A0753110AF31B1668F84
:10451B0033E5316415701AE53360167BFF7A1F792A
:10452B0060B17CAF31EF917475590085335A1239F4
:10453B00860531D3E5316480949740CFB1A694843E
:10454B0040C0E4FD7F0EB1A0E5327BFF60067A1F11
:10455B00799380047A1F799A020E03F1A512014C0C
:10456B00FF22AF30B1667557008F587BFF7A1F79EA
:10457B0037AF30EF3395E0F5558F5622AF30B1663C
:10458B00E530FD3395E0FC74A12DF582741F3CF5ED
:10459B0083E4936F22F1A5ED0201920530C3E53060
:1045AB006480228F38122FB6E533228F38122FB644
:1045BB00E53422F085343D85353E221227E97534EA
:1045CB000FE530B405107BFF7A1D7950120E0312E4
:1045DB006D5D8F34C173F1BA700343AD01F1CE122F
:1045EB0028C89000C7E0B407F6A3E0B41CF111F49F
:1045FB00E53014601D14602C14603B1460482404D7
:10460B0070597BFF7A1D7978120E03126A808F34F2
:10461B0080517BFF7A1D798F120E03AF31126AAF77
:10462B008F34803F7BFF7A1D799F120E03AF3112BF
:10463B006B588F34802D7BFF7A1D79B2120E0312CB
:10464B006A5E8F34801D7BFF7A1D79C3911C7420A9
:10465B00F0AD32AF31D1768F3480087BFF7A1D7984
:10466B00D8F1D643AD02AF340227498D35E4F53688
:10467B008FB6E5B66F60037F01227537007538FF83
:10468B008538B37537007538FF8538B475B514E5C3
:10469B00B520E5FBD1E6E5B520E5FBF1EE43B8200F
:1046AB00E5357F00FE126A4FF5B475B5101266132F
:1046BB00D3ED95367480F86C9840F27418253691CA
:1046CB004AE0540FFFBF0DE57BFF7A1D793B755513
:1046DB0000853656120E03053680D2E4F5B375B558
:1046EB001322E4FDAF37AC07F1BA700343AD0112EF
:1046FB0087C49000EF1228CB9000EFE0B407F3A330
:10470B00E0B41CEEE5AD546064607017F18CF53FBE
:10471B0075404CF185E5B520E5FBD1E6E5B530E517
:10472B003A80F9E5AD546064407017F18CF53F7534
:10473B00402CF185E5B520E5FBD1E6E5B530E51B71
:10474B0080F9753F00F18E753F0075400CF185E5E2
:10475B00B520E5FBD1E6E5B520E5FBF1EEEDF195F6
:10476B00E5A954DF128FB9C43354E0FFE5B954DF28
:10477B004FF5B9EC600343B820228540B475B514EE
:10478B0022F53F7540348540B3225401C43354E0C5
:10479B00FF22E4F580F590F5A0227E007B017400EA
:1047AB002FF9EE34C0FA2290011EF0900117F0534E
:1047BB00ADFDE5AD5460228F371257ADAF377E009C
:1047CB00125F83E49000C7F0A3F022120E0375343E
:1047DB00032211F4E53024FE22E490011EF0900137
:1047EB0017F02275B505AFB35307F9EF4407FF7EFA
:1047FB00007541008F428542B3EEF542754100F5DD
:10480B00B475B51522AF36AE3580E6E4F53C510AEA
:10481B001110E5B520E5FB75B50585B339E53930E4
:10482B00E403753C0175B506E5B520E5FB31297A46
:10483B001A79761236EA75B507E5B520E5FB85B32F
:10484B003B7BFF7A1A798A1236EAE4F537F538059D
:10485B0038E5387002053764FA453770F21110E508
:10486B00B520E5FB75B506E5B520E5FBE5B3B53938
:10487B0008E5B4B53A03753C017BFF7A1A799E12B1
:10488B0036EA75B507E5B520E5FB7BFF7A1A79B2F9
:10489B001236EA4336101110E5B520E5FB75B50568
:1048AB0085B339E53930E403753C0175B506E5B5DB
:1048BB0020E5FB31297A1A79C61236EA75B507E578
:1048CB00B520E5FB85B33B7BFF7A1A79DB1236EA21
:1048DB00E4F537F5380538E5387002053764FA45E5
:1048EB003770F21110E5B520E5FB75B506E5B5207F
:1048FB00E5FBE5B3B53908E5B4B53A03753C017B87
:10490B00FF7A1A79F01236EA75B507E5B520E5FBA3
:10491B007BFF7A1B79051236EA31FDAF3C2285B35A
:10492B003985B43A7BFF22E4F53CEF146028146020
:10493B00091460142403701E801C753FFE75406FB4
:10494B00753D2C753E1E801A753FF4754047753DBD
:10495B0028753E50800C753FF875402F753D3075AE
:10496B003E06510AE4FB7D01FF128F4F853F8C857C
:10497B00408AD28CF168208D129000C91228CB90FE
:10498B0000C9E0B475F0A3E0B430EB208D037F01D8
:10499B00221110E5B520E5FB31FDC28CC28D75B53A
:1049AB0006E5B520E5FB31297A1B791A1236EAE5C3
:1049BB0039FFD3953D4008EF953DD3953E5011E51A
:1049CB0039FFC3953D500CC3E53D9FD3953E400346
:1049DB007F012275B507E5B520E5FB85B3397BFF74
:1049EB007A1B7931AFB3122E8CE539AF3C60027F65
:1049FB00012275B505AFB35307FA7E000247FC756C
:104A0B00B50585B3395339F9E5394405753500F5E5
:104A1B0036FFAE351247FC433610221227E97534A8
:104A2B000F1247BA700343AD011247CE1228C8903C
:104A3B0000C7E0B407F6A3E0B41CF11247DD602811
:104A4B00146034240270417BFF7A1B7942120E03EF
:104A5B00AF3151A48F347BFF7A1B79667D0DE4FF58
:104A6B00122E15EF423480297BFF7A1B796E120EC2
:104A7B000311168F34801A7BFF7A1B7985120E0374
:104A8B00AF3131328F3480097BFF7A1B799C12470F
:104A9B00D643AD02AF340227498F35E4F538F539EB
:104AAB00753A34853AB3F539753A0C853AB475B520
:104ABB0014E5B520E5FB12688FE5B520E5FB75B570
:104ACB0004E5B3B43406E5B4640C600375380175C2
:104ADB00B503E5B36401600375380175B505AFB374
:104AEB005307F97E00E5357C0060047D0680027D6E
:104AFB0004ED4401FDEC4EF536ED4FF537FFAE36C8
:104B0B001247FC75B505E536ADB4B50506E5376559
:104B1B00B36003753801E5352410900117F043B8E5
:104B2B0020E4FFF168918E4006718C640D60129049
:104B3B0000C91228CB9000C9E0B475E9A3E0B430EA
:104B4B00E40FBF18DE7BFF7A1A793190011EE0FF6C
:104B5B0012457F900118124472120E03918E40067B
:104B6B00718C640D60037538017BFF7A1A7969AF1C
:104B7B00A4122E8CE5A420E50375380131FDAF3866
:104B8B0022900118E0540F228F37E4F53AF1C0124E
:104B9B0046ED1247CE1228C89000C7E07004A3E080
:104BAB00642870F1129A48F16812997C4004E96EFE
:104BBB006003753A01918E4009718CFFBF0D03752F
:104BCB003A01B1A8853A5812604FFFBF0403D38056
:104BDB0001C3500EE5A454C0FFBF4003D38001C3F3
:104BEB004003753A01B1A8F1EFE5376031E4F538D0
:104BFB00F539F17D918E4006718C640D6012900039
:104C0B00CB1228CB9000CBE0B47DE9A3E0B400E459
:104C1B000539E53970020538640A453870D4125FDE
:104C2B00D2BFFF03753A01B1A8F1EFF18DE5376003
:104C3B0012918E4006718C640D6008E5A454C0641B
:104C4B0080600EE537700D918E4009718CFFBF0DA2
:104C5B0003753A01E4F538F539F1F59000CD1228DA
:104C6B00CB9000CDE0B47DF3A3E0B400EE0539E5C5
:104C7B003970020538640A453870DE126918C28C27
:104C8B00AF3A2290011EE0D364809480228F37E4E8
:104C9B00F5381257ADF1BF1246ED1247CE1228C8A8
:104CAB009000C7E07004A3E0641470F1125F4270CF
:104CBB000353ADFE129ADB43A404F168AD8CAC8AAE
:104CCB00918E4009718CFBBB0D03753801EF6D6044
:104CDB000375380174102EC39C5003753801125F95
:104CEB003BAFA4122E8C1247BA700343AD01F17D7A
:104CFB009000CB1228CB9000CBE0B407F3A3E0B429
:104D0B001CEEE5A45407FFBF0403D38001C3500E70
:104D1B00E5A454C0FFBF8003D38001C340037538A3
:104D2B0001125F3B129AB2125FD2BFFF03753801BB
:104D3B007BFF7A067967129AB2E5376024E4FFF1BC
:104D4B00F5918E4006718C640D60129000CD122887
:104D5B00CB9000CDE0B47DE9A3E0B400E40FBF0A33
:104D6B00DEF18DE537601D918E4006718C640D6010
:104D7B0013E5A454C0FFBF80047F0180027F00EFC6
:104D8B004420700EE537700D918E4009718CFFBF7A
:104D9B000D03753801126918C28CAF38227BFF7A6C
:104DAB0006796FAFA47555008F5675570022125EAA
:104DBB00B1E4F53F1247BA700343AD011247CE126F
:104DCB0028C89000C7E0B407F6A3E0B41CF1E5399E
:104DDB00704275B501F19B125F2D129AA9E53A123B
:104DEB005C388005C333CE33CED8F9F176F185F13B
:104DFB00B78005C333CE33CED8F94243EE424212CD
:104E0B005F34129AA9F1DB75B511E5B520E5FB7599
:104E1B00B5018070E5396401703175B502F19BE520
:104E2B003A125C388005C333CE33CED8F9F176F124
:104E3B0085F1B78005C333CE33CED8F9F1D675B52E
:104E4B0012E5B520E5FB75B5028039E539640270D2
:104E5B003675B503F19BE53A25E02408125C3A80E0
:104E6B0005C333CE33CED8F9F176F185F1B7800592
:104E7B00C333CE33CED8F9F1D675B513E5B520E5EE
:104E8B00FB75B5031236E4F1BF53A5CFE5387002BD
:104E9B008012E538B4020543A5208008E538B40339
:104EAB000343A530E537600343B82075B50585B3DB
:104EBB003EF1689000C91228CB9000C9E07004A3A2
:104ECB00E0646470EE53A4F8AF8C858A3E43A4076C
:104EDB00F17DAE8CAD8AEF6E6003753F01741025CA
:104EEB003EF53EC39D5003753F01B1A8F170E53708
:104EFB00600D918E4006718C640D6003753F01E56A
:104F0B0037700D918E4009718CFFBF0D03753F01FA
:104F1B00B1A8853F5812604FFFBF0703D38001C371
:104F2B00500EE5A454C0FFBF8003D38001C34003E0
:104F3B00753F01B1A8F170125FD2BFFF03753F013E
:104F4B00B1A8F17075B50585B33E129964853E5ACB
:104F5B001265FEF18D53B8DFC28CAF3F22E4900097
:104F6B00C9F0A3F022853F58020E03F4FFEEF4FEC6
:104F7B00EF22E49000CBF0A3F0225243EE5242E535
:104F8B003B22E4F5A775DB80F5FCF5B253B87F2225
:104F9B0085B34085B441E541F542E540F54322F444
:104FAB00FFEEF4FEEF523DEE523CE53944027E003B
:104FBB00A8050822E4F58CF58AD28C75A70175DB60
:104FCB000175FC5075B2C043B880224243EE424299
:104FDB007544008543458545B3E542F54575440069
:104FEB008545B422853A58020E03E49000CDF0A318
:104FFB00F0227BFF7A1679DCAFE17555008F56F105
:10500B0059AFE37559008F5A120E037BFF7A16794D
:10501B00EEAFDE7555008F56AFDF1236F37BFF7A9E
:10502B001679FBF197120E037BFF7A17790DAF9E62
:10503B007555008F56AF9F7557008F58AF977559A1
:10504B00008F5A120E03E5E1702BE5E27027E5E3C2
:10505B007023E5DE701FE5DF701BE593B4F716E5F3
:10506B0094B4FF11E595B4030CE59E7008E59F70B1
:10507B0004E59760037F01227F0022F18C601E14F0
:10508B00602814603214603B1460442405704E7B1E
:10509B00FF7A17791F120E03124FFD804B7BFF7A9D
:1050AB0017794212278DB1F3803E7BFF7A17795324
:1050BB0012278DB13080317BFF7A177965F15191D1
:1050CB000C80257BFF7A17798EF15111F680197BB5
:1050DB00FF7A1779AE120E03123FFB800B7BFF7A20
:1050EB001779C2120E037F03022749F175124DB0D7
:1050FB00853558F1327002410314700241F72402D6
:10510B00600261E4E5357007F59E759E08800675B3
:10511B009E10759E1871F7540760037F0122E535C9
:10512B007008759E01759E098006759E11759E19F6
:10513B0071F7540760037F0122E5357008759E02F5
:10514B00759E0A8006759E12759E1A71F75407603C
:10515B00037F0122E5357008759E03759E0B800653
:10516B00759E13759E1B71F7540760037F0122E533
:10517B00357008759E20759E088006759E30759E4D
:10518B0018E59E71EE60037F0122E5357008759E70
:10519B0021759E098006759E31759E19E59E71EEEF
:1051AB0060037F0122E5357008759E22759E0A808B
:1051BB0006759E32759E1AE59E71EE60037F012285
:1051CB00E5357008759E23759E0B8006759E3375AD
:1051DB009E1BE59E71EE60037F0122E5357008751D
:1051EB009E27759E0F8006759E37759E1FE59E71D7
:1051FB00EE700261DF7F0122E5357007F59F759F29
:10520B00088006759F10759F1871FE540760037F09
:10521B000122E5357008759F01759F098006759F02
:10522B0011759F1971FE540760037F0122E53570DC
:10523B0008759F02759F0A8006759F12759F1A71DC
:10524B00FE540760037F0122E5357008759F0375D7
:10525B009F0B8006759F13759F1B71FE5407600390
:10526B007F0122E5357008759F20759F08800675B4
:10527B009F30759F18E59F71EE60037F0122E53526
:10528B007008759F21759F098006759F31759F1951
:10529B00E59F71EE60037F0122E5357008759F2253
:1052AB00759F0A8006759F32759F1AE59F71EE6098
:1052BB00037F0122E5357008759F23759F0B8006D0
:1052CB00759F33759F1BE59F71EE60037F0122E590
:1052DB00357008759F27759F0F8006759F37759FD3
:1052EB001FE59F71EE60037F012261DFE5357007DB
:1052FB00F597759708800675971075971891055453
:10530B000760037F0122E5357008759701759709D2
:10531B0080067597117597199105540760037F01E6
:10532B0022E535700875970275970A8006759712F6
:10533B0075971A9105540760037F0122E5357008B4
:10534B0075970375970B800675971375971B9105CA
:10535B00540760037F0122E5357008759720759718
:10536B0008800675973075971871EC60037F0122E2
:10537B00E535700875972175970980067597317516
:10538B00971971EC60037F0122E535700875972240
:10539B0075970A800675973275971A71EC60037FC3
:1053AB000122E535700875972375970B8006759765
:1053BB003375971B71EC60037F0122E5357008751F
:1053CB00972775970F800675973775971F71EC6048
:1053DB00037F0122E4F5368005D1FF753603AF3626
:1053EB0022E5975470C4135407640122E59E547050
:1053FB00C41322E59F5470C41322E5975470C41351
:10540B0022F175124DB0853558F132605E14700281
:10541B0081C724026002A120B1288002C333D8FCCB
:10542B00F452E17BFF7A187944F180120E03F139C3
:10543B008002C313D8FC30E0037F0122B128800225
:10544B00C333D8FC42E17BFF7A18795AF180F139EA
:10545B008002C313D8FCF108E5E1A807088002C35A
:10546B0013D8FC30E002A11B7F0122B1288002C3BC
:10547B0033D8FCF452E2F16B755601AFE21236F3FE
:10548B00F1418002C313D8FC30E0037F0122B12825
:10549B008002C333D8FC42E2F161755601F159F138
:1054AB00418002C313D8FCF108E5E2A8070880028B
:1054BB00C313D8FC20E0037F01228054B128800263
:1054CB00C333D8FCF452E3F16B755602AFE31236DB
:1054DB00F3F1498002C313D8FC30E0037F0122B102
:1054EB00288002C333D8FC42E3F161755602AFE367
:1054FB007557008F58F1498002C313D8FCF108E5AA
:10550B00E3A807088002C313D8FC20E0037F012225
:10551B00E4F5368005D1FF753603AF3622AF35740F
:10552B0001A8070822F115604314607A2402600277
:10553B00A1EBB1288002C333D8FCD1E58002C313A1
:10554B00D8FC30E0037F0122D1F08002C333D8FCBA
:10555B004293D1E88002C313D8FC30E0037F0122D1
:10556B00D1F78002C333D8FCF5808079B128800253
:10557B00C333D8FCD1DA8002C313D8FC30E0037FED
:10558B000122D1F08002C333D8FC4294D1DD8002DA
:10559B00C313D8FC30E0037F0122D1F78002C33361
:1055AB00D8FCF590803FB1288002C333D8FCD1CF13
:1055BB008002C313D8FC30E0037F0122D1F08002BC
:1055CB00C333D8FC4295D1D28002C313D8FC30E050
:1055DB00037F0122D1F78002C333D8FCF5A08005ED
:1055EB00D1FF753703AF3722F115604E147002C12E
:1055FB008624026002C1C7B1288002C333D8FCFEE7
:10560B00D1E58002C313D8FC30E0037F0122EE42C8
:10561B0093D1E88002C313D8FC20E0037F01221250
:10562B002E74AF35E580A807088002C313D8FC544D
:10563B000165367002C1CC7F0122B1288002C333D1
:10564B00D8FCFED1DA8002C313D8FC30E0037F0113
:10565B0022EE4294D1DD8002C313D8FC20E0037FFD
:10566B000122122E74AF35E590A807088002C313F0
:10567B00D8FC5401653660497F0122B1288002C3F2
:10568B0033D8FCFED1CF8002C313D8FC30E0037FAC
:10569B000122EE4295D1D28002C313D8FC20E00345
:1056AB007F0122122E74AF35E5A0A807088002C334
:1056BB0013D8FC5401653660087F0122D1FF753782
:1056CB0003AF3722F45295AF35E595A8070822F4BE
:1056DB005294AF35E594A8070822F45293AF35E501
:1056EB0093A8070822AF35E4A8070822AF35E536A3
:1056FB00A80708227BFF7A187920020E0375590040
:10570B005401F55A120E03AF35228F348D358B367B
:10571B00E4F5377BFF7A1779F3F5558F56F55785F7
:10572B003558F55985365A120E03E5341422AF3528
:10573B00E5E1A8070822AF35E5E2A8070822AF3557
:10574B00E5E3A8070822120E03AD32AF3122AFE218
:10575B007557008F58227BFF7A18795A755500229E
:10576B007BFF7A187944755500228F348D357BFF7A
:10577B007A18793422E4F555F556AFE1F5578F5881
:10578B00228D318B32AE07E4FFEE1422AF937555A9
:10579B00008F56AF947557008F58AF957559008F82
:1057AB005A2275B50185B33985B43AE53AF53BE52F
:1057BB0039F53C125F2D129ABB533CF3433C081254
:1057CB005F34129ABB753D00853C3E853EB3E53B8D
:1057DB00F53E753D00853EB475B511E5B520E5FB8D
:1057EB0075B5017BFF7A0579B1AFB47555008F564E
:1057FB00AFB37557008F58020E038F371257AD1288
:10580B0046ED1247CE1228C89000C7E07004A3E003
:10581B00646470F1F142700353ADFEF1107F01220D
:10582B001227E975360FE530700F7BFF7A07792465
:10583B00120E0331E18F3621DE1240F4126A0CE5B1
:10584B00301203DE588C0158970258A80358B9043C
:10585B0058C80558DA0658EB0758FA08590C095975
:10586B001E0A59330B59450C59570D59660E59766B
:10587B000F598F10599F1159AF5A59BE5B000059E0
:10588B00D07BFF7A07794B120E0321DC7BFF7A0763
:10589B007965120E03AF3111058F3621DC7BFF7A50
:1058AB00077989120E03AF31F14A8F3621DC7BFF6A
:1058BB007A0779AD12278D519A8F3621DC7BFF7ACF
:1058CB000779D1120E03AF311267E88F3621DC7BDB
:1058DB00FF7A0779F4120E03AF31F1688F3621DCB2
:1058EB007BFF7A08791712278D715F8F3621DC7B4E
:1058FB00FF7A08793B120E03AF31124C988F362189
:10590B00DC7BFF7A087962120E03AF311269498F83
:10591B003621DC7BFF7A087989120E0385343A1223
:10592B00279091438F3621DC7BFF7A0879B0120EDA
:10593B0003AF31124B938F3621DC7BFF7A0879D67C
:10594B00120E03AF311269A98F3621DC7BFF7A0867
:10595B0079FC12278DB1588F3680767BFF7A0979C7
:10596B002212278D1260578F3680667BFF7A09795A
:10597B0036120E0385343A85353B122790124DB9FA
:10598B008F36804D7BFF7A09794A1257511268176F
:10599B008F36803D7BFF7A09797C125751126896BE
:1059AB008F36802D7BFF7A0979B1125751F1F18F28
:1059BB0036801E7BFF7A0979C7120E03AF3112377F
:1059CB00A88F36800C7BFF7A0979E5120E037536AA
:1059DB0003AF360227495130AFA451375130AFB125
:1059EB0051375130AFA551375130AFAE124DB07565
:1059FB0058C5512DAFDC124DB0755808512DAFF471
:105A0B005137E5A47016E5B17012E5A5700EE5AE41
:105A1B00B4C509E5DCB40804E5F460037F01227F1B
:105A2B000022120E037BFF7A077919227555008F1E
:105A3B0056E4F557F558020E035193AFA8124DB02B
:105A4B007558805190AFB851375193AFA6124DB0E6
:105A5B007558015190AFA951375193AFB951375187
:105A6B0093AFC05137E5A8B48015E5B87011E5A622
:105A7B00B4010CE5A97008E5B97004E5C060037FBB
:105A8B0001227F0022120E037BFF7A14794B22D165
:105A9B00B1E537702691168005C333CE33CED8F9D6
:105AAB00124FAA8005C333CE33CED8F9713775B5F3
:105ABB0011E5B520E5FB75B5018069E5376401702B
:105ACB002DD19F91368005C333CE33CED8F9124FEB
