:020000040800F2
:10000000982C0020210100086F170008750A0008CD
:100010006D1700080F02000891270008000000007B
:10002000000000000000000000000000B71E0008F3
:1000300021080008000000006D1C0008C924000809
:100040003B0100083B0100083B0100083B010008A0
:100050003B0100083B0100083B0100083B01000890
:100060003B0100083B0100083B0100083B01000880
:100070003B0100083B0100083B0100083B01000870
:100080003B0100083B0100083B010008FD26000879
:100090008D2700083B0100083B0100083B010008D8
:1000A0003B0100083B0100083B0100083B01000840
:1000B0003B0100083B0100083B0100083B01000830
:1000C0003B0100083B0100083B0100083B01000820
:1000D0003B0100081D2500083B0100083B0100080A
:1000E0003B0100083B010008C1260008DFF80CD0E6
:1000F00000F05CF800480047853C0008982C002080
:10010000EFF30980704780F309887047EFF30880A8
:10011000704780F30888704740BA7047C0BA70478C
:100120000648804706480047FEE7FEE7FEE7FEE791
:10013000FEE7FEE7FEE7FEE7FEE7FEE7CD24000868
:10014000ED0000082DE9F05F0546002092469B4631
:1001500088460646814640241DE0284641464746DB
:10016000224600F044F8B0EB0A0052465B4671EBC1
:100170000B0110D310461946224600F029F82D1A1B
:1001800067EB01084F4622460120002100F020F8CD
:1001900017EB00094E41201EA4F10104DDDC4846A6
:1001A00031462A464346BDE8F09F0000064C074D05
:1001B00006E0E06840F0010394E807009847103437
:1001C000AC42F6D3FFF796FF184600083846000801
:1001D000202A04DB203A00FA02F100207047914007
:1001E000C2F1200320FA03F3194390407047202AFC
:1001F00004DB203A21FA02F00021704721FA02F3D1
:10020000D040C2F120029140084319467047FEE7F2
:10021000C1B2000A40EA01207047000070B51A4DD3
:100220001A4C1B4E2AE000BF47F6FF70C4F8440C7E
:10023000308800F00F00287004EB8000D0F8001C1C
:1002400089B20A0409D5D0F8001C40F68F7289B231
:100250001140C0F8001C0F480AE009060ED5D0F87E
:10026000001C48F60F7289B21140C0F8001C0A4801
:10027000297800EB810050F8040C8047D4F8440C36
:1002800030800004D0D470BD2C000020005000400D
:10029000880000206C000020500000202DE9F05F55
:1002A0004BF6BF7648F280074F4D40F68F7848F600
:1002B0000F7ADFF838914E4C32E001884D4A11F048
:1002C0000F01117035D004EB8100D0F8001C1FFA2B
:1002D00081FB5FEA0B410ED5D0F8001C134689B2B2
:1002E00001EA0801C0F8001C4348197800EB8100BE
:1002F00050F8040C80475FEA0B6011D53D48017847
:1003000004EB8101D1F8002C92B202EA0A02C1F892
:10031000002C3A49007801EB800050F8040C80472B
:10032000D4F8441C4846A9F800100904C5D4BDE817
:10033000F09FD4F8001C2980298801F030016980E1
:10034000298801F440512980D4F8001C89B2314039
:1003500081F4005181F020013943C4F8001C008869
:10036000C0060028D4F8000C80B218DB00EA0A00AE
:10037000C4F8000C00F080FB28E02988890401D52E
:1003800080F400506988C9062AD46988890601D595
:1003900080F0200080B23843C4F8000CC7E70105A4
:1003A00009D5D4F8000C80B200EA0800C4F8000CAB
:1003B00001F09EFE0AE00004B2D5D4F8000C80B231
:1003C00000EA0800C4F8000C01F01CFCD4F8000C92
:1003D000298880B23040C904CFD580F48050CCE762
:1003E00080F01000D1E700003E00002088000020CF
:1003F000005000402C0000206C0000205000002025
:10040000094901EB8000D0F8001C49040AD5D0F856
:10041000001C48F68F7389B24CF2800219401143D8
:10042000C0F8001C7047000000500040094901EB73
:100430008000D0F8001C49060AD5D0F8001C48F608
:100440008F7389B248F2C00219401143C0F8001CF2
:100450007047000000500040074901EB8001D1F8CF
:10046000000C48F68F6380B248F2800218401043B7
:10047000C1F8000C704700000050004030B587B054
:10048000012144F2050001F03BFC4FF40070ADF88F
:10049000100003248DF8124018201F4D8DF8130012
:1004A00004A9284600F06AFA2815ADF810000420C7
:1004B0008DF8130004A9284600F060FA25208DF875
:1004C00014008DF815408DF8164001208DF81700A6
:1004D00005A801F05BF94FF4E13000900020ADF881
:1004E0000400ADF80600ADF80800ADF80C000C20D3
:1004F0000A4CADF80A006946204602F083F8012252
:1005000040F22551204602F064F80121204602F015
:1005100037F807B030BD0000000801400038014046
:100520002DE9F05FDFF89C90DFF89C804FF0300AF7
:10053000D9F8001001F11005088A0E7A08B9042EC6
:1005400029D0AC880426A04200D90226844200D9D2
:100550000446A0B2A968074688478346002000F0F9
:100560007BFA01463A46584602F014F93946002013
:1005700001F03CFD2888001B2880688820446880A2
:10058000A8F800A011494FF440500880D9F80000A5
:100590000672BDE8F09F0E480178012904D00726B5
:1005A0001021A8F80010F1E70A4A002113680A4A4E
:1005B0004FEA034302EBD3325160A8F800A0017068
:1005C000E4E7000030000020400000203E00002052
:1005D00028000020505C0040006000402DE9F047FA
:1005E000234EDFF890904FF03008346834F8100F45
:1005F000A168B1B108B3A588854200D90546A8B263
:100600000746884782462088401B2080608828440F
:100610006080002000F010FA01463A46504601F092
:1006200015FB208848B114494FF440500880002140
:10063000084601F0DBFCA9F800802088A1888842E8
:1006400001D3032001E020B1052031680872BDE824
:10065000F0873268094B062111721A680020084998
:100660004FEA024201EBD2314860A9F80080EEE780
:1006700030000020400000203E000020505C004080
:10068000006000402DE9F0415C4C5D4D092620687A
:10069000002729684278062A05D0AAB1082A4DD039
:1006A0000A2A50D06BE00278520668D1807801287F
:1006B00004D0022804D0032804D060E0C96956E0C1
:1006C000096A54E0496A52E04288B2BBC288022AF1
:1006D00055D102798ABB0278530601D1838833B1A0
:1006E00002F07F02012A04D0022A0CD047E04549DB
:1006F0003DE08A69407900219047F0B92068807A0E
:100700000028F4D13BE040793F4A00F07001030635
:1007100000F00F0002EB8002D2F8002C03D5C2F3E8
:100720000112120102E0C2F301321203374B1B78AF
:10073000834224D909B9002AD9D120E000784006A3
:100740001DD1334913E0027802F07F02012A16D14D
:10075000827AA2B1428892B9027982B9C288012A0A
:100760000DD18A6940790021904740B9294931B1BA
:1007700020684782816100208847002006E02968C0
:100780002068096940788847032808D021680A8AC8
:10079000A2F57F43FF3B05D10E72BDE8F0812068D2
:1007A0000672FAE7022808D03AB1087800061FD589
:1007B000C888824204D9088212E008200872ECE757
:1007C0000ED22868144B90F82C00824201D21F7080
:1007D00006E0B2FBF0F400FB142008B90120187009
:1007E000286890F82C008882BDE8F041FFF798BE99
:1007F00003200872094900030880CEE7300000207A
:1008000034000020CD220008005000408A00002063
:100810005D220008A5220008280000203E000020DC
:1008200070470000074910B5012008704022982148
:10083000054801F00BFABDE810404FF4405101208B
:1008400001F094BB07010020182600200020044A74
:1008500001461154401CC0B24028FAD37047000032
:10086000582600200149032008607047000100203D
:10087000064810B54168064C616021600068FFF7CA
:1008800048FC2068BDE810400047000000700008E8
:100890000000002070B505464FF43026304600F0C9
:1008A0005BF8042811D1094C206940F00200206156
:1008B0006561206940F040002061304600F04CF84E
:1008C000216941F6FD721140216170BD0020024096
:1008D00008490420CA68D20701D001207047CA68BD
:1008E000520701D502207047C968C906FBD503200D
:1008F00070470000002002402DE9F04105464FF40A
:1009000000570E46384600F027F8042814D10B4C47
:10091000206940F0010020612E80B846384600F082
:100920001BF8BF1E042804D1300C6880404600F03C
:1009300013F8216939402161BDE8F08100200240AF
:1009400003480249416003494160704723016745FC
:1009500000200240AB89EFCD00B50346FFF7B8FF9A
:1009600003E000BFFFF7B4FF5B1E012803D0002B9C
:1009700000D1052000BD002BF4D1FAE72DE9F041AC
:10098000CA780025D30602F00F0201D58B781A43EE
:100990000B884FF00F084FF0010C13F0FF0F1CD025
:1009A000D0F800400E880CFA05F31E409E4210D18C
:1009B000AF0008FA07F624EA060602FA07F4344301
:1009C000CE78282E02D0482E02D002E0436100E00B
:1009D00003616D1C082DE5D304600B88FF2B1DD926
:1009E0004468002505F108060CFA06F30E881E403F
:1009F0009E420FD1AF0008FA07F624EA060602FA73
:100A000007F43443CE78282E00D14361CE78482EA7
:100A100000D103616D1C082DE4D34460BDE8F08172
:100A20000246002092680A4200D0012070474161CE
:100A300070470161704700000549096889B201EB00
:100A4000C000044901EB4000806880B2704700009C
:100A5000505C0040006000400449096889B201EB25
:100A6000C000034951F8100080B27047505C00404C
:100A700000600040FEE7000010B5134C2068017ACA
:100A8000022904D0042902D0062905D015E0FFF779
:100A900047FD2068007A11E04178052909D10178E5
:100AA000490606D1C07801F00FFA08480068006ACC
:100AB00080470748006880688047082021680872DE
:100AC000BDE8104001F0D4B830000020380000200C
:100AD0003400002008B50121082001F011F901209F
:100AE000ADF8000048208DF8030069460148FFF783
:100AF00045FF08BD000C014070B50D4C207828B1B1
:100B00000C4D01212846FFF78BFF18B10120207002
:100B1000002070BD0A2002F057FB00202070012148
:100B20002846FFF77DFF0028F2D1012070BD0000AC
:100B300008000020000C014008B50121082001F048
:100B4000DFF80220ADF8000010208DF8030003202C
:100B50008DF8020069460248FFF710FF08BD00004B
:100B6000000C01400448817A044809B1052100E0E5
:100B70000121016070470000FC25002000010020D9
:100B800010B5044688B0FF220021092000F068FD5E
:100B900010F0FF0006D101221021684600F01EFD72
:100BA00010B1012008B010BDFF2200210A2000F082
:100BB00057FD10F0FF00F5D10122102104A800F02C
:100BC0000DFD08B10220EDE79DF8000080092070BE
:100BD0009DF80000C0F3830060709DF8000000F0F5
:100BE0000300A0709DF80100E0709DF802002071E4
:100BF0009DF8030060719DF804000001E080E0882A
:100C00009DF8051040EA1110E0809DF8050000F005
:100C10000F0020729DF80600C00960729DF8060062
:100C2000C0F38010A0729DF80600C0F34010E0727F
:100C30009DF80600C0F300102073002060739DF83B
:100C400006108907090D216121699DF8072041EAF5
:100C50008201216121699DF8082041EA92112161F8
:100C60009DF80810C1F3C20121759DF8081001F02C
:100C7000070161759DF809104909A1759DF80910D2
:100C8000C1F38201E1759DF809108907490F2176AA
:100C9000217E9DF80A2041EAD21121769DF80A10A2
:100CA000C1F3840161769DF80A108907C90EA17607
:100CB000A17E9DF80B2041EA5211A1769DF80B1000
:100CC00001F01F01E1769DF80C10C90921779DF80C
:100CD0000C10C1F3411161779DF80C10C1F3820132
:100CE000A1779DF80C108907090FE177E17F9DF846
:100CF0000D2041EA9211E1779DF80D10C1F34011EA
:100D000084F8201084F821009DF80D0000F0010007
:100D100084F822009DF80E00C00984F823009DF895
:100D20000E00C0F3801084F824009DF80E00C0F37C
:100D3000401084F825009DF80E00C0F3001084F8E0
:100D400026009DF80E00C0F3810084F827009DF86E
:100D50000E0000F0030084F828009DF80F00400802
:100D600084F82900012084F82A0094F84E10042900
:100D700008D19DF808100902216121699DF8092018
:100D80001144216104F1240454F8141C4FEAC141B8
:100D900021624FF4007161629DF8101021729DF87C
:100DA00011104FEA0121618161899DF8122041EA09
:100DB000020161819DF813104FEA0161E160E16871
:100DC0009DF8142041EA0241E160E1689DF8152098
:100DD00041EA0221E160E1689DF8162041EA020142
:100DE000E1609DF8171021749DF8181061749DF84A
:100DF00019104FEA0161616161699DF81A2041EAA9
:100E00000241616161699DF81B2041EA0221616133
:100E100061699DF81C2041EA02016161217E9DF813
:100E20001D2041EA121121769DF81D104FEA017133
:100E30004FEA11516183618B9DF81E2041EA020146
:100E400061839DF81F104FEA5101217760774FF0C1
:100E50000000A7E62DE9F0474FF0000A5046401C7D
:100E600080B2FF28FBD90024FF2000F065FC641C41
:100E7000A4B20A2CF8D3002540F6FF740021952275
:100E8000084600F0EDFBC0B201280BD06D1CADB2DE
:100E9000A542F3D3A54205D16FA001F08FFC01203C
:100EA000BDE8F08787224FF4D571082000F014FCCC
:100EB000C0B2734EDFF8CC914FF48058052802D0B1
:100EC000012857D0C5E0012086F84E00414648462B
:100ED000FFF7AFFDFF2000F02FFC00250022114698
:100EE000372000F0BDFBC7B2012F67D100221146A9
:100EF000292000F0B5FB10F0FF0F2DD06D1CADB216
:100F0000A542EBD3A54227D100250022114601209E
:100F100000F0A6FB10F0FF010AD06D1CADB2A54297
:100F2000F3D3A54204D158A001F048FC0220B7E752
:100F300086F84EA060A000BF01F040FC012000F048
:100F4000F7F9012200213B2000F08AFB10F0FF049A
:100F500004D0214662A054E06EA0EDE7FF224FF4DA
:100F60000071102000F07CFB10F0FF0471D02146CE
:100F700072A046E0FF2000F0DFFBFF2000F0DCFB6A
:100F8000FF2000F0D9FBC5B2FF2000F0D5FBC7B2AF
:100F900041464846FFF74DFDFF2000F0CDFB012DF7
:100FA00057D1AA2F55D100254FF0804A0022114673
:100FB000372000F055FBC7B2012F05D039466CA091
:100FC00001F0FCFB38466BE700225146292000F077
:100FD00047FB10F0FF010AD06D1CADB2A542E5D36E
:100FE000A54204D16FA001F0E9FB032058E70022DD
:100FF00011463A2000F070FB10F0FF0405D02146A6
:1010000075A001F0DBFB20464AE7FF2000F094FBCF
:101010000446FF2000F090FBFF2000F08DFBFF2036
:1010200000F08AFB41464846FFF703FDFF2000F031
:1010300083FB600604D5042086F84E0073A003E00D
:10104000022086F84E007CA001F0B8FB012000F0E1
:101050006FF9002024E70000526573657420636116
:10106000726420696E746F2049444C45207374612A
:101070007465206661696C6564210D0A00000000DA
:1010800064250020000C014053656E6420434D44EC
:10109000312073686F756C642072657475726E2090
:1010A000307830302C20726573706F6E73653D3010
:1010B00078253032780D0A004361726420547970CB
:1010C00065202020202020202020202020202020DB
:1010D0002020202020203A204D4D430D0A00000002
:1010E00053656E6420434D4435392073686F756CC9
:1010F000642072657475726E20307830302C2072E6
:101100006573706F6E73653D3078253032780D0AE7
:101110000000000043617264205479706520202033
:1011200020202020202020202020202020202020BF
:1011300020203A2053442056310D0A0053656E6436
:1011400020434D4431362073686F756C642072659E
:101150007475726E20307830302C20726573706F29
:101160006E73653D3078253032780D0A000000003E
:1011700053656E6420434D4435352073686F756C3C
:10118000642072657475726E20307830312C207254
:101190006573706F6E73653D3078253032780D0A57
:1011A0000000000053656E642041434D44343120FB
:1011B00073686F756C642072657475726E20307818
:1011C00030302C20726573706F6E73653D307825FA
:1011D0003032780D0A00000053656E6420434D44A0
:1011E00035382073686F756C642072657475726E23
:1011F00020307830302C20726573706F6E73653DCF
:101200003078253032780D0A0000000043617264A6
:1012100020547970652020202020202020202020AC
:10122000202020202020202020203A205344205617
:101230003248430D0A000000436172642054797003
:101240006520202020202020202020202020202059
:101250002020202020203A2053442056320D0A001E
:101260002DE9F0470E461F49154691F84E10042906
:1012700000D0400201460022122000F0F1F910F0E7
:10128000FF0F02D00120BDE8F08700244FF4805703
:10129000DFF854804FF4007913E000BF06EB4420E0
:1012A0000022494600F09AF950B1002211460C2064
:1012B00000F0D6F939464046FFF7BBFB0220E2E7D3
:1012C000641CAC42EAD3002211460C2000F0C8F99D
:1012D00039464046FFF7ADFBFF2000F02DFA002015
:1012E000D1E7000064250020000C014010B50C4639
:1012F0000E4991F84E10042900D040020146002208
:10130000112000F0ADF910F0FF0F01D0012010BD49
:1013100001225102204600F061F9C4B200221146B8
:101320000C2000F09DF9204610BD0000642500202F
:1013300000B585B00021ADF800104FF48272ADF811
:101340000220ADF804100222ADF806200122ADF80B
:1013500008205202ADF80E100721ADF80A20ADF8B2
:10136000101048B15FF01000ADF80C00694603485A
:1013700000F085FD05B000BD3820F5E700380040DD
:10138000F8B501218D03284600F0AEFC01210920AB
:1013900000F0B6FC4FF42040ADF8000003248DF8B7
:1013A00002401820144E8DF8030069463046FFF7BE
:1013B000E5FAADF800508DF8024004208DF80300E6
:1013C00069463046FFF7DAFAAD10ADF800508DF8F7
:1013D000024010208DF8030069463046FFF7CEFA30
:1013E00029463046FFF725FB0020FFF7A1FF01212A
:1013F000024800F02FFDF8BD000C0140003800400D
:101400002DE9F05F04463F480D46904690F84E00A7
:10141000042801D0640220B100224146172000F0C8
:101420001FF900222146192000F01AF910F0FF0FD1
:1014300002D00120BDE8F09FDFF8CCB04FF4805A15
:1014400051465846FFF7F3FAFF2000F075F90026E1
:10145000DFF8B8904FF4007730E0FC2000F06CF932
:101460005FF0000415F8010B00F066F9641CA4B2EB
:10147000BC42F7D3FF2000F05FF9FF2000F05CF9D9
:10148000FF2000F059F900F01F00052805D0514653
:101490005846FFF7CEFA0220CCE7002408E0641C8F
:1014A0004C4505D151465846FFF7C3FA0320C1E722
:1014B000FF2000F041F9FF28F1D1761C4645CCD33E
:1014C000FD2000F039F910F0FF0F02D000244D4646
:1014D0000AE00420AEE7641CAC4205D151465846F0
:1014E000FFF7A7FA0520A5E7FF2000F025F9FF2860
:1014F000F1D151465846FFF79CFAFF2000F01CF945
:10150000002097E764250020000C01400100040042
:101510002DE9F0410D462E4991F84E10042900D0D6
:10152000400201460022182000F09AF810F0FF0F48
:1015300002D00120BDE8F081DFF898804FF480569A
:1015400031464046FFF773FAFF2000F0F5F8FF2020
:1015500000F0F2F8FF2000F0EFF8FE2000F0ECF8C9
:101560000024F71015F8010B00F0E6F8641CA4B293
:10157000BC42F7D3FF2000F0DFF8FF2000F0DCF8DA
:10158000FF2000F0D9F800F01F00052805D03146F3
:101590004046FFF74EFA0220CCE700240E4D08E04B
:1015A000641CAC4205D131464046FFF742FA0320A5
:1015B000C0E7FF2000F0C0F80028F1D031464046D7
:1015C000FFF737FAFF2000F0B7F80020B2E700007D
:1015D00064250020000C0140010004002DE9F047C3
:1015E000DFF878A006460D464FF4805990464946EC
:1015F0005046FFF71CFA00244FF4FA67FF2000F072
:101600009BF8C0B2FE280CD0641CA4B2BC42F5D337
:10161000BC4206D149465046FFF70BFA0120BDE80F
:10162000F087002405E000BF00F086F83055641C08
:10163000A4B2AC424FF0FF00F6D300F07DF8FF20DB
:1016400000F07AF8B8F1000F06D049465046FFF78F
:10165000F0F9FF2000F070F80020E0E7000C0140F6
:101660002DE9F04105460C461746FF2000F064F8CE
:10167000DFF860804FF4805631464046FFF7D7F9D7
:1016800045F0400000F058F8200E00F055F8C4F383
:10169000074000F051F8C4F3072000F04DF8E0B225
:1016A00000F04AF8384600F047F80024FF2000F028
:1016B00043F8C5B2FF2D03D1641CE4B2C82CF5D3A6
:1016C00031464046FFF7B5F9FF2000F035F82846CF
:1016D000BDE8F081000C014070B506460C46154689
:1016E000FF2000F029F84FF480511248FFF79FF9CE
:1016F00046F0400000F020F8200E00F01DF8C4F382
:10170000074000F019F8C4F3072000F015F8E0B224
:1017100000F012F8284600F00FF80024FF2000F037
:101720000BF8C0B2FF2803D1641CE4B2C82CF5D377
:1017300070BD0000000C014070B50B4C0546022145
:10174000204600F091FB0028F9D02946204600F001
:1017500094FB0121204600F087FB0028F9D02046A9
:10176000BDE8704000F087BB00380040FEE77047DE
:10177000704710B54FF4E06000F036F8BDE8104057
:101780004FF4E0414FF0006000F038B8F0B50F22A0
:10179000C57803784FF0E0210124E5B1D1F80C5D64
:1017A000467805F4E065C5F5E0652D0AC5F1040746
:1017B000EA408578BE40154035430B442A0183F842
:1017C00000240078420900F01F00844001EB8200F1
:1017D000C0F80041F0BD03F01F008440580901EB40
:1017E0008000C0F88041F0BD02490843024908600A
:1017F000704700000000FA050CED00E0024A1140BD
:10180000014302480160704780FFFF1F08ED00E0C0
:1018100070B5314D2868017844784A0606D001F049
:101820007F0001282BD002282ED038E0092C06D0CA
:10183000052C07D0032C0ED0012C17D02FE000F080
:101840008FFD2BE0C1787F2931D8817879BB8188E1
:1018500069BB807A2AE0C178012920D18188F1B959
:10186000407A80061BD500F097FD17E0C17801296A
:1018700015D1818899B9407A80060AD40FE00B2CE3
:101880000DD100F0E1FD09E0012C02D0032C03D0C2
:1018900005E000F063FC01E000F090FD58B10F4856
:1018A00000684169E0B28847032802D018B10820D7
:1018B0000FE009200DE00A4A062000211368094ABA
:1018C0004FEA034302EBD3325160074A4FF0300135
:1018D00011802968087270BD30000020340000209B
:1018E000505C00400060004040000020124910B5EC
:1018F0000A680628117801F07F0103D1012901D17E
:10190000537913B121290AD013E09078222802D00C
:10191000212802D00DE0094904E0094902E003282A
:1019200007D1084929B100209161508288470020E1
:1019300010BD022010BD00003000002089190008F1
:10194000611900086D190008014900F09BBC0000F6
:1019500098000020014900F095BC00009000002094
:10196000014900F08FBC0000A800002008B1044825
:101970007047044901200968088200207047000070
:101980008C00002030000020014900F07BBC0000EA
:10199000A000002005490968C978042901D9002060
:1019A0007047034A02EBC10100F06CBC300000201C
:1019B000E000002009B9002800D002207047000094
:1019C0002DE9F043ADF50B7D294C4FF480690026DD
:1019D0004FF00408FEF7B4FF012226A1684601F08B
:1019E000B5FE010003D028A000F0E8FE38E0039D1A
:1019F000A80503D0012101EB952707E0AF0A05E018
:101A000009FB0640FEF746FF8046761CBE4202D226
:101A1000B8F1040FF4D02F1989AB4A462049684623
:101A200001F032FFC8B98998B8B11D4D00260EE00B
:101A300020462968FEF760FF20682968884203D0A5
:101A400018A000F0BBFEE7E7241D2D1D361D899868
:101A50008642E1D2BC42DFD2EAE7684601F05CFE92
:101A600017A000F0ABFE0DF50B7DBDE8F083000084
:101A700000700008303A2F4F5450577269746572E5
:101A800046572E62696E00006F70656E2066696C45
:101A900065206572726F72203A2025640D0A00007D
:101AA000640500204170706C696361746520757015
:101AB00064617465206572726F720A0A000000002A
:101AC0000D0A50726F6772616D2074686520466CF4
:101AD000617368204F4B200A2121210006490968C3
:101AE000097801F07F01212901D10B2801D00220C2
:101AF000704700F05FB8000030000020294810B5A2
:101B0000006800218172C1722749C97941720020A1
:101B100000F0D2F94FF40071002000F091FA10218A
:101B2000002000F071FA1821002000F0EFF9582190
:101B3000002000F04BFA0020FEF78EFC1B4890F8C6
:101B40002C10002000F0F2F9002000F02BFA4FF4E6
:101B5000C0642146012000F073FA9821012000F0B2
:101B6000D5F94021012000F0E1F9E100012000F069
:101B7000FDF92146022000F063FA4FF48C71022037
:101B800000F024FA4021022000F030FA2021022047
:101B900000F03AFA064901200860BDE81040002034
:101BA00000F092B93000002044400008B00000204E
:101BB00000010020034804490068C0780860002044
:101BC00070470000300000208C00002070477047F4
:101BD000084810B500680024847200F069F80648CF
:101BE0004460064A4FF41C411180016004480460BF
:101BF00010BD000030000020405C00403C00002090
:101C00000001002010B50F4C2068007A022811D086
:101C100004280FD0032804D0052802D0072805D0B7
:101C200008E0FEF7DBFC2068007A04E00648006864
:101C3000C0688047082021680872BDE8104000F0A5
:101C400017B800003000002034000020064B10B50B
:101C5000521C520803EB410104D010C920F8024B7A
:101C6000521EFAD110BD0000006000407047000015
:101C70000B4810B590F82C10002000F057F90948D7
:101C80000068017A082905D1074A48021080074AEE
:101C9000102010800120092900D0002010BD000074
:101CA000B0000020300000203E0000204000002056
:101CB00010B54FF400710948FEF7BBFE084801213A
:101CC00001604FF00001074A016041604FF4E051AC
:101CD000118001604FF0000010BD000000100140B5
:101CE000405C00403C000020044A0029D16901D03A
:101CF000014300E08143D1617047000000100240C1
:101D0000044A0029916901D0014300E081439161B7
:101D10007047000000100240214910B54B68214A6D
:101D200013F00C0303D0042B01D0082B26D0026043
:101D30004A681D4B02F0F00212099C5C0268E24006
:101D400042604C6804F4E064240A1C5D22FA04F446
:101D500084604C6804F460544FEAD4241B5D22FA7A
:101D600003F2C2604968104B01F440414FEA9131DF
:101D70001B1F595CB2FBF1F1016110BD4A684B6851
:101D8000022402F4701204EB924213F4803F02D05A
:101D90004B689B0301D5054B00E0024B5A43C6E755
:101DA0000010024000127A001800002000093D00D7
:101DB00070B51E4C072800D0207021780626042517
:101DC0001B48062930D2DFE801F00306090E16226F
:101DD00000F030F828E000F02DF80AE002206070F2
:101DE0000320207070BD6078401E6070607800280D
:101DF000F8D1257070BDD0F8401C89B241F01001B7
:101E0000C0F8401C052020700A20607070BD617809
:101E1000491E617061780029F8D1D0F8401C89B260
:101E200021F01001C0F8401C267070BD0501002093
:101E30000050004010B5064C206880B220F004002D
:101E40002060FEF78FFE4FF41C40206010BD0000A4
:101E5000405C00400029018802D041F0400101E0CF
:101E600021F04001018070470246002012890A4299
:101E700000D001207047808970478181704770B51C
:101E800002884D8802F441530A888C88CE882A4300
:101E900034430D8922434C892A438D892243CC89BE
:101EA0002A4322431A430280828B22F400628283F7
:101EB000098A018270BD7047024920F0070008605E
:101EC00070470000505C0040F0B50E490E4A48F6DD
:101ED0008F770C78002148F2800C0CE0CEB202EB38
:101EE0008605D5F8003C9BB23B40334343EA0C03E4
:101EF000C5F8003C491CA142F0D340F08000C2F874
:101F00004C0CF0BD8A00002000500040054A21F032
:101F100001011368044A9BB203EBC00002EB4000CE
:101F200081607047505C0040006000400D4A1368BB
:101F30000D4A9BB203EBC00002EB40023E2909D9D7
:101F40004809C90601D1401E80B24FF4004141EA60
:101F5000802005E04808C90701D0401C80B28002FB
:101F600010607047505C00400C6000400C4A10B597
:101F700002EB8002D2F8000C4BF68F7480B2CB04D7
:101F800000EA040001D580F48050890401D580F472
:101F9000005048F280010843C2F8000C10BD000058
:101FA00000500040084901EB8001D1F8000C4BF6CD
:101FB0008F7280B2104080F4405048F2800210438B
:101FC000C1F8000C7047000000500040054A21F0A5
:101FD00001011368044A9BB203EBC00042F81010E1
:101FE00070470000505C004000600040044A1268E6
:101FF000044B92B202EBC00003EB4000416070471B
:10200000505C0040006000400C4A10B502EB8002BA
:10201000D2F8000C48F6BF7480B2CB0600EA040088
:1020200001D580F01000890601D580F0200048F22B
:1020300080010843C2F8000C10BD000000500040B1
:10204000064A02EB8000D0F8002C48F68F1392B2BB
:102050001A400A43C0F8002C7047000000500040AE
:1020600021480021026842F4803202604FF4A063EC
:102070000268491C12F4003F01D19942F8D101686D
:10208000890330D519490A6842F010020A600A68CB
:1020900022F003020A600A6842F002020A60416804
:1020A000416041684160416841F48061416041683C
:1020B00021F47C114160416841F4E81141600168FC
:1020C00041F08071016001688901FCD5416821F00F
:1020D00003014160416841F0020141604168C1F380
:1020E00081010229FAD1704700100240002002400D
:1020F00070B51748016817484FEA014100EBD1312C
:10210000154D89684FEA014100EBD1342868017A06
:1021100009290FD02178017061784170A088FEF7FD
:1021200077F8296848802089FEF772F82968888046
:10213000A089C880286801210172C08828B1FEF7F3
:10214000A1FABDE87040FFF793BDFFF761FBF8E728
:10215000505C004000600040300000202DE9F0415C
:1021600039480168087810F07F0002D0022805D0B5
:1021700067E0487A00F0DF0048724FE04888E8BB2B
:102180000879D8BB4A79324C130622F08000002B24
:1021900004EB80032D4DD3F8003C03DAC3F30113A5
:1021A0001B0102E0C3F301331B032E780546864270
:1021B00047D91BB3897A09B3110610D504EB800106
:1021C000D1F8001CC1F30111012923D1E8B2044662
:1021D000FEF72CF930212046FFF716FF1AE004EB3A
:1021E0008005D5F8001CC1F30131012912D14BF64D
:1021F0008F7648F28007A0B1C0B200E021E0FEF780
:10220000FFF8D5F8000C80B2304080F440503843DD
:10221000C5F8000C0F480068406980470020BDE801
:10222000F0810D4890F82C100020FFF77FFED4F8C5
:10223000000C80B2304080F440503843C4F8000CA9
:10224000E8E70220EBE70000300000208A000020D1
:102250000050004038000020B000002010B5074CAE
:1022600030B1074800680068804720680A3010BD18
:10227000216801200882002010BD000030000020ED
:1022800038000020064A00281268508A02D00968E7
:10229000084470478988081A10820020704700009F
:1022A0003000002010B5074C30B107480068806846
:1022B000804720680C3010BD216801200882002072
:1022C00010BD00003000002038000020204910B56B
:1022D000096860B11F48002202800A7853060AD0BC
:1022E00002F07F02012A16D0022A16D001E0022055
:1022F0000882002010BD497A8A06027802D542F091
:10230000020201E002F0FD0249060270D1B212D4CD
:1023100001F0FE0111E00F4810BD4A7902F00F01F3
:1023200013060D4A02EB8101D1F8001C07D5C1F359
:10233000011106E0017841F00101017003E0C1F3F1
:1023400001310129F6D00548006800698047E2E7BD
:10235000300000202A0000200050004038000020FB
:102360000A4810B50A4900684A78C178914203D8F2
:1023700082780AB982880AB1022010BD81720548AC
:10238000006840688047002010BD00003000002039
:102390008A00002038000020064810B50068417A05
:1023A00041F02001417204480068C0698047002064
:1023B00010BD0000300000203800002070B51E481D
:1023C00003681E48597921F0800500EB85000C0652
:1023D000D0F8004C21F0800203D5C4F3011424018D
:1023E00002E0C4F301342403154D2D78954211D930
:1023F0005A887AB974B19A7A62B10906D0F8001C89
:1024000048F2800208D548F6BF7389B2194081F0BE
:10241000100107E0022070BD4BF68F7389B219409E
:1024200081F480511143C0F8001C0648006880699F
:102430008047002070BD00003000002000500040A8
:102440008A0000203800002010B50E4C0E4A20688B
:102450001268C17892694079904721688A7A22B1DE
:1024600018B9087908B9887808B1022010BD074862
:102470000068C068804720684179C172C1780173E3
:10248000002010BD30000020340000203800002063
:102490000648016889B241F008010160016889B20B
:1024A00041F004010160FEF7DDB90000405C00402E
:1024B0004FF0E0210428086903D020F004000861EF
:1024C000704740F00400FAE7704700000F4810B56D
:1024D000016841F00101016041680D4A114041600D
:1024E00001680C4A11400160016821F480210160FB
:1024F000416821F4FE0141604FF41F018160FFF744
:10250000AFFD05494FF00060086010BD00100240AB
:102510000000FFF8FFFFF6FE08ED00E070B5154C77
:1025200040F22551204600F035F800280ED0204614
:1025300000F0C2F8C2B2104801780B0606D44C066F
:102540004FF0000306D50A2A01D0037070BD41F098
:1025500080010DE00D2A09D001F03F04074D491C10
:10256000C9B22A5501703F29EFD870BD41F0400132
:10257000017070BD003801400E000020BC25002015
:102580000029818902D041F4005101E021F4005179
:102590008181704770B501F01F0601220025C1F34B
:1025A000421302FA06F4012B0FD0022B0FD0838ABC
:1025B0004FEA11210088234202FA01F200EA0200E8
:1025C00001D000B10125284670BD8389F0E7038A58
:1025D000EEE710B5C1F3421301F01F040121A14041
:1025E000012B07D0022B07D01430002A026805D037
:1025F0000A4304E00C30F8E71030F6E78A43026043
:1026000010BD000030B50446008A85B00D464CF67A
:10261000FF710840E98801432182A1894EF6F31039
:102620000140A8882A8910436A890A431043A0817F
:10263000A08A4FF6FF410840A9890143A18268465C
:10264000FFF76AFB1B48844201D1039800E002981F
:10265000A1890904002900EBC00101EB00102968E1
:1026600002DA4FEA410101E04FEA8101B0FBF1F0EB
:102670006422B0FBF2F14FEA01114FEA11136FF03F
:1026800018056B43A58900EB83004FF032032D043E
:1026900006D503EBC000B0FBF2F000F0070005E048
:1026A00003EB0010B0FBF2F000F00F0008432081B4
:1026B00005B030BD003801408088C0F30800704785
:1026C0007047000038B501211020FFF719FB4FF4C7
:1026D0000074ADF8004003208DF802001020064D74
:1026E0008DF8030069462846FEF748F9214628463A
:1026F000FEF79DF938BD000000100140FDF78EBDCA
:1027000070B51D4ED6F8440C1C4C208020881C4D02
:1027100029880840400506D54FF6FF30C6F8440C1E
:10272000184840688047208829880840C00406D59A
:102730004EF6FF70C6F8440C0020FFF739FB2088E6
:102740002988084000050CD50F48007810B1FFF724
:102750009FFE02E00220FFF72BFB4FF2FF70C6F84E
:10276000440C208829880840000403D5BDE8704047
:10277000FDF794BD70BD00000050004088000020AF
:102780003C000020B000002004010020FFF7B8BF8B
:10279000FEE70000084B10B5521C520803EB410144
:1027A00008D003784478801C43EA042321F8043BD2
:1027B000521EF6D110BD0000006000400FB4054B62
:1027C00010B503A9044A029800F018F810BC5DF88F
:1027D00014FB0000453B00081000002002E008C880
:1027E000121F08C1002AFAD170477047002001E08B
:1027F00001C1121F002AFBD1704700002DE9FF4FD5
:102800008DB005460F460026EEE1252879D100243B
:102810006D1CF94AA246A14601212B78203B01FA02
:1028200003F0104202D004436D1CF6E728782A28F2
:1028300010D06FF02F022878A0F13001092915D8A7
:102840000AEB8A0102EB410144F0020400EB010AA9
:102850006D1CF0E757F804ABBAF1000F03DA44F44B
:102860000054CAF1000A44F002046D1C28782E2896
:1028700017D115F8010F44F004042A280ED06FF088
:102880002F022878A0F1300109290AD809EB890123
:1028900002EB410100EB01096D1CF2E757F8049BC4
:1028A0006D1C28786C280FD006DC4C2817D06828BF
:1028B0000DD06A2814D104E0742810D07A280FD1E2
:1028C0000DE044F400140AE044F4801401E044F400
:1028D00040146978814202D16D1C04F580146D1C8E
:1028E00095F800C0BCF16E0F2AD012DCBCF1630F6A
:1028F0003CD007DCBCF1000F76D0BCF1580F19D1E9
:10290000ACE018E0BCF1640F6FD0BCF1690F11D1DD
:102910006BE0BCF1730F32D006DCBCF16F0F71D0ED
:10292000BCF1700F06D19BE0BCF1750F6BD0BCF110
:10293000780F69D06046DDE90F129047761C52E1AE
:10294000C4F30250022806D003280AD0042801CF7D
:102950000AD0066047E101CF4FEAE671C0E90061A5
:1029600041E101CF06803EE106703CE101CF8DF8E8
:10297000000000208DF80100EB46012003E057F82D
:1029800004BB4FF0FF3061074FF0000102D40DE0AF
:1029900008F10101884649450FDA8045F8DB1BF84C
:1029A00008100029F4D108E008F1010188468142AD
:1029B000FADB1BF808100029F6D1DDE90F23AAEB9A
:1029C00008008146214600F040F9304400EB08063B
:1029D00004E0DDE90F121BF8010B9047B8F1010884
:1029E000F7D221464846F9E002E10A20C4F3025238
:1029F0004FF0000B0890022A07D001CFC117032A1D
:102A000009D00AE035E022E023E0FF1D27F00707A8
:102A1000F7E8020105E000B2C117042A01D140B273
:102A2000C117002906DA0023D0EB030063EB010194
:102A30002D2202E0220504D52B228DF8242001222C
:102A400003E0E20701D02022F7E7904653E00A2195
:102A500010E010204FF0000B08900EE0102109E06C
:102A600010214FF0000B44F004044FF008090891C6
:102A700003E008214FF0000B0891C4F30252022A30
:102A800004D001CF0021032A06D007E0FF1D27F064
:102A90000707F7E8020105E080B20021042A01D10E
:102AA000C0B200214FF00008220724D5BCF1700FFE
:102AB0002AD0089B83F0100353EA0B0309D150EA94
:102AC000010206D030228DF824208DF825C0022284
:102AD0009046089B83F0080353EA0B030BD150EA9E
:102AE000010201D1620706D530228DF824204FF073
:102AF0000108A9F1010941A2BCF1580F00D044A27C
:102B00000B9208AA0A920FE040228DF8242001229D
:102B1000DEE75B46089AFDF715FB0B9B9B5C0A9A68
:102B2000A2F101020A92137050EA0102F1D10A984F
:102B3000ADEB000000F1200B600702D524F48034D7
:102B400001E04FF00109002049465A46D94501DD10
:102B5000A1EB020000EB0B0141440890AAEB01003D
:102B60000B90E00306D4DDE90F2321460B9800F01B
:102B70006CF806444FF000090DF1240A07E0DDE986
:102B80000F121AF809009047761C09F10109C14596
:102B9000F5DBE0030CD5DDE90F2321460B9800F0AF
:102BA00054F8064404E0DDE90F1230209047761C0B
:102BB0000899481E08900029F5DC08E00A980A994F
:102BC0000078491C0A91DDE90F129047761CBBF191
:102BD0000001ABF1010BF1DC0B982146DDE90F237D
:102BE00000F020F806446D1C287800287FF40DAE14
:102BF00011B03046BDE8F08F092801003031323382
:102C000034353637383941424344454600000000E8
:102C10003031323334353637383961626364656652
:102C2000000000002DE9F0410446002517461E462D
:102C3000880405D406E039462020B04705F1010597
:102C4000641EF8D52846BDE8F0812DE9F041044620
:102C50000025302790461E46C80300D4202788044C
:102C600005D506E041463846B04705F10105641E2A
:102C7000F8D52846BDE8F08110B504460A464078EC
:102C8000012304F1300100F00DFD08B1032010BD57
:102C9000B4F82E02A0F52A41553901D0022010BD0A
:102CA00094F86610D4F86720094841EA0221B0EB95
:102CB000012F08D094F88210D4F8832041EA022131
:102CC000B0EB012F01D1002010BD012010BD00008C
:102CD0000046415400E0401C02780AB18A42FAD111
:102CE000D0B270472DE9F0470B46016815460A78C7
:102CF000303A092A08D84C783A2C05D1891C016051
:102D000012B10B20BDE8F087794804681C609CB1C3
:102D1000207820B1607800F0DDFCC1070ED04FF0C4
:102D2000000984F80090484684F8019000F087FC80
:102D3000C10708D00320E5E70C20E3E70DB1400709
:102D400004D40020DEE71DB1400701D50A20D9E7F1
:102D500000210E462046FFF78FFF01280CD104F515
:102D6000F7700179E9B3017AD0F8090041EA002649
:102D700031462046FFF780FF032801D088BB01E0E1
:102D80000120BFE7B4F83B00B0F5007F5DD1B4F897
:102D90004680B8F1000F05D194F85400D4F85510CE
:102DA00040EA0128C4F81C8094F84000E070012833
:102DB00001D0022849D194F83D5008FB00FCA570D1
:102DC0007DB1691E0D4240D1B4F841102181080740
:102DD0003BD1B4F8430038B994F85000D4F85120EE
:102DE00000E032E040EA0220E38F73B303EB0C0211
:102DF00002EB1112904228D3801AB0FBF5F020B3F9
:102E0000012540F6F677B84200D302254FF6F67753
:102E1000B84200D303253244A262801CF218A0619C
:102E20002262032D13D081B102EB0C016162022DED
:102E300018D000F0010100EB400001EB500000BF92
:102E400000F2FF10B8EB502F0ED20D205AE70029E8
:102E5000FBD194F85C10D4F85D20800041EA022197
:102E60006162EDE74000EBE74FF0FF30C4E903900B
:102E70004F46032D31D16771B4F8600001238219E8
:102E80006261607804F1300100F00CFC28BBB4F8FA
:102E90002E02A0F52A4155391FD194F83000D4F8FC
:102EA0003120144940EA0220884216D194F81402D5
:102EB000D4F81522104940EA022088420DD194F836
:102EC0001C02D4F81D1240EA0120E06094F81802B8
:102ED000D4F8191240EA0120206105492570091F24
:102EE0000888401C0880E080E762277129E700001D
:102EF0000C01002052526141727241618269891E47
:102F0000921E8A4201D800207047826A807801FBB5
:102F1000002070472DE9F04106460F0006D000F072
:102F200053FE022809D20120BDE8F081F46814B1F3
:102F3000B069A04205D8012403E0B1698142F3D809
:102F40003C462546B0696D1CA84202D80225022CD9
:102F50000AD32946304600F037FE38B1411CE3D091
:102F60000128E1D0A542EDD10020DDE76FF07042ED
:102F70002946304600F010FF30B967B12A4639467D
:102F8000304600F009FF30B14FF0FF35012800D086
:102F900001252846C8E7F5603069411CF9D0401E7C
:102FA000306101207071F4E72DE9F84F82468846C0
:102FB0000D6800E06D1C28782F28FBD05C28F9D024
:102FC0000024DAF81C702646A85D761C202818D349
:102FD0002F2816D05C2814D0FF2C32D2C0B2012189
:102FE00000F04CFD5FEA00092BD0B9F1800F04D24C
:102FF000014667A0FFF76EFE18BB27F81490641C0B
:10300000E2E7AA190425C8F80020202817D30025D4
:1030100015E000BF07EB440030F8020C20280DD06B
:103020002E280BD06CB1002027F814000B22202191
:10303000DAF8180000F074FE002606E0641E002C8A
:10304000E8D10620BDE8F88F761C37F81600202856
:10305000FAD02E28F8D01EB145F0030500E0641E1A
:103060002CB107EB440030F8020C2E28F7D10020D9
:1030700080464FF0080B009037F81690761CB9F197
:10308000000F24D0B9F1200F04D0B9F12E0F04D1D4
:10309000A64202D045F00305EEE700985946584590
:1030A00001D2A64219D10B290FD0A64201D045F07A
:1030B00003050CD84FF0080000904FEA88602646C0
:1030C0004FF00B0B4FEA1068D6E745F00305DAF82E
:1030D00018000178E52936D037E04846B9F1800F6D
:1030E0000CD3002100F0CAFC90B12C4945F0020538
:1030F000084410F8800C5FEA000904D0014628A0BB
:10310000FFF7E8FD38B14FF05F0945F0030512E025
:1031100045F00205F7E7A9F14100192802D848F067
:10312000020808E0A9F16100192804D8413048F0EC
:1031300001081FFA80F9DAF8182000994B1C02F8F0
:103140000190009398E705210170BBF1080F03D1AE
:103150004FEA88604FEA1068C8F38100032803D063
:103160006FEA0801890701D145F00205A90709D4D2
:1031700008F00301012901D145F01005012801D112
:1031800045F00805DAF81800C57200205AE700007B
:10319000222A3A3C3E3F7C7F00000000D6400008D7
:1031A0002B2C3B3D5B5D000010B504466FF0040026
:1031B000FFF77EF90349E0084FF47A720870504334
:1031C000488010BD0A00002008494A884FF0E021DD
:1031D0005043486100228A61012008610869C307E1
:1031E00001D0C003FAD50A618A6170470A00002045
:1031F0002DE9F84F0546002100F0E2F9002877D1CB
:103200004FF0FF0AD1462969286800F090FD0600BA
:103210000ED16C69207850B1E17AE52801F03F01C8
:1032200003D00A0705D50F2909D0FF204BE004265B
:1032300070E00F2903D0B9F1000F49D04DE0E969E2
:1032400079B3420606D594F80DA020F04000EB8833
:1032500081462B84484534D1627B524531D100915F
:103260002078002720F04000401E00EB8001DFF8AE
:10327000ACB001EBC00801261BF807002044008811
:1032800086B100F017FC0646B8F1FF0F19D200987E
:1032900030F8180008F1010800F00CFCB04210D121
:1032A00004E02EE0A0F57F41FF390AD17F1C0D2FED
:1032B000E2D32078400608D53EB1009830F81800D7
:1032C00018B1FF20C0B281461DE0A9F10100F9E765
:1032D000204600F00DFE50451CD04FF6FF702884AC
:1032E000A8694FF0FF09C17AC9070CD10A2102E091
:1032F00011E0491E06D314F8012B10F8013BD21A35
:10330000F7D000E032B10021284600F009F80600AD
:103310003FF479AF3046BDE8F88F0000C94000089F
:103320002DE9F0410446C0880F46401C0604360CC7
:103330002DD0206958B331075ED1401C2061E1686F
:10334000206829B18278521E12EA161F04D053E079
:103350000089B0421BD94FE000F036FC0546012839
:103360001AD9681C33D020688169A9423ED877B148
:10337000E168FFF7CFFD05000CD0012D0CD0681CD3
:1033800025D00021206800F0D2FC00BB06E004201C
:10339000BDE8F0810720FBE70220F9E720684FF441
:1033A00000723030002100F0BBFC29462068FFF796
:1033B000A5FD216800274FF00108C8620FE000BF9B
:1033C00080F804800021206800F0B1FC08B10120E1
:1033D000DEE720687F1CFFB2C16A491CC162206819
:1033E0008178B942ECD8C16AC91BC162E56029463F
:1033F0002068FFF783FD2061E68006F00F01302290
:10340000206802EB4111084460610020C0E7000021
:103410002DE9FF5FD0E9067604460C22394668465E
:1034200000F074FC9DF80B00C00719D00020F87262
:103430000125E0612B4632466946384600F08EFB96
:103440002046FFF7D5FE18B96D1CADB2642DF1D33F
:10345000642D0BD004280AD19DF80B00F872E661A8
:103460009DF80B00800711D5002005E0072004B06F
:10347000BDE8F09F401C80B236F810100029F9D149
:1034800019300D21B0FBF1F087B200E001270021D7
:10349000204600F095F80028E9D10026B0462169C1
:1034A000206800F044FC05000BD160690078E52835
:1034B00008D038B1002601212046FFF731FF050072
:1034C000EDD078E00EB9B4F80680761CB6B2BE42F4
:1034D000F1D1012F56D94146204600F071F8050080
:1034E00069D1A06900F004FD7F1E1FFA87FB0390DD
:1034F0002169206800F01BFC05005CD16069D4F8EC
:103500001C90039941730F21C172002101738176D0
:103510000BF0FF0AC176AAF1010101EB810202EB77
:10352000C10300224FF6FF7E244D471C01E04145B8
:1035300003D039F813105B1CF046AE5C815515F8CA
:1035400002C00E0A0CF8076001B94146521C0D2A50
:10355000EDD3714502D039F8131009B94AF0400A89
:1035600080F800A021680120087100212046FFF7A3
:10357000D7FE05001FD1ABF101001FFA80FBBBF1A4
:10358000000FB5D12169206800F0D1FB050012D1F0
:10359000666920220021304600F0C2FB0B22304633
:1035A000A16900F0B3FBA069C07A00F01800307385
:1035B000216801200871284659E70000C940000829
:1035C00070B50D46C1808168044601291ED020686F
:1035D00082698A421AD921B90278032A04D1416A40
:1035E00011B18078060117E0E1600189A9420DD987
:1035F000406A17E0206800F0E7FA0146401C07D057
:10360000022903D320688069884203D8022070BD54
:10361000012070BDA81B85B2B542EBD2E1602068E5
:10362000FFF76CFC00EB1510206105F00F01302254
:10363000206802EB411108446061002070BD10B5A4
:1036400030B101280AD0022808D0032804D105E0AF
:10365000FDF700FC002800D0012010BD002010BDA7
:1036600070B50C46154610B1012813D016E00C4871
:10367000FDF786FA0A48042C10D2DFE804F00D02A8
:103680000F08D0E91110B1FBF0F0286004E0806C65
:10369000288001E0032901D8002070BD042070BDFE
:1036A0006425002010B5044610461A0003D024B14A
:1036B000012C08D10CE0042010BD012A05D0FDF733
:1036C000CFFD0028F8D0012010BDFDF70FFEF8E770
:1036D000002010BD002804D0012803D0022801D00A
:1036E000012070470020704710B5044610461A00AC
:1036F00003D024B1012C08D10CE0042010BD012A14
:1037000005D0FDF77DFE0028F8D0012010BDFDF7A3
:10371000FFFEF8E7002010BD10B5044600F05CF98C
:10372000002801D10021216010BD000008B10B204C
:103730007047054A0023106800B1037001B10B7097
:1037400000201160704700000C0100202DE9F747B0
:103750008DB04FF00009074602F01F06C0F8009038
:1037600026F0010269460EA8FFF7BCFA050009A879
:1037700006904448079004D168460E9900F0AEF9CF
:103780000546059C0DB904B9062516F01C0F4DD051
:1037900055B1042D03D16846FFF73AFE0546059C56
:1037A00046F0080645B169E0E07A10F0110F47D104
:1037B000700701D5082561E0300747D500F05FFAB2
:1037C000A073010AE173010C2174000E607484F887
:1037D0000B9084F81C9084F81D9084F81E9084F857
:1037E0001F90A28A618B84F81A9084F81B9062F370
:1037F0001F4184F81490884684F8159000990120A0
:1038000008715FEA08011FD00098D0F82CA000F0E2
:103810003EFB050032D10099A8F10100C860514675
:10382000009800F084FA05000CD027E035BBE07A60
:10383000C10601D5042521E0B10703D5C00701D099
:1038400007251BE0300701D546F020060098C06A26
:10385000C7E90704BE71A18A608B61F31F4038611C
:10386000217FD4F81D2041EA0221C7E90291C7F85F
:103870001890009838600098C088B88010B028462A
:10388000BDE8F087982600202DE9F05F0F46002163
:1038900019600446818815469846006800F091FB3F
:1038A000002803D1A079010602D50220BDE8F09FCF
:1038B000C00708D0D4E90212501A04F12409854245
:1038C00000D9054683E00720F0E7A068C10566D16E
:1038D00022689178491E01EA502111F0FF0609D1B2
:1038E00018B31046616900F06FF902281FD3411C1C
:1038F0004DD0606161692068FFF700FBB8B100EB53
:10390000060B5FEA552A29D0216806EB0A0288785F
:10391000824201D9A0EB060A48780AF0FF035A4612
:103920003946FFF7BFFE90BB06E02069DDE7A079CE
:1039300040F08000A071B8E7A07940060BD5A169DE
:10394000A1EB0B00504506D207EB40204FF400726C
:10395000494600F0DBF94FEA4A262EE0A2695A45B3
:103960001BD0A07940060AD520680123494640783B
:10397000FFF7BAFE58B9A07920F04000A071206886
:1039800001235A4640784946FFF78CFE28B1A079BA
:1039900040F08000A071012088E7C4F818B0A0684A
:1039A000C0F30800C0F50076AE4200D92E460119DA
:1039B00024313246384600F0A9F9A1683744314431
:1039C000A160D8F80010AD1B3144C8F80010002DDC
:1039D0007FF47BAF002069E770B5044681880068FA
:1039E00000F0EFFA00280ED1A1798A060BD548061F
:1039F0000ED52068012304F124014078A269FFF765
:103A000073FE08B1012070BDA07920F04000A071C4
:103A1000E169206800F08BF90028F4D1256AE87A82
:103A200040F02000E872E0682877E068000A6877D4
:103A3000E068000CA877E068000EE8772069A876B7
:103A40002069000AE8762069000C28752069000EBC
:103A5000687500F014F9A875010AE975010C29765A
:103A6000000E6876A07920F02000A0712168012066
:103A700008712068BDE8704000F047BA80280BD379
:103A80000B4A51B10021FF2805D802EB4000A0F5F8
:103A90008050B0F8001F0846704732F8113083425A
:103AA00003D0491C89B28029F7D38031C8B270474E
:103AB000564100080021074A00E0491C32F8113045
:103AC0000BB18342F9D11A04120C02D0024830F82B
:103AD00011007047564200083644000873B504468A
:103AE000019801782F2901D05C2901D1401C019057
:103AF0000025A56001980078202805D200212046E5
:103B0000FFF75EFD65617CBD01A92046FFF74CFA19
:103B10000028F8D12046FFF76BFBA169C97A28B1CC
:103B20000428F0D14907EED405207CBD4907FCD418
:103B30006069C17AC906F7D5818A408B61F31F405D
:103B4000A060E1E7044900BFB1F800285206FBD5A8
:103B5000C2B2A1F804287047003001407CB5164677
:103B600005461C460B2200F0D1F8052C09D936F881
:103B7000021B600800EBC4303288084484B2002A7B
:103B8000F5D107214FEA0D0304F00F00303039283A
:103B900001D9C01DC0B25854491E2409F4D17E2059
:103BA0005854002200E0521C8A4202D2A85C20280D
:103BB000F9D120200446082901D25C5C491CAC5490
:103BC000521C082AF6D37CBD2DE9F04104460D466F
:103BD000022902D3A069A84202D80120BDE8F081E1
:103BE0002078012804D0022825D0032836D12EE0E1
:103BF000206A05EB550600EB5621204600F097F8A9
:103C000060BBC6F308002044761C90F83070206A30
:103C100000EB5621204600F08AF8F8B9C6F30800F8
:103C2000204490F8300047EA00210809EA07D5D17E
:103C3000C1F30B00D2E7206A00EB1521204600F00B
:103C400076F858B9E8B204EB4000008EC6E7206A67
:103C500000EBD511204600F06AF810B14FF0FF30AC
:103C6000BCE740F2FF1000EA8500204410F8301F46
:103C7000D0F8010041EA002020F07040AEE70020BB
:103C80007047000010B54820FFF78EFAFDF771FD70
:103C9000FEF718FDFCF750FFFCF71CFFFCF7EEFBEE
:103CA0000D490EA0FEF78AFDFCF726FF01280FD173
:103CB000FDF766FB0020FFF7C2FC0A490020FFF772
:103CC00035FD010002D008A0FEF778FDFDF778FE73
:103CD000FCF7CEFD002010BDE23F000825730D0A61
:103CE00000000000100100206D6F756E7420666981
:103CF0006C6573797374656D2030206661696C65DD
:103D000064203A2025640D0A0000000010B504E08C
:103D100011F8013B441C03702046521EF8D210BD1E
:103D2000C9B201E000F8011B521EFBD270472DE919
:103D3000F041C56A04460F468D422BD0217904F12B
:103D40003008D9B1607801232A464146FFF7CCFC00
:103D5000E0B900202071D4E907100844A8420DD929
:103D6000E67809E0E0690123054460782A46414687
:103D7000FFF7BAFC761EF6B2012EF3D857B1607881
:103D800001233A464146FFF78DFC10B10120BDE802
:103D9000F081E7620020FAE72DE9F04104460D4684
:103DA0001646022902D3A069A84202D80220BDE823
:103DB000F08120784FF00108012808D0022839D07E
:103DC000032847D05FF0020084F80480EFE7206A00
:103DD00005EB550700EB57212046FFF7A8FF002809
:103DE000F2D1C7F3080001193031F0B2EA0703D06D
:103DF0000246087862F31F10087084F80480206A75
:103E00007F1C00EB57212046FFF791FF0028DBD1F4
:103E1000C7F3080121443031EA0702D0C6F3071284
:103E200006E00A78330AC3F3030302F0F0021A43F0
:103E30000A70C9E7206A00EB15212046FFF777FFDB
:103E40000028C1D1E9B204EB4101320A01F8306F18
:103E50004A70B9E7206A00EBD5112046FFF767FFEB
:103E60000028B1D140F2FF1101EA85010A19303270
:103E70004FF07043D2F8011003EA01213143117071
:103E80000B0A53700B0C9370090ED1709CE72DE94F
:103E9000F04107460E46022918D3B869B04215D939
:103EA00000254FF001081DE031463846FFF78CFE33
:103EB00004001AD0012C09D0601C09D00022314620
:103EC0003846FFF769FF05000FD103E002250CE03B
:103ED00001250AE03869411C03D0401C386187F88D
:103EE00005802646B869B042DED82846BDE8F08194
:103EF000014600200B22430803EBC01011F8013BE0
:103F0000521E1844C0B2F6D170472DE9F041044664
:103F10000021FFF70CFF050050D12078032846D17F
:103F20006079F0B3002604F130004FF4007231469E
:103F30000746E662FFF7F4FE552084F82E02AA2019
:103F400084F82F02522084F8300084F83100612078
:103F500084F83200412184F83310722284F814224C
:103F600084F8152284F8161284F81702206984F860
:103F70001802010A84F81912010C84F81A12000EB2
:103F800084F81B02E06884F81C02010A84F81D1200
:103F9000010C000E84F81E1284F81F0260780123C1
:103FA00000E004E039466269FFF79EFB667100227B
:103FB00060781146FFF754FB00B101252846BDE8A3
:103FC000F08110B520B1027812B1C2888A4201D0C6
:103FD000092010BD4078FFF77DFBC007F9D0032012
:103FE00010BD0A48756E74657273756E204F54501B
:103FF000577269746572204941502070726F677200
:10400000616D2C206275696C74206F6E204A756E2C
:1040100020323420323031342061742031373A314B
:10402000303A34342056657273696F6E20312E3009
:104030000A00120100020000004083041057000231
:104040000102030109022900010100803209040074
:10405000000203000000092100010001221C0007EA
:10406000058203400001070501034000010699FF96
:104070000901A10175089540150025FF1900293F88
:1040800081021900293F9102C00403090414034866
:104090000075006E00740065007200730075006E9C
:1040A000002803480075006E0074006500720073FC
:1040B0000075006E0020004F005400500057007241
:1040C00000690074006500720001030507090E1005
:1040D000121416181C1E809A90418E418F804545FF
:1040E000454949498E8F9092924F994F555559990C
:1040F0009A9B9C9D9E9F41494F55A5A5A6A7A8A9FF
:10410000AAABAC21AEAFB0B1B2B3B4B5B6B7B8B923
:10411000BABBBCBDBEBFC0C1C2C3C4C5C6C7C8C987
:10412000CACBCCCDCECFD0D1D2D3D4D5D6D7D8D977
:10413000DADBDCDDDEDFE0E1E2E3E4E5E6E7E8E967
:10414000EAEBECEDEEEFF0F1F2F3F4F5F6F7F8F957
:10415000FAFBFCFDFEFFC700FC00E900E200E40002
:10416000E000E500E700EA00EB00E800EF00EE0009
:10417000EC00C400C500C900E600C600F400F6006B
:10418000F200FB00F900FF00D600DC00A200A30053
:10419000A500A7209201E100ED00F300FA00F10074
:1041A000D100AA00BA00BF001023AC00BD00BC00C3
:1041B000A100AB00BB009125922593250225242563
:1041C00061256225562555256325512557255D25F1
:1041D0005C255B251025142534252C251C25002560
:1041E0003C255E255F255A255425692566256025D1
:1041F00050256C2567256825642565255925582592
:10420000522553256B256A2518250C2588258425DC
:104210008C2590258025B103DF009303C003A30301
:10422000C303B500C403A6039803A903B4031E2265
:10423000C603B50329226122B1006522642220232E
:104240002123F7004822B0001922B7001A227F204C
:10425000B200A025A0006100620063006400650058
:1042600066006700680069006A006B006C006D0002
:104270006E006F00700071007200730074007500B2
:1042800076007700780079007A00A100A200A300F0
:10429000A500AC00AF00E000E100E200E300E400B4
:1042A000E500E600E700E800E900EA00EB00EC00CA
:1042B000ED00EE00EF00F000F100F200F300F4007A
:1042C000F500F600F800F900FA00FB00FC00FD0024
:1042D000FE00FF00010103010501070109010B01B7
:1042E0000D010F01110113011501170119011B0126
:1042F0001D011F01210123012501270129012B0196
:104300002D012F0131013301350137013A013C0103
:104310003E01400142014401460148014B014D016B
:104320004F01510153015501570159015B015D01D5
:104330005F01610163016501670169016B016D0145
:104340006F0171017301750177017A017C017E01B2
:104350009201B103B203B303B403B503B603B703C9
:10436000B803B903BA03BB03BC03BD03BE03BF0359
:10437000C003C103C303C403C503C603C703C80303
:10438000C903CA033004310432043304340435044D
:1043900036043704380439043A043B043C043D0431
:1043A0003E043F04400441044204430444044504E1
:1043B00046044704480449044A044B044C044D0491
:1043C0004E044F045104520453045404550456043B
:1043D0005704580459045A045B045C045E045F04E7
:1043E0007021712172217321742175217621772129
:1043F000782179217A217B217C217D217E217F21D9
:1044000041FF42FF43FF44FF45FF46FF47FF48FF90
:1044100049FF4AFF4BFF4CFF4DFF4EFF4FFF50FF40
:1044200051FF52FF53FF54FF55FF56FF57FF58FFF0
:1044300059FF5AFF0000410042004300440045007C
:1044400046004700480049004A004B004C004D0020
:104450004E004F00500051005200530054005500D0
:1044600056005700580059005A002100E0FFE1FFB4
:10447000E5FFE2FFE3FFC000C100C200C300C400CB
:10448000C500C600C700C800C900CA00CB00CC00E8
:10449000CD00CE00CF00D000D100D200D300D40098
:1044A000D500D600D800D900DA00DB00DC00DD0042
:1044B000DE007801000102010401060108010A0181
:1044C0000C010E01100112011401160118011A014C
:1044D0001C011E01200122012401260128012A01BC
:1044E0002C012E01300132013401360139013B012A
:1044F0003D013F0141014301450147014A014C0192
:104500004E01500152015401560158015A015C01FB
:104510005E01600162016401660168016A016C016B
:104520006E01700172017401760179017B017D01D8
:1045300091019103920393039403950396039703C8
:10454000980399039A039B039C039D039E039F0377
:10455000A003A103A303A403A503A603A703A80321
:10456000A903AA031004110412041304140415046B
:1045700016041704180419041A041B041C041D044F
:104580001E041F04200421042204230424042504FF
:1045900026042704280429042A042B042C042D04AF
:1045A0002E042F0401040204030404040504060479
:1045B0000704080409040A040B040C040E040F0485
:1045C00060216121622163216421652166216721C7
:1045D000682169216A216B216C216D216E216F2177
:1045E00021FF22FF23FF24FF25FF26FF27FF28FFAF
:1045F00029FF2AFF2BFF2CFF2DFF2EFF2FFF30FF5F
:1046000031FF32FF33FF34FF35FF36FF37FF38FF0E
:1046100039FF3AFF00000000384600080000002083
:1046200010010000DC2700084847000810010020A6
:10463000882B0000EC2700080000000000000000AC
:104640000100000000000000000000000204060855
:104650000000000001020304010203040607080928
:10466000000000000000000000000000000000004A
:10467000000000000000000000000E03480053008E
:104680003600320030003600711700084D0800086F
:1046900071170008711700087117000871170008DA
:1046A0007117000825080008711700087117000825
:1046B00071170008711700087117000871170008BA
:1046C000000003010000000032400008120000005A
:1046D00044400008290000006D4000081C00000054
:1046E0005640000809000000D11B0008FD1A000810
:1046F000CD1B0008CF1B0008ED180008DD1A0008CC
:10470000B51900085519000849190008951900083D
:104710000000000040000000894000080400000084
:104720008D40000814000000A1400008280000008F
:10473000420000200E000000000000000100000008
:08474000000000000000000071
:04000005080000ED02
:00000001FF
