:0300000002001EDD
:0C001E00787FE4F6D8FD7581E4021BC871
:101CD60001020408102040800000010102020202F5
:0D1CE60003030303030303030407030100CA
:10174300C2AF538E8F53A3F87F0A121C21E4F5E135
:10175300F5E2F5E37593F07594FF7595FFFF8F9EA2
:10176300EF4450F59E8F9FF59F0FBF08F1E4F59767
:1017730075975075970175975112196C758911D228
:101783008CD28ED2A9D2AB75CDF575CC9675CBF52F
:1017930075CA9675C81175D280D2AD121DB6D21D09
:1017A300120BF212155BD2647F01121478E478876E
:0717B300F6D254C28DD2AF43
:0117BA00220C
:101BC800121743121DB7200320D20312075F120A0F
:101BD80007303203121A13302E03121902302A0367
:0E1BE80012182C120F6D121DB412046180D55C
:03000300020009EF
:0100090032C4
:03000B00020006EA
:03000600C25432AF
:0300130002000ADE
:01000A0032C3
:03001B0002000ED2
:03000E00C20332F8
:03002B00021CF3C1
:101CF300C0D075D00875D300758B38758DFFC2526F
:0C1D0300C25378B2060548B281D0D0323D
:0300630002001187
:0100110032BC
:051C2100C0D075D000E9
:101C26007EFADEFE7EFADEFE7EFADEFE7EFADEFE5E
:101C36007EFADEFE7EFADEFE7EFADEFE7EFADEFE4E
:021C4600DFDEDF
:031C4800D0D022D7
:051DA000C0D075D00069
:061DA50000000000DFFA5F
:031DAB00D0D02273
:0100120022CB
:101D5900851911E4F512F513F514F515F516F517AE
:031D6900D20E2275
:03001600021D596F
:031DAE00021D59BA
:031DB100021D59B7
:0100190022C4
:01001A0022C3
:01002A0022B3
:101CB700C0D075D000751120E4F512F513852014F6
:0F1CC70078C1E6F515E4F516F517D20ED0D02248
:100F6D00C0D075D000300E05C20E0210E6300F0550
:100F7D00C20F02102A300C12C20C751124854612B4
:100F8D00E5265403F513E40210C9200D030210E603
:100F9D00C20DE51864B360030210E6E51954F0FFC5
:100FAD007046E519B401061200160210E6E519B4F3
:100FBD000206121DAE0210E6E519B40306121DB1AC
:100FCD000210E6E519B404061200190210E6E5193F
:100FDD00B4050612001A0210E6E519640F6003024B
:100FED0010E612002A0210E6EF642060030210D50D
:100FFD00E5196420702DE51A30E70C30E204E4FFAA
:10100D0080027F03121478E51A30E31153208FE527
:10101D001B5407C454F042207F05121DBC121CB78F
:10102D000210E6E5196421701CE51A541F600A7F51
:10103D0003121DBC121A138007E4F51BF51CF51DD8
:10104D00751121801DE51964227025E51A541F6064
:10105D00077F04121DBC8007E4F51BF51CF51D75FB
:10106D001122E4F512851B13851C14851D15805066
:10107D00E519B42310751123751210E4F5137514C9
:10108D0063F515803BE519B42404D20C804BE519AA
:10109D006428701BE51A30E00D20600330610312E7
:1010AD001DBE7F038004C2647F01121478802AE57F
:1010BD001964297024751129F512F513F514F51518
:1010CD00F516F517D20E8011E51954F0FFBF600922
:0C10DD005321F0E519540F4221D0D0221D
:011DB400220C
:100DD0001201100100000008A71E2A0000020001F5
:100DE000000109025400030100A0320904000001BF
:100DF00003010100092110010001224300070581C0
:100E00000308000109040100010301020009211087
:100E100001000122430007058203080001090402C2
:100E200000010300000009211001000122740007E5
:100E30000583030800010921100100012243000578
:100E4000010902A1010901A10005091901290815DB
:100E50000025019508750181020501093009311647
:100E600001F826FF07750C950281060938158125C2
:100E70007F750895018106050C0A380295018106E7
:100E8000C0C006B3FF0901A10185B3090215002600
:100E9000FF007508950781020902150026FF0075FD
:100EA0000895079102C0050C0901A10185021901ED
:100EB0002AFF03150126FF03950175108100C00567
:100EC000010980A10185031A81002A8300150025EC
:100ED0000195037501810295058101C006BCFF09DA
:100EE00088A101850419002AFF00150026FF00953E
:100EF0000175088100C005010906A1010508190155
:100F000029051500250195057501910295017503C7
:100F1000910105071AE0002AE70015002501950850
:100F20007501810295017508810119002AFF0015DC
:100F30000026FF0095068100C0040309040E035338
:100F400000450036003000460021002203550053C2
:100F50000042002000470061006D0069006E0067DC
:0D0F60000020004D006F007500730065005B
:011DB500220B
:011DB600220A
:011DB7002209
:10380000FFFFFFFFFFFFFFFFFFFFFFFFFFFFFFFFC8
:10381000FFFFFFFFFFFFFFFFFFFFFFFFFFFFFFFFB8
:10382000FFFFFFFFFFFFFFFFFFFFFFFFFFFFFFFFA8
:10383000FFFFFFFFFFFFFFFFFFFFFFFFFFFFFFFF98
:103D000081428242844290428842A042C042034A99
:103D10000143FF43FFFFFFFFFFFFFFFFFFFFFFFF29
:103D200081428242844290428842A042C042034A79
:103D30000143FF43FFFFFFFFFFFFFFFFFFFFFFFF09
:103D400081428242844290428842A042C042034A59
:103D50000143FF43FFFFFFFFFFFFFFFFFFFFFFFFE9
:103D600081428242844290428842A042C042034A39
:103D70000143FF43FFFFFFFFFFFFFFFFFFFFFFFFC9
:103D800081428242844290428842A042C042034A19
:103D90000143FF43FFFFFFFFFFFFFFFFFFFFFFFFA9
:103DA000FFFFFFFFFFFFFFFFFFFFFFFFFFFFFFFF23
:103DB000FFFFFFFFFFFFFFFFFFFFFFFFFFFFFFFF13
:103DC000FFFFFFFFFFFFFFFFFFFFFFFFFFFFFFFF03
:103DD000FFFFFFFFFFFFFFFFFFFFFFFFFFFFFFFFF3
:103DE000FFFFFFFFFFFFFFFFFFFFFFFFFFFFFFFFE3
:103DF000FFFFFFFFFFFFFFFFFFFFFFFFFFFFFFFFD3
:103E0000FFFFFFFFFFFFFFFF113A5D00FFFFFFFF16
:103E1000FFFFFFFFFFFFFFFFFFFFFFFFFFFFFFFFB2
:103E2000A71E650001FF31F7FFFFFFFFFFFFFFFF48
:103E3000FFFFFFFFFFFFFFFFFFFFFFFFFFFFFFFF92
:103E4000FFFFFFFFFFFFFFFFFFFFFFFFFFFFFFFF82
:103E5000FFFFFFFFFFFFFFFFFFFFFFFFFFFFFFFF72
:103E6000FFFFFFFFFFFFFFFFFFFFFFFFFFFFFFFF62
:103E7000FFFFFFFFFFFFFFFFFFFFFFFFFFFFFFFF52
:103E8000FFFFFFFF0304080503C40304080604083A
:103E9000030408070604FFFFFFFFFFFFFFFFFFFF0C
:103EA000FFFFFFFFFFFFFFFFFFFFFFFFFFFFFFFF22
:103EB000FFFFFFFFFFFFFFFFFFFFFFFFFFFFFFFF12
:103EC000FFFFFFFFFFFFFFFFFFFFFFFFFFFFFFFF02
:103ED000FFFFFFFFFFFFFFFF4446FFFFFFFFFFFF66
:103EE0004446B8FFFFFFFFFF4446B8FFFFFFFFFF58
:103EF0004446B8FFFFFFFFFF4446B8FFFFFFFFFF48
:101D2B00183858789881428242844288429042A067
:091D3B0042C0420B4A0143FF4380
:05002E00C0D075D000F8
:10003300AE07E52025E054E02FFF903D0093F52E19
:10004300EFA393F52F552EFFBFFF12EEC39413506A
:0D0053000CEE901D3093F52EEEA393F52FCB
:03006000D0D022DB
:05006600C0D075D000C0
:10006B00E52F645F6008E52F552EFFBFFF05C238F3
:10007B0002045EE52F30E7030203D95460FD7038AC
:10008B0030390D303A0302045E78B5F608F6801568
:10009B00E52F30E405C454F08004E52F540F78B5F8
:1000AB00F678B6A62EE478B7F608F608F608F60842
:1000BB00F6D211D2370203FBBD202230390E303A73
:1000CB000302045EE478BDF618F6800AE52F541F90
:1000DB0078BDF618A62ED212D2370203FBED644080
:1000EB0060030202BBE52F541FB40C004003020255
:1000FB00B4900103F8282873020127020141020181
:10010B005B0201930201A40201A40201A40201A457
:10011B000201A40201A402020C02026730390C3066
:10012B003A0302045EE478BEF6800478BEA62ED2B3
:10013B0013D2370203FB30390C303A0302045EE46E
:10014B0078BFF6800478BFA62ED214D2370203FBF9
:10015B0030390A203A028018D23502045EE52E307F
:10016B00E70E547FFF78B346F67849E64FF6800FDB
:10017B00E52E547FF4FF78B356F67849E65FF6D256
:10018B0010D234D2370203FB30390302045E78B449
:10019B00A62ED234D2100203FB203C05C238020437
:1001AB005E303D54E52F30E311E543541F702B783F
:1001BB008706749CD39650228017E52F30E21B30B4
:1001CB00E115E5435403701278870674FAD3965001
:1001DB0009E4F6080680037888067888E6C3952E2E
:1001EB004005C23D0203FBE52F20E00302045E3015
:1001FB003A0302045E020410D23DE47888F602044E
:10020B005EE52E54C0FFBFC01130390A303A0302ED
:10021B00045ED20C8041D20C803D30390302045E67
:10022B00E52EB40D04B202802EE52E5403FDE52E0F
:10023B0030E30A5325F8ED4225D22A801AE52E30F9
:10024B00E20D53258FEDC454F04225D22E80085376
:10025B0026F8ED4226D232C2370203FBE52E702080
:10026B00303914303A0302045EC22F7849E678B372
:10027B00F6D234D2108004D22FC243D2370203FB02
:10028B00E52E640160030203FB303914303A03029C
:10029B00045EC22B78B3E654FEF6D234D21080043F
:1002AB00D22BC242D2370203FBC238C2370203FB46
:1002BB00ED646060030203D5E52F5418FD704EE525
:1002CB002F20E23C20E11620E003ED6026E52F20F5
:1002DB00E0030203FBED70030203FB8016E52F2006
:1002EB00E003303B0EE52F20E0030203FB203B0332
:1002FB000203FB74042533F533053005300203FB91
:10030B00C23BED70030203FBD23B0203FBED64081F
:10031B00703C203A030203FBE52E30E71C547F258B
:10032B00E02402FFC3E5339FF533E52E547F04FF32
:10033B00C3E5309FF5300203FBE52E547F25E02506
:10034B0033F533E52E547F2530F5300203FBED6496
:10035B00107073203630E520C4540F7E00540724F0
:10036B002BF582EE341DF583E493FFE52F5407FB49
:10037B00EF2BFFEE33FEE42FF582743D3EF583E465
:10038B00937889F6D2367889E66037E52E30E71B0D
:10039B00547F25E02402FFC3E5339FF533E52E544C
:1003AB007F04FFC3E5309FF5308012E52E547F2587
:1003BB00E02533F533E52E547F2530F5307889165B
:1003CB00802EC236802AC2378026C2378022D23C8A
:1003DB00E52F547FF531E52E54FEF533E52E54FE13
:1003EB00F532E4F530C236C23EE52E30E002D23EA5
:1003FB00303C5EE530B53107E4F527D23980543017
:10040B003E15203A12C23DC23CE5311425E025329F
:10041B00F533E53114F530E5205470C4540F24380E
:10042B00FDFEE5337A002400FFEA3E8F82F583E47C
:10043B0093F52EEDFEE5332400FFEA3E8F82F58324
:10044B00740193F52F053305330530203705020072
:03045B006BD23928
:03045E00D0D022D9
:050A0700C0D075D00015
:100A0C00303403020BEF301103020BEFC237E52633
:100A1C00F53BE546F53CE53B6544F539E53C65457C
:100A2C00F53A853B44853C45753D00753E01E4FC3B
:100A3C00EC75F006A4244BF8E6FD20E05BE5395597
:100A4C003DFEE53A553E4E7003020B79E53B553DB4
:100A5C00FEE53C553E4E6031EC75F006A4244BF897
:100A6C007605EC75F006A4244FF8E4F6EC25E0FFCF
:100A7C0012002EEC75F006A4244CF8A62EEC75F0A2
:100A8C0006A4244DF8A62F8041EC75F006A4244B47
:100A9C00F8ED54FBF6020B79E539553DFEE53A5578
:100AAC003E4E6026E53B553DFEE53C553E4E600E08
:100ABC00EC75F006A4244BF8740446F6800CEC7527
:100ACC00F006A4244BF874FB56F6EC75F006A4243F
:100ADC004BF8E6F527EC25E0FF12002EE52E54FE30
:100AEC00F532E52F547FF531EC75F006A4244CF863
:100AFC00E6F52EEC75F006A4244DF8E6F52FEC7512
:100B0C00F006A4244EF8E6F530EC75F006A4244F5C
:100B1C00F8E6F533EC75F006A42450F8E67888F680
:100B2C00120066303907203A04C23CC238EC75F02A
:100B3C0006A4244BF8A627EC75F006A4244CF8A6C2
:100B4C002EEC75F006A4244DF8A62FEC75F006A437
:100B5C00244EF8A630EC75F006A4244FF8A6337892
:100B6C0088E6FFEC75F006A42450F8A607E53E25B0
:100B7C00E0F53EE53D33F53D0CEC640A6003020AFA
:100B8C003C302F3130352E7849E66029C2350806C5
:100B9C007F03121DB9AC07784AE6FFECD39F5015C2
:100BAC0030430418E68001E478B3F6B243E4784AA3
:100BBC00F6D234D210302B2B784A067F03121DB993
:100BCC00AC07784AE6FFECD39F501878B3E6204286
:100BDC00054401F6800354FEF6B242E4784AF6D29C
:030BEC0034D210F0
:030BEF00D0D02241
:011DB8002208
:011DB9002207
:011DBA002206
:011DBB002205
:011DBC002204
:011DBD002203
:10196C00E4F539F53AE53AFDFFAE39120000E53AF7
:10197C007002B282053AE53A70020539C394D0E59B
:10198C0039940740E0E4F539F53AC3E53A94D0E5EB
:10199C0039940750CBE4253AF58274383539F58300
:1019AC00E0653A7001E46002B282053AE53A70DA19
:0419BC00053980D693
:011DBE002202
:101D9000000000000001000001000100010001013D
:1012600078C9E6FD540FFE78CBE6FBEBFF78C2EEC3
:10127000F608EFF6EE30E30818E644F0F608E6F676
:10128000EDC4540FFE78CDE6FDEDFF78C4EEF60810
:10129000EFF6EE30E30818E644F0F608E6F6903E86
:1012A0000CE49354E0FF30E71A78C2E6FC08E6FD50
:1012B00008E6FA08E6FB78C2A60208A60308A60418
:1012C00008A605EF30E61278C2E6FC08E6FDC3E4A6
:1012D0009DFDE49C18F608A605EF30E51278C4E6FB
:1012E000FE08E6FFC3E49FFFE49E18F608A607C2C7
:1012F0004078C2E6FE08E6FFEE30E70DD240C3E4D8
:101300009FFFE49E18F608A607C24178C4E6FE08CF
:10131000E6FFEE30E70DD241C3E49FFFE49E18F6EE
:1013200008A6077F02121DB9EF30E46778C2E6FE17
:1013300008E6FF4E6024EF78CF26FFEE1836CF2464
:1013400001CF3400A2E713FEEF13FF78C2EEF608D8
:10135000EFF678CEA60608F68006E478CEF608F614
:1013600078C4E6FE08E6FF4E6023EF78D126FFEE54
:101370001836CF2401CF3400A2E713FEEF13FF7815
:10138000C4EEF608EFF678D0A60608F622E478D088
:03139000F608F666
:011393002237
:05075F00C0D075D000C0
:1007640020460302087FC24678C7E6F54678C0E60D
:10077400FFC4540FF52612126078C6E608F678C056
:10078400E6540FF6E6FFC454F04FF678CAE608F6CE
:1007940008E608F678C8E608F6E408F678CCF678B1
:1007A400C8F6304704C200C20130010302087F309A
:1007B400401278C2E6FE08E6FFC3E49FFFE49E18F9
:1007C400F608A60730411278C4E6FE08E6FFC3E443
:1007D4009FFFE49E18F608A607200079E54830E05C
:1007E4000302087F78C2E6FE08E678AE26F618EE25
:1007F40036F678C4E6FE08E678B026F618EE36F645
:1008040012126030401278C2E6FE08E6FFC3E49F8D
:10081400FFE49E18F608A60730411278C4E6FE08E5
:10082400E6FFC3E49FFFE49E18F608A60778C2E635
:10083400FE08E678AE26F618EE36F678C4E6FE082C
:10084400E678B026F618EE36F6E478CBF678CDF6F0
:1008540078C9F6801D78C2E6FE08E678AE26F6185A
:10086400EE36F678C4E6FE08E678B026F618EE36DC
:10087400F6E478C2F608F608F608F6200103020941
:10088400ED30000302092CE5435403FD704E78C398
:10089400E62401FF18E436A2E713F539EF13F53A1D
:1008A40030400BC3E4953AF53AE49539F53978AE1E
:1008B400E53A26F618E53936F678C5E62401FF1838
:1008C400E436A2E713F539EF13F53A304157C3E4A0
:1008D400953AF53AE49539F5390209D7ED640260A1
:1008E400030209ED78C2E6A2E713F53908E613F529
:1008F4003A30400BC3E4953AF53AE49539F5397842
:10090400AEE53A26F618E53936F678C4E6A2E713DA
:10091400F53908E613F53A30410BC3E4953AF53A54
:10092400E49539F5390209D7E4FDE54354036D60D4
:10093400030209E478C2E6FA08E6FBAE027802CEC6
:10094400A2E713CE13D8F8F53A8E39EB540325E019
:1009540025E02490F582E4341DF583E5822DF582AB
:10096400E43583F583E493253AF53AE43539F539EA
:1009740030400BC3E4953AF53AE49539F53978AE4D
:10098400E53A26F618E53936F678C4E6FA08E6FBC1
:10099400AE027802CEA2E713CE13D8F8F53A8E3918
:1009A400EB540325E025E02490F582E4341DF5831F
:1009B400E5822DF582E43583F583E493253AF53A0F
:1009C400E43539F53930410BC3E4953AF53AE49509
:1009D40039F53978B0E53A26F618E53936F680095E
:1009E4000DED6404600302092E79ADE778AF46FE8D
:1009F40009E70846FF78B4E6FDEF4D4E6002D210D9
:030A0400D0D0222D
:05190200C0D075D0000B
:10190700C22EE520C4540F7E00540724D6F582EE7C
:10191700341CF583E493FF903E0CE493541FFE6060
:1019270041E4FD302C0EEF25E0FFBF2012302D32B1
:101937007F01800BEFC313FF7005302D257F10EE5D
:101947005F70090D7404D39D50D9801653208FEF13
:10195700541F901CDE93C454704220D20F7F021292
:021967001DBCA5
:03196900D0D022B9
:05182C00C0D075D000E2
:10183100C22AE5205403901CD693F5397F02121D6C
:10184100B9EF604FE4FE302811E53925E0F539B4F0
:10185100101630293E753901800EE539C313F5396B
:10186100700630292E753908E5395F70090E740349
:10187100D39E50D2801D304704C200C2015320FCC8
:10188100E539540F901CDE9354034220D20F7F019F
:03189100121DBC69
:03189400D0D0228F
:051A1300C0D075D000F9
:101A1800C23278C1E65407FFE520C313543824D8EE
:101A2800FEE4FD30300B0FBF081030312AE4FF8090
:101A3800091FBFFF0530311F7F07EE2F903E00932F
:101A4800B4FF090D7408D39D50D9800B78C1A6073F
:071A5800D20FE4FF121DBCD8
:031A5F00D0D022C2
:101C4B00020406080A0C0E10121416181A1C1E2079
:101C5B00222426282A2C2E30323436383A3C3E4069
:081C6B00424446484A4C4E5029
:10155B00903E00E493F537A3E493F538E537543F19
:10156B00FD7428D39D500474D82DFDED901C4B9326
:10157B0078D2F6E4F9FC7B01E9700409FE8016B918
:10158B00010509E537800AB90203098002E4F9E590
:10159B0038C4540FFE7420C39CE537540F40072EFC
:1015AB00240C2DFD80062E2C24EC2DFD7428D39DB0
:1015BB00500474D82DFDED901C4B93F539E4FFEFDF
:1015CB00C39B500E74D22FF8E6B539030C80A90FCC
:1015DB0080ED740FD39B400874D12BF8E6FE80048A
:1015EB0078D2E6FEE539D39E4006E5399EFF8005AD
:1015FB00C3EE9539FF7417D39F40040C0215837407
:10160B00D22BF8A639E4FC0BEBC394105003021554
:01161B00834B
:01161C0022AB
:05161D00C0D075D000F3
:101622003051030216B72050030216B730642E78E9
:10163200870620600330610630671020650D903EFA
:1016420008E49354F0D3788796506A20600330619F
:1016520003121DBE7F03121478C2648058A2623046
:101662006001B34008A262306001B35048200E45C9
:10167200751128E4F512306018431201784CE6F532
:101682001308E6F51408E6F5157852E6F516E4F5C2
:1016920017306117431202784FE6F51308E6F51486
:1016A20008E6F51508E6F516E4F517D20EA26092E3
:0516B20062A2619263D9
:0316B700D0D0226E
:0517BB00C0D075D00054
:1017C000305666E4FFFE74B52EF8E642070EBE0BF7
:1017D000F5EF7007C25678E2F6804E78E206748024
:1017E000D3965045C256E478E2F6FE74B52EF8E67C
:1017F0006012E478B5F608F608F608F608F608F67A
:1018000008F6D2110EBE07E379BCE778BD46600743
:10181000E418F608F6D21278BEE66004E4F6D213B5
:0918200078BFE66004E4F6D2147E
:03182900D0D022FA
:101B8F00E52EC454F0FFB547037F00228F47E52EA3
:101B9F0025E025E0FF652B54C06002D20F532B3F89
:101BAF00EF54C0422BE52E30E606532BF0432B0BA0
:081BBF00D256E478E2F67F0142
:011BC70022FB
:0510E900C0D075D0002D
:1010EE00121394AE07E538705430600302125DD2CD
:1010FE0060EE640A703AE52B652E54306002D20F12
:10110E00532BC0E52E543F422B78C6A62F78CAA685
:10111E003078CCA63178C7A63278CBA63378CDA658
:10112E003478C0A63578C8A63678C9A63702125DBF
:10113E00EE6408600302125D852E11801DE5386491
:10114E0001600302125D30610302125DD261EE6432
:10115E00087057E52E20E719F511852F12853013EB
:10116E00853114853215853316853417D20E021249
:10117E005D121B8FEF700302125DE4FE74B52EF943
:10118E00742F2EF8E667601BD21178B5A62F08A62D
:10119E003008A63108A63208A63308A63408A635AC
:1011AE0002125D0EBE07D502125DEE6403600302ED
:1011BE001257121B8FEF700302125DE52F54E0FFE2
:1011CE00BF201BE52F541FFD78BD66700618E6651F
:1011DE0030607CD21278BDA60518A6308071EF64FF
:1011EE00607042E52F30E41C540F78C046FFF6E5E0
:1011FE002FC454F04FF678C6E64530F678C7E6456C
:10120E0030F6804BE52FF4540F78C056FFF6E52FDD
:10121E00C454F0F45FF6E530F4FF78C656F678C79E
:10122E00E65FF6802AE52FB4400D78BEE6653060A5
:10123E001ED213A6308018E52FB4411378BFE66591
:0F124E0030600CD214A6308006BE0103121B8F35
:03125D00D0D022CC
:1019C000121394EF6407704A903E0093653370429F
:1019D000A3936534703CE52EB4081AD260784CA607
:1019E0002F08A63008A6317852E654E0FFF6E5321B
:1019F000541F4FF622E52EB40918D261784FA62F56
:101A000008A63008A63108E6541FFFF6E53254E078
:021A10004FF68F
:011A120022B1
:101D7E00000E0100020303020400051706401C03B7
:021D8E001D072F
:101C7300C0D075D00053E8FDE5E630E1FBEF541F1B
:101C8300F5E775E7FFE5E630E3FBAFE7AFE743E8EA
:041C930002D0D02289
:101C9700C0D075D00053E8FDE5E630E1FB8FE78D56
:101CA700E7E5E630E3FBAFE7AFE743E802D0D02252
:101D0F00C0D075D00053E8FDE5E630E0FB8FE7E586
:0C1D1F00E630E2FBAFE743E802D0D02240
:0F1AB1007531407532507A00792E753E057F23CE
:101AC000AE3E53E8FDE5E630E0FBEF4420F5E7E508
:101AD000E630E2FBAFE7EED39400401BE5E630E0F2
:101AE000FB121BF6F5E7E5E630E2FBAFE7740129F0
:0A1AF000F9E43AFA1E80DF43E80231
:011AFA0022C9
:05139400C0D075D0007F
:1013990053E8FDE5E630E1FB75E76075E7FFE5E653
:1013A90030E3FB85E738AFE743E80253E8FDE5E6BC
:1013B90030E0FB75E761E5E630E2FBAEE77B007AFA
:1013C90000792EEF640A6005EF64087075E5E63070
:1013D900E1FB75E7FF75E7FFE5E630E3FB85E72EFF
:1013E90085E72FE5E630E1FB75E7FF75E7FFE5E601
:1013F90030E3FB85E73085E731E5E630E1FB75E76A
:10140900FF75E7FFE5E630E3FB85E73285E733E57E
:10141900E630E1FB75E7FF75E7FFE5E630E3FB85BD
:10142900E73485E735EF640A703FE5E630E1FB759F
:10143900E7FF75E7FFE5E630E3FB85E73685E73744
:101449008027E4C39F5022740A9F401DAE07E5E63A
:1014590030E0FB75E7FFE5E630E2FBE5E7121C0F3C
:0C146900740129F9E43AFADEE543E802D8
:03147500D0D022B2
:051AFB00C0D075D00011
:101B000053E8FDE5E630E0FB75E7B0E5E630E2FBE3
:101B1000AEE7EF602A753A00753B00753C2EE5E6AE
:101B200030E0FBAB3A053CE53CAA3B7002053B14B8
:101B3000F9121BF6F5E7E5E630E2FBAEE7DFDF433F
:021B4000E802B9
:031B4200D0D022DE
:101D6C00E4FDEF30E3027D40EF540742057F26028D
:021D7C001C97B2
:101D4400AE077F07121C73EF54806E60077D537FCC
:041D540050121C9776
:011D58002268
:100BF20053E8FEC269C268C2807F32121DA075E846
:100C02000643E50F7F0A121C21E4F539E4FF121DA9
:100C1200447D037F20121C977D327F25121C977D15
:100C2200407F26121C977D577F3F121C977F8012B0
:100C32001D44752E40E4F52F7530107531E4FB7AB2
:100C420000792E753E047F21121AC0752E20752F51
:100C520008753050121AB1E4F52EF52F75301F7A4F
:100C620000792E753E037F2A121AC0752E147A005F
:100C7200792E753E017F2C121AC0E4F52E7A007986
:100C82002E753E017F37121AC0752E7F7A00792E9B
:100C9200753E017F38121AC0752E02752FC175304C
:100CA200EB75311C7A00792E753E047F3D121AC015
:100CB200752E97752F64E4F5307531817A00792E9F
:100CC200753E047F3E121AC0E4FF121D4443E80140
:100CD200D269D2807F14121DA053E8FEC269C2807D
:100CE2007F32121C21E4FEEE25E0247EF582E434FC
:100CF2001DF583E4934420FFEE25E0247FF582E492
:100D0200341DF583E493FD121C970EBE09D97F02B0
:100D1200121C217F80121D44752E40752F017530E3
:100D2200307531E07B007A00792E753E047F211206
:100D32001AC0752E29752F89753055121AB1752E64
:100D4200087A00792E753E017F25121AC0752E147D
:100D52007A00792E753E017F2C121AC0752E5575B8
:100D62002FC27530097531AC7A00792E753E047F39
:100D720031121AC0752EFF752F1F75300875312973
:100D82007A00792E753E047F33121AC0752E0275D1
:100D92002FC17530CB75311C7A00792E753E047FD8
:100DA2003D121AC0752E97752F64E4F53075310126
:100DB2007A00792E753E047F3E121AC0E4FF121D9E
:0D0DC200440539E539C394035003020C0EBB
:010DCF002201
:101B4500A00A4404A08A4401C20A4401D20A4400FE
:101B5500C20A4401C20A4401C2FF4401C20A440147
:101B6500A20AFF01B20A4401C00A44FFF10AFF01BB
:101B7500F90F443FE01111FFF0011144F90F114431
:0A1B8500F8071144E300444400FF98
:1016BA00E52B540FFFF52E7409C39F4030EF143306
:1016CA00333354F8FF901B4593F52FEFA393F5306E
:1016DA00EFA393F531EFA393F532EFA393F533EF2D
:1016EA00A393F534EFA393F535EFA38048BF0A1A05
:1016FA00901B8DE493F52FA3E493F530E4F531F5CF
:10170A0032F533F534F535F53622EF640B7029904E
:10171A003E1093F52FA3E493F530A3E493F531A398
:10172A00E493F532A3E493F533A3E493F534A3E405
:08173A0093F535A3E493F536A5
:011742002284
:10189700752E02752FF17530FF7531FF7B007A00C9
:1018A700792E753E047F10121AC07D527F25121CB7
:1018B70097D2667F01121DB88F2E7F02121DB88F37
:1018C7002F7F03121DB88F30903E00E493F531A3AC
:1018D700E493F532A3E493F5332067047F0680177A
:1018E7007F04121DB88F347F05121DB88F357F0610
:0B18F700121DB88F367F09121AFB2269
:05046100C0D075D000C1
:10046600201D1C20690620680302075C53E8FEC2B3
:1004760069C268C2807D707F27121C9702075C20C4
:10048600500302075C205103020654305203020552
:1004960095758AA8758CFDD25453E8FEC269C26868
:1004A600C2807D2E7F20121C977D707F27121C979D
:1004B6007FE1121D0FE54820E042540F7006121826
:1004C60097020578E54820E10E78D2E6FD7F2512F1
:1004D6001C975348FC800978D3E6FD7F25121C97AC
:1004E600903DEAE493540FFFE54754F04FF52EE5AF
:1004F60048541FF52F7F02121AFB8076E5485403F5
:100506006401600302058DE5481313540724D2F8ED
:10051600E6FD7F25121C97E521540FF5397006E597
:100526002B540F7042E54820E504E53960148539FF
:100536002EE5205477F52F202B03302F17432F80DD
:100546008012B28278C1E65407FFF64410F52E12E7
:100556001DBA8F2FE54754F0FFE52354074FF530BA
:100566007F03121AFB800B1216BA7F09121AFB536D
:100576002BF043E801D269D2807F14121DA053E804
:10058600FEC269C28080031217BBD25202075C20EA
:10059600686B30540302075CD254758AF8758CF880
:1005A600D2A9D28C306624C266752E02903E00E433
:1005B60093F52FA3E493F530A3E493F5317B007A0A
:1005C60000792E753E047F10121AC0E548540F2498
:1005D600D2F8E6FD7F25121C977D707F27121C97A7
:1005E6007D2F7F20121C977FE2121D0F53C0FD4303
:1005F600E801D268D280C261C26002075CE5C03001
:10060600E12FE4F53953C0FD7D707F27121C971248
:1006160010E97F17121C73EF30E008E5C020E103F4
:1006260002075C0539E539C3940A400302075C807A
:10063600D430540302075C53E8FEC268C2807D7062
:100646007F27121C97D254D253D24602075C3053EE
:100656000302075C3052030206F1D25253E8FEC28F
:1006660069C268C2807D2E7F20121C977D707F270D
:10067600121C977FE1121D0F903E08E493540FF56C
:100686002E306003432E10306103432E20903E032C
:10069600E493F52FE4F530903E0093F531A3E4930F
:1006A600F532784CE6F53308E6F534784FE6F5355D
:1006B60008E6F5362055047D0280027D527F25121C
:1006C6001C9743E801D269D2807F09121AFB7FFA90
:1006D600121DA07F96121DA07D707F27121C9753B6
:1006E600E8FEC269C28012161D806B20682D758ACD
:1006F600F8758CF8D25453E8FEC269C268C2807D90
:10070600707F27121C977D2F7F20121C977FE21285
:100716001D0F43E801D268D280803BE5C030E12658
:10072600E4F5397D707F27121C971219C07F1712C6
:100736001C73EF30E005E5C030E11B0539E539C330
:100746009405501280DD20540DD25453E8FEC26841
:06075600C280B255D2532F
:03075C00D0D022D8
:051A6200C0D075D000AA
:101A670079B5E778B6460846084608460846084660
:101A77006002D21179BCE778BD466002D21278BE07
:101A8700E66002D21378BFE66002D21478B3E6604C
:101A970002D210E478ADF608F678AFF608F67F0DB7
:071AA70078B3E4F608DFFC50
:031AAE00D0D02273
:05147800C0D075D0009A
:10147D00EF5403FFE52A54FC4FF52A206803306929
:10148D001A53E8FEC269C268C2807FE1121D0F7F48
:10149D00E2121D0F7D707F27121C9720500302153D
:1014AD005220514C903E08E493540FFF121D6C7561
:1014BD002FF07530FF7531FF752E027B007A0079A4
:1014CD002E753E047F10121AC0752E087B007A000F
:1014DD00792E753E047F0A121AC0752E097B007A8B
:1014ED0000792E753E017F0B121AC0532CF08058D7
:1014FD00752E02903E00E493F52FA3E493F530A3EF
:10150D00E493F5317B007A00792E753E047F10123D
:10151D001AC0752E087B007A00792E753E047F0A5D
:10152D00121AC0752E097B007A00792E753E017F47
:10153D000B121AC0121DBD432A1CC255E4F548F505
:0B154D008AF58C8006205103121A6200
:03155800D0D022CE
:101BF600BB010689828A83E0225002E722BBFE02ED
:091C0600E32289828A83E493221F
:101C0F00BB010689828A83F0225002F722BBFE01B4
:021C1F00F322AE
:00000001FF
